Return-Path: <linux-kernel-owner@vger.kernel.org>
Received: (majordomo@vger.kernel.org) by vger.kernel.org via listexpand
	id <S263396AbRFAHMd>; Fri, 1 Jun 2001 03:12:33 -0400
Received: (majordomo@vger.kernel.org) by vger.kernel.org
	id <S263397AbRFAHMY>; Fri, 1 Jun 2001 03:12:24 -0400
Received: from smtp3.xs4all.nl ([194.109.127.132]:52484 "EHLO smtp3.xs4all.nl")
	by vger.kernel.org with ESMTP id <S263396AbRFAHMP>;
	Fri, 1 Jun 2001 03:12:15 -0400
From: thunder7@xs4all.nl
Date: Fri, 1 Jun 2001 07:39:19 +0200
To: Jeff Garzik <jgarzik@mandrakesoft.com>
Cc: linux-kernel@vger.kernel.org
Subject: Re: interrupt problem with MPS 1.4 / not with MPS 1.1 ?
Message-ID: <20010601073919.A5922@middle.of.nowhere>
Reply-To: thunder7@xs4all.nl
In-Reply-To: <3B16A7E3.1BD600F3@colorfullife.com> <20010531222708.A8295@middle.of.nowhere> <3B16AD5D.DEDB8523@colorfullife.com> <20010601071414.A871@middle.of.nowhere> <3B172617.6183F39C@mandrakesoft.com>
Mime-Version: 1.0
Content-Type: text/plain; charset=us-ascii
Content-Disposition: inline
User-Agent: Mutt/1.3.17i
In-Reply-To: <3B172617.6183F39C@mandrakesoft.com>; from jgarzik@mandrakesoft.com on Fri, Jun 01, 2001 at 01:20:23AM -0400
Sender: linux-kernel-owner@vger.kernel.org
X-Mailing-List: linux-kernel@vger.kernel.org

On Fri, Jun 01, 2001 at 01:20:23AM -0400, Jeff Garzik wrote:
> Looking at the diff of "lspci -vvvxxx" between MPS1.1 and MPS1.4 (on the
> same system) may be quite useful...  maybe I missed the earlier "lspci
> -vvvxxx", but I only see one here...

Yep, I didn't want to keep sending long messages. Here goes:

diff pci_11 pci_14:

-- 
4c4
< 	Status: Cap+ 66Mhz- UDF- FastB2B- ParErr- DEVSEL=medium >TAbort- <TAbort- <MAbort+ >SERR- <PERR+
---
> 	Status: Cap+ 66Mhz- UDF- FastB2B- ParErr- DEVSEL=medium >TAbort- <TAbort- <MAbort+ >SERR- <PERR-

I see, this isn't going to work.

I'll insert the complete dump from mps 1.1 here, followed by the same
from 1.4:


00:00.0 Host bridge: VIA Technologies, Inc. VT82C693A/694x [Apollo PRO133x] (rev c4)
	Subsystem: ABIT Computer Corp.: Unknown device a204
	Control: I/O- Mem+ BusMaster+ SpecCycle- MemWINV- VGASnoop- ParErr- Stepping- SERR- FastB2B-
	Status: Cap+ 66Mhz- UDF- FastB2B- ParErr- DEVSEL=medium >TAbort- <TAbort- <MAbort+ >SERR- <PERR+
	Latency: 8
	Region 0: Memory at d0000000 (32-bit, prefetchable) [size=64M]
	Capabilities: [a0] AGP version 2.0
		Status: RQ=31 SBA+ 64bit- FW- Rate=x1,x2
		Command: RQ=0 SBA- AGP- 64bit- FW- Rate=<none>
	Capabilities: [c0] Power Management version 2
		Flags: PMEClk- DSI- D1- D2- AuxCurrent=0mA PME(D0-,D1-,D2-,D3hot-,D3cold-)
		Status: D0 PME-Enable- DSel=0 DScale=0 PME-
00: 06 11 91 06 06 00 10 a2 c4 00 00 06 00 08 00 00
10: 08 00 00 d0 00 00 00 00 00 00 00 00 00 00 00 00
20: 00 00 00 00 00 00 00 00 00 00 00 00 7b 14 04 a2
30: 00 00 00 00 a0 00 00 00 00 00 00 00 00 00 00 00

00:01.0 PCI bridge: VIA Technologies, Inc. VT82C598/694x [Apollo MVP3/Pro133x AGP] (prog-if 00 [Normal decode])
	Control: I/O+ Mem+ BusMaster+ SpecCycle- MemWINV- VGASnoop- ParErr- Stepping- SERR- FastB2B-
	Status: Cap+ 66Mhz+ UDF- FastB2B- ParErr- DEVSEL=medium >TAbort- <TAbort- <MAbort+ >SERR- <PERR-
	Latency: 0
	Bus: primary=00, secondary=01, subordinate=01, sec-latency=0
	I/O behind bridge: 0000f000-00000fff
	Memory behind bridge: d6000000-d8ffffff
	Prefetchable memory behind bridge: d4000000-d5ffffff
	BridgeCtl: Parity- SERR- NoISA+ VGA+ MAbort- >Reset- FastB2B-
	Capabilities: [80] Power Management version 2
		Flags: PMEClk- DSI- D1+ D2- AuxCurrent=0mA PME(D0-,D1-,D2-,D3hot-,D3cold-)
		Status: D0 PME-Enable- DSel=0 DScale=0 PME-
00: 06 11 98 85 07 00 30 22 00 00 04 06 00 00 01 00
10: 00 00 00 00 00 00 00 00 00 01 01 00 f0 00 00 00
20: 00 d6 f0 d8 00 d4 f0 d5 00 00 00 00 00 00 00 00
30: 00 00 00 00 80 00 00 00 00 00 00 00 00 00 0c 00

00:07.0 ISA bridge: VIA Technologies, Inc. VT82C686 [Apollo Super South] (rev 40)
	Subsystem: ABIT Computer Corp.: Unknown device 0000
	Control: I/O+ Mem+ BusMaster+ SpecCycle- MemWINV- VGASnoop- ParErr- Stepping+ SERR- FastB2B-
	Status: Cap+ 66Mhz- UDF- FastB2B- ParErr- DEVSEL=medium >TAbort- <TAbort- <MAbort- >SERR- <PERR-
	Latency: 0
	Capabilities: [c0] Power Management version 2
		Flags: PMEClk- DSI- D1- D2- AuxCurrent=0mA PME(D0-,D1-,D2-,D3hot-,D3cold-)
		Status: D0 PME-Enable- DSel=0 DScale=0 PME-
00: 06 11 86 06 87 00 10 02 40 00 01 06 00 00 80 00
10: 00 00 00 00 00 00 00 00 00 00 00 00 00 00 00 00
20: 00 00 00 00 00 00 00 00 00 00 00 00 7b 14 00 00
30: 00 00 00 00 c0 00 00 00 00 00 00 00 00 00 00 00

00:07.1 IDE interface: VIA Technologies, Inc. Bus Master IDE (rev 06) (prog-if 8a [Master SecP PriP])
	Subsystem: VIA Technologies, Inc. Bus Master IDE
	Control: I/O+ Mem+ BusMaster+ SpecCycle- MemWINV- VGASnoop- ParErr- Stepping- SERR- FastB2B-
	Status: Cap+ 66Mhz- UDF- FastB2B+ ParErr- DEVSEL=medium >TAbort- <TAbort- <MAbort- >SERR- <PERR-
	Latency: 32
	Region 4: I/O ports at a800 [size=16]
	Capabilities: [c0] Power Management version 2
		Flags: PMEClk- DSI- D1- D2- AuxCurrent=0mA PME(D0-,D1-,D2-,D3hot-,D3cold-)
		Status: D0 PME-Enable- DSel=0 DScale=0 PME-
00: 06 11 71 05 07 00 90 02 06 8a 01 01 00 20 00 00
10: 00 00 00 00 00 00 00 00 00 00 00 00 00 00 00 00
20: 01 a8 00 00 00 00 00 00 00 00 00 00 06 11 71 05
30: 00 00 00 00 c0 00 00 00 00 00 00 00 ff 00 00 00

00:07.2 USB Controller: VIA Technologies, Inc. UHCI USB (rev 16) (prog-if 00 [UHCI])
	Subsystem: Unknown device 0925:1234
	Control: I/O+ Mem+ BusMaster+ SpecCycle- MemWINV- VGASnoop- ParErr- Stepping- SERR- FastB2B-
	Status: Cap+ 66Mhz- UDF- FastB2B- ParErr- DEVSEL=medium >TAbort- <TAbort- <MAbort- >SERR- <PERR-
	Latency: 32, cache line size 08
	Interrupt: pin D routed to IRQ 5
	Region 4: I/O ports at a000 [size=32]
	Capabilities: [80] Power Management version 2
		Flags: PMEClk- DSI- D1- D2- AuxCurrent=0mA PME(D0-,D1-,D2-,D3hot-,D3cold-)
		Status: D0 PME-Enable- DSel=0 DScale=0 PME-
00: 06 11 38 30 07 00 10 02 16 00 03 0c 08 20 00 00
10: 00 00 00 00 00 00 00 00 00 00 00 00 00 00 00 00
20: 01 a0 00 00 00 00 00 00 00 00 00 00 25 09 34 12
30: 00 00 00 00 80 00 00 00 00 00 00 00 05 04 00 00

00:07.3 USB Controller: VIA Technologies, Inc. UHCI USB (rev 16) (prog-if 00 [UHCI])
	Subsystem: Unknown device 0925:1234
	Control: I/O+ Mem+ BusMaster+ SpecCycle- MemWINV- VGASnoop- ParErr- Stepping- SERR- FastB2B-
	Status: Cap+ 66Mhz- UDF- FastB2B- ParErr- DEVSEL=medium >TAbort- <TAbort- <MAbort- >SERR- <PERR-
	Latency: 32, cache line size 08
	Interrupt: pin D routed to IRQ 5
	Region 4: I/O ports at a400 [size=32]
	Capabilities: [80] Power Management version 2
		Flags: PMEClk- DSI- D1- D2- AuxCurrent=0mA PME(D0-,D1-,D2-,D3hot-,D3cold-)
		Status: D0 PME-Enable- DSel=0 DScale=0 PME-
00: 06 11 38 30 07 00 10 02 16 00 03 0c 08 20 00 00
10: 00 00 00 00 00 00 00 00 00 00 00 00 00 00 00 00
20: 01 a4 00 00 00 00 00 00 00 00 00 00 25 09 34 12
30: 00 00 00 00 80 00 00 00 00 00 00 00 05 04 00 00

00:07.4 Bridge: VIA Technologies, Inc. VT82C686 [Apollo Super ACPI] (rev 40)
	Control: I/O- Mem- BusMaster- SpecCycle- MemWINV- VGASnoop- ParErr- Stepping- SERR- FastB2B-
	Status: Cap+ 66Mhz- UDF- FastB2B+ ParErr- DEVSEL=medium >TAbort- <TAbort- <MAbort- >SERR- <PERR-
	Interrupt: pin ? routed to IRQ 3
	Capabilities: [68] Power Management version 2
		Flags: PMEClk- DSI- D1- D2- AuxCurrent=0mA PME(D0-,D1-,D2-,D3hot-,D3cold-)
		Status: D0 PME-Enable- DSel=0 DScale=0 PME-
00: 06 11 57 30 00 00 90 02 40 00 80 06 00 00 00 00
10: 00 00 00 00 00 00 00 00 00 00 00 00 00 00 00 00
20: 00 00 00 00 00 00 00 00 00 00 00 00 00 00 00 00
30: 00 00 00 00 68 00 00 00 00 00 00 00 00 00 00 00

00:09.0 PCI bridge: Digital Equipment Corporation DECchip 21152 (rev 02) (prog-if 00 [Normal decode])
	Control: I/O+ Mem+ BusMaster+ SpecCycle- MemWINV- VGASnoop- ParErr- Stepping- SERR+ FastB2B-
	Status: Cap- 66Mhz- UDF- FastB2B+ ParErr- DEVSEL=medium >TAbort- <TAbort- <MAbort- >SERR- <PERR-
	Latency: 32, cache line size 08
	Bus: primary=00, secondary=02, subordinate=02, sec-latency=32
	I/O behind bridge: 00009000-00009fff
	Memory behind bridge: d9000000-daffffff
	Prefetchable memory behind bridge: 00000000fff00000-0000000000000000
	BridgeCtl: Parity- SERR+ NoISA+ VGA- MAbort- >Reset- FastB2B-
00: 11 10 24 00 07 01 80 02 02 00 04 06 08 20 01 00
10: 00 00 00 00 00 00 00 00 00 02 02 20 91 91 80 22
20: 00 d9 f0 da f1 ff 01 00 00 00 00 00 00 00 00 00
30: 00 00 00 00 00 00 00 00 00 00 00 00 00 00 06 00

00:0a.0 SCSI storage controller: Symbios Logic Inc. (formerly NCR) 53c860 (rev 13)
	Subsystem: Symbios Logic Inc. (formerly NCR): Unknown device 1000
	Control: I/O+ Mem+ BusMaster+ SpecCycle- MemWINV- VGASnoop- ParErr+ Stepping- SERR- FastB2B-
	Status: Cap+ 66Mhz- UDF- FastB2B- ParErr- DEVSEL=medium >TAbort- <TAbort- <MAbort- >SERR- <PERR-
	Latency: 32 (2000ns min, 16000ns max), cache line size 08
	Interrupt: pin A routed to IRQ 11
	Region 0: I/O ports at ac00 [size=256]
	Region 1: Memory at dc000000 (32-bit, non-prefetchable) [size=256]
	Capabilities: [40] Power Management version 1
		Flags: PMEClk- DSI- D1- D2- AuxCurrent=0mA PME(D0-,D1-,D2-,D3hot-,D3cold-)
		Status: D0 PME-Enable- DSel=0 DScale=0 PME-
00: 00 10 06 00 47 00 10 02 13 00 00 01 08 20 00 00
10: 01 ac 00 00 00 00 00 dc 00 00 00 00 00 00 00 00
20: 00 00 00 00 00 00 00 00 00 00 00 00 00 10 00 10
30: 00 00 00 00 40 00 00 00 00 00 00 00 0b 01 08 40

00:0b.0 Multimedia audio controller: Creative Labs SB Live! EMU10000 (rev 07)
	Subsystem: Creative Labs: Unknown device 8061
	Control: I/O+ Mem- BusMaster+ SpecCycle- MemWINV- VGASnoop- ParErr- Stepping- SERR- FastB2B-
	Status: Cap+ 66Mhz- UDF- FastB2B+ ParErr- DEVSEL=medium >TAbort- <TAbort- <MAbort- >SERR- <PERR-
	Latency: 32 (500ns min, 5000ns max)
	Interrupt: pin A routed to IRQ 11
	Region 0: I/O ports at b000 [size=32]
	Capabilities: [dc] Power Management version 1
		Flags: PMEClk- DSI- D1+ D2+ AuxCurrent=0mA PME(D0-,D1-,D2-,D3hot-,D3cold-)
		Status: D0 PME-Enable- DSel=0 DScale=0 PME-
00: 02 11 02 00 05 00 90 02 07 00 01 04 00 20 80 00
10: 01 b0 00 00 00 00 00 00 00 00 00 00 00 00 00 00
20: 00 00 00 00 00 00 00 00 00 00 00 00 02 11 61 80
30: 00 00 00 00 dc 00 00 00 00 00 00 00 0b 01 02 14

00:0b.1 Input device controller: Creative Labs SB Live! (rev 07)
	Subsystem: Creative Labs Gameport Joystick
	Control: I/O+ Mem- BusMaster+ SpecCycle- MemWINV- VGASnoop- ParErr- Stepping- SERR- FastB2B-
	Status: Cap+ 66Mhz- UDF- FastB2B+ ParErr- DEVSEL=medium >TAbort- <TAbort- <MAbort- >SERR- <PERR-
	Latency: 32
	Region 0: I/O ports at b400 [size=8]
	Capabilities: [dc] Power Management version 1
		Flags: PMEClk- DSI- D1+ D2+ AuxCurrent=0mA PME(D0-,D1-,D2-,D3hot-,D3cold-)
		Status: D0 PME-Enable- DSel=0 DScale=0 PME-
00: 02 11 02 70 05 00 90 02 07 00 80 09 00 20 80 00
10: 01 b4 00 00 00 00 00 00 00 00 00 00 00 00 00 00
20: 00 00 00 00 00 00 00 00 00 00 00 00 02 11 20 00
30: 00 00 00 00 dc 00 00 00 00 00 00 00 00 00 00 00

00:0e.0 Unknown mass storage controller: Triones Technologies, Inc. HPT366 (rev 03)
	Subsystem: Triones Technologies, Inc.: Unknown device 0001
	Control: I/O+ Mem- BusMaster+ SpecCycle- MemWINV- VGASnoop- ParErr- Stepping- SERR- FastB2B-
	Status: Cap+ 66Mhz+ UDF- FastB2B- ParErr- DEVSEL=medium >TAbort- <TAbort- <MAbort- >SERR- <PERR-
	Latency: 120 (2000ns min, 2000ns max), cache line size 08
	Interrupt: pin A routed to IRQ 10
	Region 0: I/O ports at b800 [size=8]
	Region 1: I/O ports at bc00 [size=4]
	Region 2: I/O ports at c000 [size=8]
	Region 3: I/O ports at c400 [size=4]
	Region 4: I/O ports at c800 [size=256]
	Expansion ROM at <unassigned> [disabled] [size=128K]
	Capabilities: [60] Power Management version 2
		Flags: PMEClk- DSI+ D1- D2- AuxCurrent=0mA PME(D0-,D1-,D2-,D3hot-,D3cold-)
		Status: D0 PME-Enable- DSel=0 DScale=0 PME-
00: 03 11 04 00 05 00 30 02 03 00 80 01 08 78 00 00
10: 01 b8 00 00 01 bc 00 00 01 c0 00 00 01 c4 00 00
20: 01 c8 00 00 00 00 00 00 00 00 00 00 03 11 01 00
30: 00 00 00 00 60 00 00 00 00 00 00 00 0a 01 08 08

01:00.0 VGA compatible controller: Matrox Graphics, Inc. MGA G400 AGP (rev 03) (prog-if 00 [VGA])
	Subsystem: Matrox Graphics, Inc. Millennium G400 32Mb SGRAM
	Control: I/O+ Mem+ BusMaster+ SpecCycle- MemWINV- VGASnoop- ParErr- Stepping- SERR- FastB2B-
	Status: Cap+ 66Mhz- UDF- FastB2B+ ParErr- DEVSEL=medium >TAbort- <TAbort- <MAbort- >SERR- <PERR-
	Latency: 32 (4000ns min, 8000ns max), cache line size 08
	Interrupt: pin A routed to IRQ 15
	Region 0: Memory at d4000000 (32-bit, prefetchable) [size=32M]
	Region 1: Memory at d6000000 (32-bit, non-prefetchable) [size=16K]
	Region 2: Memory at d7000000 (32-bit, non-prefetchable) [size=8M]
	Expansion ROM at <unassigned> [disabled] [size=64K]
	Capabilities: [dc] Power Management version 2
		Flags: PMEClk- DSI+ D1- D2- AuxCurrent=0mA PME(D0-,D1-,D2-,D3hot-,D3cold-)
		Status: D0 PME-Enable- DSel=0 DScale=0 PME-
	Capabilities: [f0] AGP version 2.0
		Status: RQ=31 SBA+ 64bit- FW- Rate=x1,x2
		Command: RQ=31 SBA+ AGP+ 64bit- FW- Rate=x1
00: 2b 10 25 05 07 00 90 02 03 00 00 03 08 20 00 00
10: 08 00 00 d4 00 00 00 d6 00 00 00 d7 00 00 00 00
20: 00 00 00 00 00 00 00 00 00 00 00 00 2b 10 f8 19
30: 00 00 00 00 dc 00 00 00 00 00 00 00 0f 01 10 20

02:00.0 SCSI storage controller: Symbios Logic Inc. (formerly NCR) 53c875 (rev 04)
	Control: I/O+ Mem+ BusMaster+ SpecCycle- MemWINV- VGASnoop- ParErr+ Stepping- SERR- FastB2B-
	Status: Cap- 66Mhz- UDF- FastB2B- ParErr- DEVSEL=medium >TAbort- <TAbort- <MAbort- >SERR- <PERR-
	Latency: 72 (4250ns min, 16000ns max), cache line size 08
	Interrupt: pin A routed to IRQ 15
	Region 0: I/O ports at 9000 [size=256]
	Region 1: Memory at da001000 (32-bit, non-prefetchable) [size=256]
	Region 2: Memory at da000000 (32-bit, non-prefetchable) [size=4K]
	Expansion ROM at <unassigned> [disabled] [size=64K]
00: 00 10 0f 00 47 00 00 02 04 00 00 01 08 48 00 00
10: 01 90 00 00 00 10 00 da 00 00 00 da 00 00 00 00
20: 00 00 00 00 00 00 00 00 00 00 00 00 00 00 00 00
30: 00 00 00 00 00 00 00 00 00 00 00 00 0f 01 11 40

02:01.0 SCSI storage controller: Symbios Logic Inc. (formerly NCR) 53c875 (rev 04)
	Control: I/O+ Mem+ BusMaster+ SpecCycle- MemWINV- VGASnoop- ParErr+ Stepping- SERR- FastB2B-
	Status: Cap- 66Mhz- UDF- FastB2B- ParErr- DEVSEL=medium >TAbort- <TAbort- <MAbort- >SERR- <PERR-
	Latency: 72 (4250ns min, 16000ns max), cache line size 08
	Interrupt: pin A routed to IRQ 11
	Region 0: I/O ports at 9400 [size=256]
	Region 1: Memory at da002000 (32-bit, non-prefetchable) [size=256]
	Region 2: Memory at da003000 (32-bit, non-prefetchable) [size=4K]
	Expansion ROM at <unassigned> [disabled] [size=64K]
00: 00 10 0f 00 47 00 00 02 04 00 00 01 08 48 00 00
10: 01 94 00 00 00 20 00 da 00 30 00 da 00 00 00 00
20: 00 00 00 00 00 00 00 00 00 00 00 00 00 00 00 00
30: 00 00 00 00 00 00 00 00 00 00 00 00 0b 01 11 40

02:02.0 Ethernet controller: Digital Equipment Corporation DECchip 21140 [FasterNet] (rev 22)
	Subsystem: Digital Equipment Corporation: Unknown device 500a
	Control: I/O+ Mem+ BusMaster+ SpecCycle- MemWINV- VGASnoop- ParErr- Stepping- SERR- FastB2B-
	Status: Cap- 66Mhz- UDF- FastB2B+ ParErr- DEVSEL=medium >TAbort- <TAbort- <MAbort- >SERR- <PERR-
	Latency: 96 (5000ns min, 10000ns max), cache line size 08
	Interrupt: pin A routed to IRQ 10
	Region 0: I/O ports at 9800 [size=128]
	Region 1: Memory at da004000 (32-bit, non-prefetchable) [size=128]
	Expansion ROM at <unassigned> [disabled] [size=256K]
00: 11 10 09 00 07 00 80 02 22 00 00 02 08 60 00 00
10: 01 98 00 00 00 40 00 da 00 00 00 00 00 00 00 00
20: 00 00 00 00 00 00 00 00 00 00 00 00 11 10 0a 50
30: 00 00 00 00 00 00 00 00 00 00 00 00 0a 01 14 28

from 1.4:

00:00.0 Host bridge: VIA Technologies, Inc. VT82C693A/694x [Apollo PRO133x] (rev c4)
	Subsystem: ABIT Computer Corp.: Unknown device a204
	Control: I/O- Mem+ BusMaster+ SpecCycle- MemWINV- VGASnoop- ParErr- Stepping- SERR- FastB2B-
	Status: Cap+ 66Mhz- UDF- FastB2B- ParErr- DEVSEL=medium >TAbort- <TAbort- <MAbort+ >SERR- <PERR-
	Latency: 8
	Region 0: Memory at d0000000 (32-bit, prefetchable) [size=64M]
	Capabilities: [a0] AGP version 2.0
		Status: RQ=31 SBA+ 64bit- FW- Rate=x1,x2
		Command: RQ=0 SBA- AGP- 64bit- FW- Rate=<none>
	Capabilities: [c0] Power Management version 2
		Flags: PMEClk- DSI- D1- D2- AuxCurrent=0mA PME(D0-,D1-,D2-,D3hot-,D3cold-)
		Status: D0 PME-Enable- DSel=0 DScale=0 PME-
00: 06 11 91 06 06 00 10 22 c4 00 00 06 00 08 00 00
10: 08 00 00 d0 00 00 00 00 00 00 00 00 00 00 00 00
20: 00 00 00 00 00 00 00 00 00 00 00 00 7b 14 04 a2
30: 00 00 00 00 a0 00 00 00 00 00 00 00 00 00 00 00

00:01.0 PCI bridge: VIA Technologies, Inc. VT82C598/694x [Apollo MVP3/Pro133x AGP] (prog-if 00 [Normal decode])
	Control: I/O+ Mem+ BusMaster+ SpecCycle- MemWINV- VGASnoop- ParErr- Stepping- SERR- FastB2B-
	Status: Cap+ 66Mhz+ UDF- FastB2B- ParErr- DEVSEL=medium >TAbort- <TAbort- <MAbort+ >SERR- <PERR-
	Latency: 0
	Bus: primary=00, secondary=01, subordinate=01, sec-latency=0
	I/O behind bridge: 0000f000-00000fff
	Memory behind bridge: d6000000-d8ffffff
	Prefetchable memory behind bridge: d4000000-d5ffffff
	BridgeCtl: Parity- SERR- NoISA+ VGA+ MAbort- >Reset- FastB2B-
	Capabilities: [80] Power Management version 2
		Flags: PMEClk- DSI- D1+ D2- AuxCurrent=0mA PME(D0-,D1-,D2-,D3hot-,D3cold-)
		Status: D0 PME-Enable- DSel=0 DScale=0 PME-
00: 06 11 98 85 07 00 30 22 00 00 04 06 00 00 01 00
10: 00 00 00 00 00 00 00 00 00 01 01 00 f0 00 00 00
20: 00 d6 f0 d8 00 d4 f0 d5 00 00 00 00 00 00 00 00
30: 00 00 00 00 80 00 00 00 00 00 00 00 00 00 0c 00

00:07.0 ISA bridge: VIA Technologies, Inc. VT82C686 [Apollo Super South] (rev 40)
	Subsystem: ABIT Computer Corp.: Unknown device 0000
	Control: I/O+ Mem+ BusMaster+ SpecCycle- MemWINV- VGASnoop- ParErr- Stepping+ SERR- FastB2B-
	Status: Cap+ 66Mhz- UDF- FastB2B- ParErr- DEVSEL=medium >TAbort- <TAbort- <MAbort- >SERR- <PERR-
	Latency: 0
	Capabilities: [c0] Power Management version 2
		Flags: PMEClk- DSI- D1- D2- AuxCurrent=0mA PME(D0-,D1-,D2-,D3hot-,D3cold-)
		Status: D0 PME-Enable- DSel=0 DScale=0 PME-
00: 06 11 86 06 87 00 10 02 40 00 01 06 00 00 80 00
10: 00 00 00 00 00 00 00 00 00 00 00 00 00 00 00 00
20: 00 00 00 00 00 00 00 00 00 00 00 00 7b 14 00 00
30: 00 00 00 00 c0 00 00 00 00 00 00 00 00 00 00 00

00:07.1 IDE interface: VIA Technologies, Inc. Bus Master IDE (rev 06) (prog-if 8a [Master SecP PriP])
	Subsystem: VIA Technologies, Inc. Bus Master IDE
	Control: I/O+ Mem+ BusMaster+ SpecCycle- MemWINV- VGASnoop- ParErr- Stepping- SERR- FastB2B-
	Status: Cap+ 66Mhz- UDF- FastB2B+ ParErr- DEVSEL=medium >TAbort- <TAbort- <MAbort- >SERR- <PERR-
	Latency: 32
	Region 4: I/O ports at a800 [size=16]
	Capabilities: [c0] Power Management version 2
		Flags: PMEClk- DSI- D1- D2- AuxCurrent=0mA PME(D0-,D1-,D2-,D3hot-,D3cold-)
		Status: D0 PME-Enable- DSel=0 DScale=0 PME-
00: 06 11 71 05 07 00 90 02 06 8a 01 01 00 20 00 00
10: 00 00 00 00 00 00 00 00 00 00 00 00 00 00 00 00
20: 01 a8 00 00 00 00 00 00 00 00 00 00 06 11 71 05
30: 00 00 00 00 c0 00 00 00 00 00 00 00 ff 00 00 00

00:07.2 USB Controller: VIA Technologies, Inc. UHCI USB (rev 16) (prog-if 00 [UHCI])
	Subsystem: Unknown device 0925:1234
	Control: I/O+ Mem+ BusMaster+ SpecCycle- MemWINV- VGASnoop- ParErr- Stepping- SERR- FastB2B-
	Status: Cap+ 66Mhz- UDF- FastB2B- ParErr- DEVSEL=medium >TAbort- <TAbort- <MAbort- >SERR- <PERR-
	Latency: 32, cache line size 08
	Interrupt: pin D routed to IRQ 19
	Region 4: I/O ports at a000 [size=32]
	Capabilities: [80] Power Management version 2
		Flags: PMEClk- DSI- D1- D2- AuxCurrent=0mA PME(D0-,D1-,D2-,D3hot-,D3cold-)
		Status: D0 PME-Enable- DSel=0 DScale=0 PME-
00: 06 11 38 30 07 00 10 02 16 00 03 0c 08 20 00 00
10: 00 00 00 00 00 00 00 00 00 00 00 00 00 00 00 00
20: 01 a0 00 00 00 00 00 00 00 00 00 00 25 09 34 12
30: 00 00 00 00 80 00 00 00 00 00 00 00 05 04 00 00

00:07.3 USB Controller: VIA Technologies, Inc. UHCI USB (rev 16) (prog-if 00 [UHCI])
	Subsystem: Unknown device 0925:1234
	Control: I/O+ Mem+ BusMaster+ SpecCycle- MemWINV- VGASnoop- ParErr- Stepping- SERR- FastB2B-
	Status: Cap+ 66Mhz- UDF- FastB2B- ParErr- DEVSEL=medium >TAbort- <TAbort- <MAbort- >SERR- <PERR-
	Latency: 32, cache line size 08
	Interrupt: pin D routed to IRQ 19
	Region 4: I/O ports at a400 [size=32]
	Capabilities: [80] Power Management version 2
		Flags: PMEClk- DSI- D1- D2- AuxCurrent=0mA PME(D0-,D1-,D2-,D3hot-,D3cold-)
		Status: D0 PME-Enable- DSel=0 DScale=0 PME-
00: 06 11 38 30 07 00 10 02 16 00 03 0c 08 20 00 00
10: 00 00 00 00 00 00 00 00 00 00 00 00 00 00 00 00
20: 01 a4 00 00 00 00 00 00 00 00 00 00 25 09 34 12
30: 00 00 00 00 80 00 00 00 00 00 00 00 05 04 00 00

00:07.4 Bridge: VIA Technologies, Inc. VT82C686 [Apollo Super ACPI] (rev 40)
	Control: I/O- Mem- BusMaster- SpecCycle- MemWINV- VGASnoop- ParErr- Stepping- SERR- FastB2B-
	Status: Cap+ 66Mhz- UDF- FastB2B+ ParErr- DEVSEL=medium >TAbort- <TAbort- <MAbort- >SERR- <PERR-
	Interrupt: pin ? routed to IRQ 3
	Capabilities: [68] Power Management version 2
		Flags: PMEClk- DSI- D1- D2- AuxCurrent=0mA PME(D0-,D1-,D2-,D3hot-,D3cold-)
		Status: D0 PME-Enable- DSel=0 DScale=0 PME-
00: 06 11 57 30 00 00 90 02 40 00 80 06 00 00 00 00
10: 00 00 00 00 00 00 00 00 00 00 00 00 00 00 00 00
20: 00 00 00 00 00 00 00 00 00 00 00 00 00 00 00 00
30: 00 00 00 00 68 00 00 00 00 00 00 00 00 00 00 00

00:09.0 PCI bridge: Digital Equipment Corporation DECchip 21152 (rev 02) (prog-if 00 [Normal decode])
	Control: I/O+ Mem+ BusMaster+ SpecCycle- MemWINV- VGASnoop- ParErr- Stepping- SERR+ FastB2B-
	Status: Cap- 66Mhz- UDF- FastB2B+ ParErr- DEVSEL=medium >TAbort- <TAbort- <MAbort- >SERR- <PERR-
	Latency: 32, cache line size 08
	Bus: primary=00, secondary=02, subordinate=02, sec-latency=32
	I/O behind bridge: 00009000-00009fff
	Memory behind bridge: d9000000-daffffff
	Prefetchable memory behind bridge: 00000000fff00000-0000000000000000
	BridgeCtl: Parity- SERR+ NoISA+ VGA- MAbort- >Reset- FastB2B-
00: 11 10 24 00 07 01 80 02 02 00 04 06 08 20 01 00
10: 00 00 00 00 00 00 00 00 00 02 02 20 91 91 80 22
20: 00 d9 f0 da f1 ff 01 00 00 00 00 00 00 00 00 00
30: 00 00 00 00 00 00 00 00 00 00 00 00 00 00 06 00

00:0a.0 SCSI storage controller: Symbios Logic Inc. (formerly NCR) 53c860 (rev 13)
	Subsystem: Symbios Logic Inc. (formerly NCR): Unknown device 1000
	Control: I/O+ Mem+ BusMaster+ SpecCycle- MemWINV- VGASnoop- ParErr+ Stepping- SERR- FastB2B-
	Status: Cap+ 66Mhz- UDF- FastB2B- ParErr- DEVSEL=medium >TAbort- <TAbort- <MAbort- >SERR- <PERR-
	Latency: 32 (2000ns min, 16000ns max), cache line size 08
	Interrupt: pin A routed to IRQ 17
	Region 0: I/O ports at ac00 [size=256]
	Region 1: Memory at dc000000 (32-bit, non-prefetchable) [size=256]
	Capabilities: [40] Power Management version 1
		Flags: PMEClk- DSI- D1- D2- AuxCurrent=0mA PME(D0-,D1-,D2-,D3hot-,D3cold-)
		Status: D0 PME-Enable- DSel=0 DScale=0 PME-
00: 00 10 06 00 47 00 10 02 13 00 00 01 08 20 00 00
10: 01 ac 00 00 00 00 00 dc 00 00 00 00 00 00 00 00
20: 00 00 00 00 00 00 00 00 00 00 00 00 00 10 00 10
30: 00 00 00 00 40 00 00 00 00 00 00 00 0b 01 08 40

00:0b.0 Multimedia audio controller: Creative Labs SB Live! EMU10000 (rev 07)
	Subsystem: Creative Labs: Unknown device 8061
	Control: I/O+ Mem- BusMaster+ SpecCycle- MemWINV- VGASnoop- ParErr- Stepping- SERR- FastB2B-
	Status: Cap+ 66Mhz- UDF- FastB2B+ ParErr- DEVSEL=medium >TAbort- <TAbort- <MAbort- >SERR- <PERR-
	Latency: 32 (500ns min, 5000ns max)
	Interrupt: pin A routed to IRQ 17
	Region 0: I/O ports at b000 [size=32]
	Capabilities: [dc] Power Management version 1
		Flags: PMEClk- DSI- D1+ D2+ AuxCurrent=0mA PME(D0-,D1-,D2-,D3hot-,D3cold-)
		Status: D0 PME-Enable- DSel=0 DScale=0 PME-
00: 02 11 02 00 05 00 90 02 07 00 01 04 00 20 80 00
10: 01 b0 00 00 00 00 00 00 00 00 00 00 00 00 00 00
20: 00 00 00 00 00 00 00 00 00 00 00 00 02 11 61 80
30: 00 00 00 00 dc 00 00 00 00 00 00 00 0b 01 02 14

00:0b.1 Input device controller: Creative Labs SB Live! (rev 07)
	Subsystem: Creative Labs Gameport Joystick
	Control: I/O+ Mem- BusMaster+ SpecCycle- MemWINV- VGASnoop- ParErr- Stepping- SERR- FastB2B-
	Status: Cap+ 66Mhz- UDF- FastB2B+ ParErr- DEVSEL=medium >TAbort- <TAbort- <MAbort- >SERR- <PERR-
	Latency: 32
	Region 0: I/O ports at b400 [size=8]
	Capabilities: [dc] Power Management version 1
		Flags: PMEClk- DSI- D1+ D2+ AuxCurrent=0mA PME(D0-,D1-,D2-,D3hot-,D3cold-)
		Status: D0 PME-Enable- DSel=0 DScale=0 PME-
00: 02 11 02 70 05 00 90 02 07 00 80 09 00 20 80 00
10: 01 b4 00 00 00 00 00 00 00 00 00 00 00 00 00 00
20: 00 00 00 00 00 00 00 00 00 00 00 00 02 11 20 00
30: 00 00 00 00 dc 00 00 00 00 00 00 00 00 00 00 00

00:0e.0 Unknown mass storage controller: Triones Technologies, Inc. HPT366 (rev 03)
	Subsystem: Triones Technologies, Inc.: Unknown device 0001
	Control: I/O+ Mem- BusMaster+ SpecCycle- MemWINV- VGASnoop- ParErr- Stepping- SERR- FastB2B-
	Status: Cap+ 66Mhz+ UDF- FastB2B- ParErr- DEVSEL=medium >TAbort- <TAbort- <MAbort- >SERR- <PERR-
	Latency: 120 (2000ns min, 2000ns max), cache line size 08
	Interrupt: pin A routed to IRQ 18
	Region 0: I/O ports at b800 [size=8]
	Region 1: I/O ports at bc00 [size=4]
	Region 2: I/O ports at c000 [size=8]
	Region 3: I/O ports at c400 [size=4]
	Region 4: I/O ports at c800 [size=256]
	Expansion ROM at <unassigned> [disabled] [size=128K]
	Capabilities: [60] Power Management version 2
		Flags: PMEClk- DSI+ D1- D2- AuxCurrent=0mA PME(D0-,D1-,D2-,D3hot-,D3cold-)
		Status: D0 PME-Enable- DSel=0 DScale=0 PME-
00: 03 11 04 00 05 00 30 02 03 00 80 01 08 78 00 00
10: 01 b8 00 00 01 bc 00 00 01 c0 00 00 01 c4 00 00
20: 01 c8 00 00 00 00 00 00 00 00 00 00 03 11 01 00
30: 00 00 00 00 60 00 00 00 00 00 00 00 0a 01 08 08

01:00.0 VGA compatible controller: Matrox Graphics, Inc. MGA G400 AGP (rev 03) (prog-if 00 [VGA])
	Subsystem: Matrox Graphics, Inc. Millennium G400 32Mb SGRAM
	Control: I/O+ Mem+ BusMaster+ SpecCycle- MemWINV- VGASnoop- ParErr- Stepping- SERR- FastB2B-
	Status: Cap+ 66Mhz- UDF- FastB2B+ ParErr- DEVSEL=medium >TAbort- <TAbort- <MAbort- >SERR- <PERR-
	Latency: 32 (4000ns min, 8000ns max), cache line size 08
	Interrupt: pin A routed to IRQ 16
	Region 0: Memory at d4000000 (32-bit, prefetchable) [size=32M]
	Region 1: Memory at d6000000 (32-bit, non-prefetchable) [size=16K]
	Region 2: Memory at d7000000 (32-bit, non-prefetchable) [size=8M]
	Expansion ROM at <unassigned> [disabled] [size=64K]
	Capabilities: [dc] Power Management version 2
		Flags: PMEClk- DSI+ D1- D2- AuxCurrent=0mA PME(D0-,D1-,D2-,D3hot-,D3cold-)
		Status: D0 PME-Enable- DSel=0 DScale=0 PME-
	Capabilities: [f0] AGP version 2.0
		Status: RQ=31 SBA+ 64bit- FW- Rate=x1,x2
		Command: RQ=31 SBA+ AGP+ 64bit- FW- Rate=x1
00: 2b 10 25 05 07 00 90 02 03 00 00 03 08 20 00 00
10: 08 00 00 d4 00 00 00 d6 00 00 00 d7 00 00 00 00
20: 00 00 00 00 00 00 00 00 00 00 00 00 2b 10 f8 19
30: 00 00 00 00 dc 00 00 00 00 00 00 00 0f 01 10 20

02:00.0 SCSI storage controller: Symbios Logic Inc. (formerly NCR) 53c875 (rev 04)
	Control: I/O+ Mem+ BusMaster+ SpecCycle- MemWINV- VGASnoop- ParErr+ Stepping- SERR- FastB2B-
	Status: Cap- 66Mhz- UDF- FastB2B- ParErr- DEVSEL=medium >TAbort- <TAbort- <MAbort- >SERR- <PERR-
	Latency: 72 (4250ns min, 16000ns max), cache line size 08
	Interrupt: pin A routed to IRQ 16
	Region 0: I/O ports at 9000 [size=256]
	Region 1: Memory at da001000 (32-bit, non-prefetchable) [size=256]
	Region 2: Memory at da000000 (32-bit, non-prefetchable) [size=4K]
	Expansion ROM at <unassigned> [disabled] [size=64K]
00: 00 10 0f 00 47 00 00 02 04 00 00 01 08 48 00 00
10: 01 90 00 00 00 10 00 da 00 00 00 da 00 00 00 00
20: 00 00 00 00 00 00 00 00 00 00 00 00 00 00 00 00
30: 00 00 00 00 00 00 00 00 00 00 00 00 0f 01 11 40

02:01.0 SCSI storage controller: Symbios Logic Inc. (formerly NCR) 53c875 (rev 04)
	Control: I/O+ Mem+ BusMaster+ SpecCycle- MemWINV- VGASnoop- ParErr+ Stepping- SERR- FastB2B-
	Status: Cap- 66Mhz- UDF- FastB2B- ParErr- DEVSEL=medium >TAbort- <TAbort- <MAbort- >SERR- <PERR-
	Latency: 72 (4250ns min, 16000ns max), cache line size 08
	Interrupt: pin A routed to IRQ 17
	Region 0: I/O ports at 9400 [size=256]
	Region 1: Memory at da002000 (32-bit, non-prefetchable) [size=256]
	Region 2: Memory at da003000 (32-bit, non-prefetchable) [size=4K]
	Expansion ROM at <unassigned> [disabled] [size=64K]
00: 00 10 0f 00 47 00 00 02 04 00 00 01 08 48 00 00
10: 01 94 00 00 00 20 00 da 00 30 00 da 00 00 00 00
20: 00 00 00 00 00 00 00 00 00 00 00 00 00 00 00 00
30: 00 00 00 00 00 00 00 00 00 00 00 00 0b 01 11 40

02:02.0 Ethernet controller: Digital Equipment Corporation DECchip 21140 [FasterNet] (rev 22)
	Subsystem: Digital Equipment Corporation: Unknown device 500a
	Control: I/O+ Mem+ BusMaster+ SpecCycle- MemWINV- VGASnoop- ParErr- Stepping- SERR- FastB2B-
	Status: Cap- 66Mhz- UDF- FastB2B+ ParErr- DEVSEL=medium >TAbort- <TAbort- <MAbort- >SERR- <PERR-
	Latency: 96 (5000ns min, 10000ns max), cache line size 08
	Interrupt: pin A routed to IRQ 18
	Region 0: I/O ports at 9800 [size=128]
	Region 1: Memory at da004000 (32-bit, non-prefetchable) [size=128]
	Expansion ROM at <unassigned> [disabled] [size=256K]
00: 11 10 09 00 07 00 80 02 22 00 00 02 08 60 00 00
10: 01 98 00 00 00 40 00 da 00 00 00 00 00 00 00 00
20: 00 00 00 00 00 00 00 00 00 00 00 00 11 10 0a 50
30: 00 00 00 00 00 00 00 00 00 00 00 00 0a 01 14 28

Good luck,
Jurriaan
-- 
BOFH excuse #175:

OS swapped to disk
GNU/Linux 2.4.5-ac5 SMP/ReiserFS 2x1402 bogomips load av: 0.00 0.00 0.00
