Return-Path: <linux-kernel-owner+willy=40w.ods.org@vger.kernel.org>
Received: (majordomo@vger.kernel.org) by vger.kernel.org via listexpand
	id S263793AbTK2Q0w (ORCPT <rfc822;willy@w.ods.org>);
	Sat, 29 Nov 2003 11:26:52 -0500
Received: (majordomo@vger.kernel.org) by vger.kernel.org id S263794AbTK2Q0w
	(ORCPT <rfc822;linux-kernel-outgoing>);
	Sat, 29 Nov 2003 11:26:52 -0500
Received: from fep04-mail.bloor.is.net.cable.rogers.com ([66.185.86.74]:2578
	"EHLO fep04-mail.bloor.is.net.cable.rogers.com") by vger.kernel.org
	with ESMTP id S263793AbTK2Q0I (ORCPT
	<rfc822;linux-kernel@vger.kernel.org>);
	Sat, 29 Nov 2003 11:26:08 -0500
Message-ID: <3FC88277.4090304@rogers.com>
Date: Sat, 29 Nov 2003 11:26:47 +0000
From: pZa1x <pZa1x@rogers.com>
User-Agent: Mozilla/5.0 (X11; U; Linux i686; en-US; rv:1.5) Gecko/20031013 Thunderbird/0.3
X-Accept-Language: en-us, en
MIME-Version: 1.0
To: Russell King <rmk+lkml@arm.linux.org.uk>
CC: linux-kernel@vger.kernel.org
Subject: Re: APM Suspend Problem
References: <3FC7F031.5060502@rogers.com> <3FC7F2E3.8080109@rogers.com> <20031129082200.A30476@flint.arm.linux.org.uk>
In-Reply-To: <20031129082200.A30476@flint.arm.linux.org.uk>
Content-Type: text/plain; charset=us-ascii; format=flowed
Content-Transfer-Encoding: 7bit
X-Authentication-Info: Submitted using SMTP AUTH PLAIN at fep04-mail.bloor.is.net.cable.rogers.com from [24.157.208.226] using ID <dw2price@rogers.com> at Sat, 29 Nov 2003 11:24:17 -0500
Sender: linux-kernel-owner@vger.kernel.org
X-Mailing-List: linux-kernel@vger.kernel.org

Russell King wrote:
> On Sat, Nov 29, 2003 at 01:14:11AM +0000, pZa1x wrote:
> 
>>A follow-up
>>
>>by shutting down PCMCIA and rmmod'ing all the related modules ie ide_cs, 
>>ds, yenta_socket, pcmcia_core the suspend works on AC again.
>>
>>So, I add them back one by one:
>>pcmcia_core -> still works
>>yenta_socket -> FAILS!
>>rmmod yenta_socket -> works again!
>>
>>Summary: suspend works on my Thinkpad T21
>>(a) with no apm module or apmd but with all PCMCIA (ie. hardware 
>>suspend- close lid etc);
>>(b) with apm & apmd and all PCMCIA but no AC power
>>(c) with apm & apmd but no yenta_socket and the rest but with AC power
>>
>>The problem is a combination of apm, yenta_socket and AC power.
> 
> 
> The output of:
> 
> lspci -vvxxxx
> 
> both with and without yenta_socket inserted would be a useful starting
> point.
> 

Find below:

(a) with yenta kernel 2.6
(b) without yenta kernel 2.6

And for comparison with 2.4.20 which works in any case

(c) with yenta kernel 2.4.20
(d) without yenta kernel 2.4.20


********************************************************************
WITH YENTA KERNEL 2.6
********************************************************************

00:00.0 Host bridge: Intel Corp. 440BX/ZX/DX - 82443BX/ZX/DX Host bridge 
(rev 03)
	Control: I/O- Mem+ BusMaster+ SpecCycle- MemWINV- VGASnoop- ParErr- 
Stepping- SERR+ FastB2B-
	Status: Cap+ 66Mhz- UDF- FastB2B- ParErr- DEVSEL=medium >TAbort- 
<TAbort- <MAbort+ >SERR- <PERR+
	Latency: 64
	Region 0: Memory at f8000000 (32-bit, prefetchable) [size=64M]
	Capabilities: [a0] AGP version 1.0
		Status: RQ=32 Iso- ArqSz=0 Cal=0 SBA+ ITACoh- GART64- HTrans- 64bit- 
FW- AGP3- Rate=x1,x2
		Command: RQ=1 ArqSz=0 Cal=0 SBA- AGP- GART64- 64bit- FW- Rate=<none>
00: 86 80 90 71 06 01 10 a2 03 00 00 06 00 40 00 00
10: 08 00 00 f8 00 00 00 00 00 00 00 00 00 00 00 00
20: 00 00 00 00 00 00 00 00 00 00 00 00 00 00 00 00
30: 00 00 00 00 a0 00 00 00 00 00 00 00 00 00 00 00
40: 00 00 00 00 00 00 00 00 00 00 00 00 00 00 00 00
50: 0c 82 00 ff 00 00 00 09 03 10 11 11 00 00 11 11
60: 08 10 10 18 20 20 20 20 00 00 00 00 00 aa 00 00
70: 20 1f 0a 38 45 01 03 01 27 1b 9c 00 10 00 00 00
80: 00 00 00 00 00 00 00 00 00 00 00 00 00 00 00 00
90: 00 00 00 00 04 61 00 00 00 05 00 00 00 00 00 00
a0: 02 00 10 00 03 02 00 1f 00 00 00 00 00 00 00 00
b0: 80 20 00 00 30 00 00 00 00 00 35 01 20 10 00 00
c0: 00 00 00 00 00 00 00 00 18 0c 83 cd 78 00 00 00
d0: 00 00 00 00 00 00 00 00 0c 00 00 00 00 00 00 00
e0: 4c ad ff bb 8a 3e 00 80 2c d3 f7 cf 9d 3e 00 00
f0: 40 01 00 00 00 f8 00 60 20 0f 00 00 00 00 00 00

00:01.0 PCI bridge: Intel Corp. 440BX/ZX/DX - 82443BX/ZX/DX AGP bridge 
(rev 03) (prog-if 00 [Normal decode])
	Control: I/O+ Mem+ BusMaster+ SpecCycle+ MemWINV+ VGASnoop- ParErr- 
Stepping- SERR- FastB2B-
	Status: Cap- 66Mhz+ UDF- FastB2B- ParErr- DEVSEL=medium >TAbort- 
<TAbort- <MAbort- >SERR- <PERR-
	Latency: 128
	Bus: primary=00, secondary=01, subordinate=01, sec-latency=64
	Memory behind bridge: f0000000-f7ffffff
	BridgeCtl: Parity- SERR- NoISA+ VGA+ MAbort- >Reset- FastB2B+
00: 86 80 91 71 1f 00 20 02 03 00 04 06 00 80 01 00
10: 00 00 00 00 00 00 00 00 00 01 01 40 f0 00 a0 22
20: 00 f0 f0 f7 f0 ff 00 00 00 00 00 00 00 00 00 00
30: 00 00 00 00 00 00 00 00 00 00 00 00 00 00 8c 00
40: 00 00 00 00 00 00 00 00 00 00 00 00 00 00 00 00
50: 00 00 00 00 00 00 00 00 00 00 00 00 00 00 00 00
60: 00 00 00 00 00 00 00 00 00 00 00 00 00 00 00 00
70: 00 00 00 00 00 00 00 00 00 00 00 00 00 00 00 00
80: 00 00 00 00 00 00 00 00 00 00 00 00 00 00 00 00
90: 00 00 00 00 00 00 00 00 00 00 00 00 00 00 00 00
a0: 00 00 00 00 00 00 00 00 00 00 00 00 00 00 00 00
b0: 00 00 00 00 00 00 00 00 00 00 00 00 00 00 00 00
c0: 00 00 00 00 00 00 00 00 00 00 00 00 00 00 00 00
d0: 00 00 00 00 00 00 00 00 00 00 00 00 00 00 00 00
e0: 00 00 00 00 00 00 00 00 00 00 00 00 00 00 00 00
f0: 00 00 00 00 00 00 00 00 00 00 00 00 00 00 00 00

00:02.0 CardBus bridge: Texas Instruments PCI1450 (rev 03)
	Subsystem: IBM: Unknown device 0130
	Control: I/O+ Mem+ BusMaster+ SpecCycle- MemWINV- VGASnoop- ParErr- 
Stepping- SERR- FastB2B-
	Status: Cap+ 66Mhz- UDF- FastB2B- ParErr- DEVSEL=medium >TAbort- 
<TAbort- <MAbort- >SERR- <PERR-
	Latency: 168, cache line size 08
	Interrupt: pin A routed to IRQ 11
	Region 0: Memory at 50000000 (32-bit, non-prefetchable) [size=4K]
	Bus: primary=00, secondary=02, subordinate=05, sec-latency=176
	Memory window 0: 10000000-103ff000 (prefetchable)
	Memory window 1: 10400000-107ff000
	I/O window 0: 00004000-000040ff
	I/O window 1: 00004400-000044ff
	BridgeCtl: Parity- SERR- ISA- VGA- MAbort- >Reset+ 16bInt+ PostWrite+
	16-bit legacy interface ports at 0001
00: 4c 10 1b ac 07 00 10 02 03 00 07 06 08 a8 82 00
10: 00 00 00 50 a0 00 00 02 00 02 05 b0 00 00 00 10
20: 00 f0 3f 10 00 00 40 10 00 f0 7f 10 00 40 00 00
30: fc 40 00 00 00 44 00 00 fc 44 00 00 0b 01 c0 05
40: 14 10 30 01 01 00 00 00 00 00 00 00 00 00 00 00
50: 00 00 00 00 00 00 00 00 00 00 00 00 00 00 00 00
60: 00 00 00 00 00 00 00 00 00 00 00 00 00 00 00 00
70: 00 00 00 00 00 00 00 00 00 00 00 00 00 00 00 00
80: 78 d0 44 08 80 00 00 00 80 80 01 80 00 10 00 00
90: c0 82 66 40 00 00 00 00 00 00 00 00 00 00 00 00
a0: 01 00 11 fe 00 00 c0 00 00 00 00 00 00 00 00 00
b0: 00 00 00 00 00 00 00 00 00 00 00 00 00 00 00 00
c0: 00 00 00 00 00 00 00 00 00 00 00 00 00 00 00 00
d0: 00 00 00 00 00 00 00 00 00 00 00 00 00 00 00 00
e0: 00 00 00 00 00 00 00 00 00 00 00 00 00 00 00 00
f0: 00 00 00 00 00 00 00 00 00 00 00 00 00 00 00 00

00:02.1 CardBus bridge: Texas Instruments PCI1450 (rev 03)
	Subsystem: IBM: Unknown device 0130
	Control: I/O+ Mem+ BusMaster+ SpecCycle- MemWINV- VGASnoop- ParErr- 
Stepping- SERR- FastB2B-
	Status: Cap+ 66Mhz- UDF- FastB2B- ParErr- DEVSEL=medium >TAbort- 
<TAbort- <MAbort- >SERR- <PERR-
	Latency: 168, cache line size 08
	Interrupt: pin B routed to IRQ 11
	Region 0: Memory at 50100000 (32-bit, non-prefetchable) [size=4K]
	Bus: primary=00, secondary=06, subordinate=09, sec-latency=176
	Memory window 0: 10800000-10bff000 (prefetchable)
	Memory window 1: 10c00000-10fff000
	I/O window 0: 00004800-000048ff
	I/O window 1: 00004c00-00004cff
	BridgeCtl: Parity- SERR- ISA- VGA- MAbort- >Reset+ 16bInt+ PostWrite+
	16-bit legacy interface ports at 0001
00: 4c 10 1b ac 07 00 10 02 03 00 07 06 08 a8 82 00
10: 00 00 10 50 a0 00 00 02 00 06 09 b0 00 00 80 10
20: 00 f0 bf 10 00 00 c0 10 00 f0 ff 10 00 48 00 00
30: fc 48 00 00 00 4c 00 00 fc 4c 00 00 0b 02 c0 05
40: 14 10 30 01 01 00 00 00 00 00 00 00 00 00 00 00
50: 00 00 00 00 00 00 00 00 00 00 00 00 00 00 00 00
60: 00 00 00 00 00 00 00 00 00 00 00 00 00 00 00 00
70: 00 00 00 00 00 00 00 00 00 00 00 00 00 00 00 00
80: 78 d0 44 08 80 00 00 00 80 80 01 80 00 10 00 00
90: c0 82 66 40 00 00 00 00 00 00 00 00 00 00 00 00
a0: 01 00 11 fe 00 00 c0 00 00 00 00 00 00 00 00 00
b0: 00 00 00 00 00 00 00 00 00 00 00 00 00 00 00 00
c0: 00 00 00 00 00 00 00 00 00 00 00 00 00 00 00 00
d0: 00 00 00 00 00 00 00 00 00 00 00 00 00 00 00 00
e0: 00 00 00 00 00 00 00 00 00 00 00 00 00 00 00 00
f0: 00 00 00 00 00 00 00 00 00 00 00 00 00 00 00 00

00:03.0 Ethernet controller: 3Com Corporation 3c556B Hurricane CardBus 
(rev 20)
	Subsystem: 3Com Corporation: Unknown device 6356
	Control: I/O+ Mem+ BusMaster+ SpecCycle- MemWINV+ VGASnoop- ParErr- 
Stepping- SERR- FastB2B-
	Status: Cap+ 66Mhz- UDF- FastB2B- ParErr- DEVSEL=medium >TAbort- 
<TAbort- <MAbort- >SERR- <PERR-
	Latency: 80 (2500ns min, 2500ns max), cache line size 08
	Interrupt: pin A routed to IRQ 11
	Region 0: I/O ports at 1800 [size=256]
	Region 1: Memory at e8101400 (32-bit, non-prefetchable) [size=128]
	Region 2: Memory at e8101000 (32-bit, non-prefetchable) [size=128]
	Expansion ROM at <unassigned> [disabled] [size=128K]
	Capabilities: [50] Power Management version 2
		Flags: PMEClk- DSI- D1+ D2+ AuxCurrent=0mA PME(D0+,D1+,D2+,D3hot+,D3cold+)
		Status: D3 PME-Enable+ DSel=0 DScale=2 PME-
00: b7 10 56 60 17 00 10 02 20 00 00 02 08 50 80 00
10: 01 18 00 00 00 14 10 e8 00 10 10 e8 00 00 00 00
20: 00 00 00 00 00 00 00 00 00 00 00 00 b7 10 56 63
30: 00 00 00 00 50 00 00 00 00 00 00 00 0b 01 0a 0a
40: 00 00 00 00 40 00 00 00 00 00 00 00 00 00 00 00
50: 01 00 02 fe 03 41 00 29 00 00 00 00 00 00 00 00
60: 00 00 46 86 49 a5 56 60 61 00 09 00 00 00 50 6d
70: 70 29 09 00 00 00 46 86 49 a5 10 00 00 00 aa 00
80: a6 32 00 00 00 00 00 00 00 00 00 00 29 04 30 00
90: 00 00 00 00 02 00 00 00 00 00 00 00 00 00 00 00
a0: 00 00 00 00 00 00 00 00 00 00 00 00 00 00 00 00
b0: 00 00 00 00 00 00 00 00 00 00 00 00 00 00 00 00
c0: 00 00 00 00 00 00 00 00 00 00 00 00 00 00 00 00
d0: 00 00 00 00 00 00 00 00 00 00 00 00 00 00 00 00
e0: 00 00 00 00 00 00 00 00 00 00 00 00 00 00 00 00
f0: 00 00 00 00 00 00 00 00 00 00 00 00 00 00 00 00

00:03.1 Communication controller: 3Com Corporation Mini PCI 56k Winmodem 
(rev 20)
	Subsystem: 3Com Corporation: Unknown device 6159
	Control: I/O+ Mem+ BusMaster- SpecCycle- MemWINV+ VGASnoop- ParErr- 
Stepping- SERR- FastB2B-
	Status: Cap+ 66Mhz- UDF- FastB2B- ParErr- DEVSEL=medium >TAbort- 
<TAbort- <MAbort- >SERR- <PERR-
	Interrupt: pin A routed to IRQ 11
	Region 0: I/O ports at 2000 [size=256]
	Region 1: Memory at e8101c00 (32-bit, non-prefetchable) [size=256]
	Region 2: Memory at e8101800 (32-bit, non-prefetchable) [size=128]
	Capabilities: [50] Power Management version 2
		Flags: PMEClk- DSI- D1- D2+ AuxCurrent=0mA PME(D0+,D1-,D2+,D3hot+,D3cold+)
		Status: D0 PME-Enable- DSel=0 DScale=2 PME-
00: b7 10 07 10 13 00 10 02 20 00 80 07 08 50 00 00
10: 01 20 00 00 00 1c 10 e8 00 18 10 e8 00 00 00 00
20: 00 00 00 00 00 00 00 00 00 00 00 00 b7 10 59 61
30: 00 00 00 00 50 00 00 00 00 00 00 00 0b 01 0a 0a
40: 00 00 00 00 00 00 00 00 00 00 00 00 00 00 00 00
50: 01 00 12 ec 00 40 00 08 00 00 00 00 00 00 00 00
60: 00 00 00 00 00 00 00 00 00 00 00 00 00 00 00 00
70: 00 00 00 00 00 00 00 00 00 00 00 00 00 00 00 00
80: 00 00 00 00 00 00 00 00 00 00 00 00 00 00 00 00
90: 00 00 00 00 00 00 00 00 00 00 00 00 00 00 00 00
a0: 00 00 00 00 00 00 00 00 00 00 00 00 00 00 00 00
b0: 00 00 00 00 00 00 00 00 00 00 00 00 00 00 00 00
c0: 00 00 00 00 00 00 00 00 00 00 00 00 00 00 00 00
d0: 00 00 00 00 00 00 00 00 00 00 00 00 00 00 00 00
e0: 00 00 00 00 00 00 00 00 00 00 00 00 00 00 00 00
f0: 00 00 00 00 00 00 00 00 00 00 00 00 00 00 00 00

00:05.0 Multimedia audio controller: Cirrus Logic CS 4614/22/24 
[CrystalClear SoundFusion Audio Accelerator] (rev 01)
	Subsystem: IBM: Unknown device 0153
	Control: I/O- Mem+ BusMaster+ SpecCycle- MemWINV- VGASnoop- ParErr- 
Stepping- SERR- FastB2B-
	Status: Cap+ 66Mhz- UDF- FastB2B- ParErr- DEVSEL=slow >TAbort- <TAbort- 
<MAbort- >SERR- <PERR-
	Latency: 64 (1000ns min, 6000ns max)
	Interrupt: pin A routed to IRQ 11
	Region 0: Memory at e8100000 (32-bit, non-prefetchable) [size=4K]
	Region 1: Memory at e8000000 (32-bit, non-prefetchable) [size=1M]
	Capabilities: [40] Power Management version 2
		Flags: PMEClk- DSI+ D1+ D2+ AuxCurrent=0mA PME(D0-,D1-,D2-,D3hot-,D3cold-)
		Status: D0 PME-Enable- DSel=0 DScale=0 PME-
00: 13 10 03 60 06 00 10 04 01 00 01 04 00 40 00 00
10: 00 00 10 e8 00 00 00 e8 00 00 00 00 00 00 00 00
20: 00 00 00 00 00 00 00 00 00 00 00 00 14 10 53 01
30: 00 00 00 00 40 00 00 00 00 00 00 00 0b 01 04 18
40: 01 00 22 06 00 00 00 00 00 00 00 00 00 00 00 00
50: 00 00 00 00 00 00 00 00 00 00 00 00 00 00 00 00
60: 00 00 00 00 00 00 00 00 00 00 00 00 00 00 00 00
70: 00 00 00 00 00 00 00 00 00 00 00 00 00 00 00 00
80: 00 00 00 00 00 00 00 00 00 00 00 00 00 00 00 00
90: 00 00 00 00 00 00 00 00 00 00 00 00 00 00 00 00
a0: 00 00 00 00 00 00 00 00 00 00 00 00 00 00 00 00
b0: 00 00 00 00 00 00 00 00 00 00 00 00 00 00 00 00
c0: 00 00 00 00 00 00 00 00 00 00 00 00 00 00 00 00
d0: 00 00 00 00 00 00 00 00 00 00 00 00 00 00 00 00
e0: 00 00 00 00 00 00 00 00 00 00 00 00 00 00 00 00
f0: 00 00 00 00 00 00 00 00 00 00 00 00 00 00 00 00

00:07.0 Bridge: Intel Corp. 82371AB/EB/MB PIIX4 ISA (rev 02)
	Control: I/O+ Mem+ BusMaster+ SpecCycle+ MemWINV- VGASnoop- ParErr- 
Stepping- SERR- FastB2B-
	Status: Cap- 66Mhz- UDF- FastB2B+ ParErr- DEVSEL=medium >TAbort- 
<TAbort- <MAbort- >SERR- <PERR-
	Latency: 0
00: 86 80 10 71 0f 00 80 02 02 00 80 06 00 00 80 00
10: 00 00 00 00 00 00 00 00 00 00 00 00 00 00 00 00
20: 00 00 00 00 00 00 00 00 00 00 00 00 00 00 00 00
30: 00 00 00 00 00 00 00 00 00 00 00 00 00 00 00 00
40: 00 00 00 00 00 00 00 00 00 00 00 00 4d 00 f3 04
50: 00 00 00 00 00 00 00 00 00 00 00 00 00 00 00 00
60: 0b 0b 0b 0b 92 00 00 00 00 f2 00 00 00 00 00 00
70: 00 00 00 00 00 00 0c 0c 00 00 00 00 00 00 00 00
80: 00 00 03 00 00 00 00 00 00 00 00 00 00 00 00 00
90: 00 00 00 00 00 00 00 00 00 00 00 00 00 00 00 00
a0: 00 00 00 00 00 00 00 00 00 00 00 00 00 00 00 00
b0: 07 81 11 10 00 00 00 00 00 00 00 00 00 00 00 00
c0: 00 00 00 00 00 00 00 00 00 00 00 25 00 00 00 00
d0: 00 00 00 00 00 00 00 00 00 00 00 00 00 00 00 00
e0: 00 00 00 00 00 00 00 00 00 00 00 00 00 00 00 00
f0: 00 00 00 00 00 00 00 00 30 0f 00 00 00 00 00 00

00:07.1 IDE interface: Intel Corp. 82371AB/EB/MB PIIX4 IDE (rev 01) 
(prog-if 80 [Master])
	Control: I/O+ Mem- BusMaster+ SpecCycle- MemWINV- VGASnoop- ParErr- 
Stepping- SERR- FastB2B-
	Status: Cap- 66Mhz- UDF- FastB2B+ ParErr- DEVSEL=medium >TAbort- 
<TAbort- <MAbort- >SERR- <PERR-
	Latency: 64
	Region 4: I/O ports at 1c00 [size=16]
00: 86 80 11 71 05 00 80 02 01 80 01 01 00 40 00 00
10: 00 00 00 00 00 00 00 00 00 00 00 00 00 00 00 00
20: 01 1c 00 00 00 00 00 00 00 00 00 00 00 00 00 00
30: 00 00 00 00 00 00 00 00 00 00 00 00 00 00 00 00
40: 07 a3 07 a3 00 00 00 00 05 00 02 02 00 00 00 00
50: 00 00 00 00 00 00 00 00 00 00 00 00 00 00 00 00
60: 00 00 00 00 00 00 00 00 00 00 00 00 00 00 00 00
70: 00 00 00 00 00 00 00 00 00 00 00 00 00 00 00 00
80: 00 00 00 00 00 00 00 00 00 00 00 00 00 00 00 00
90: 00 00 00 00 00 00 00 00 00 00 00 00 00 00 00 00
a0: 00 00 00 00 00 00 00 00 00 00 00 00 00 00 00 00
b0: 00 00 00 00 00 00 00 00 00 00 00 00 00 00 00 00
c0: 00 00 00 00 00 00 00 00 00 00 00 00 00 00 00 00
d0: 00 00 00 00 00 00 00 00 00 00 00 00 00 00 00 00
e0: 00 00 00 00 00 00 00 00 00 00 00 00 00 00 00 00
f0: 00 00 00 00 00 00 00 00 30 0f 00 00 00 00 00 00

00:07.2 USB Controller: Intel Corp. 82371AB/EB/MB PIIX4 USB (rev 01) 
(prog-if 00 [UHCI])
	Control: I/O+ Mem- BusMaster+ SpecCycle- MemWINV- VGASnoop- ParErr- 
Stepping- SERR- FastB2B-
	Status: Cap- 66Mhz- UDF- FastB2B+ ParErr- DEVSEL=medium >TAbort- 
<TAbort- <MAbort- >SERR- <PERR-
	Latency: 64
	Interrupt: pin D routed to IRQ 11
	Region 4: I/O ports at 1c20 [size=32]
00: 86 80 12 71 05 00 80 02 01 00 03 0c 00 40 00 00
10: 00 00 00 00 00 00 00 00 00 00 00 00 00 00 00 00
20: 21 1c 00 00 00 00 00 00 00 00 00 00 00 00 00 00
30: 00 00 00 00 00 00 00 00 00 00 00 00 0b 04 00 00
40: 00 00 00 00 00 00 00 00 00 00 00 00 00 00 00 00
50: 00 00 00 00 00 00 00 00 00 00 00 00 00 00 00 00
60: 10 00 00 00 00 00 00 00 00 00 00 00 00 00 00 00
70: 00 00 00 00 00 00 00 00 00 00 00 00 00 00 00 00
80: 00 00 00 00 00 00 00 00 00 00 00 00 00 00 00 00
90: 00 00 00 00 00 00 00 00 00 00 00 00 00 00 00 00
a0: 00 00 00 00 00 00 00 00 00 00 00 00 00 00 00 00
b0: 00 00 00 00 00 00 00 00 00 00 00 00 00 00 00 00
c0: 00 20 00 00 00 00 00 00 00 00 00 00 00 00 00 00
d0: 00 00 00 00 00 00 00 00 00 00 00 00 00 00 00 00
e0: 00 00 00 00 00 00 00 00 00 00 00 00 00 00 00 00
f0: 00 00 00 00 00 00 00 00 30 0f 00 00 00 00 00 00

00:07.3 Bridge: Intel Corp. 82371AB/EB/MB PIIX4 ACPI (rev 03)
	Control: I/O+ Mem+ BusMaster- SpecCycle- MemWINV- VGASnoop- ParErr- 
Stepping- SERR- FastB2B-
	Status: Cap- 66Mhz- UDF- FastB2B+ ParErr- DEVSEL=medium >TAbort- 
<TAbort- <MAbort- >SERR- <PERR-
	Interrupt: pin ? routed to IRQ 9
00: 86 80 13 71 03 00 80 02 03 00 80 06 00 00 00 00
10: 00 00 00 00 00 00 00 00 00 00 00 00 00 00 00 00
20: 00 00 00 00 00 00 00 00 00 00 00 00 00 00 00 00
30: 00 00 00 00 00 00 00 00 00 00 00 00 00 00 00 00
40: 01 10 00 00 0f ff bf 10 e1 30 00 00 80 00 10 00
50: 03 50 1d 00 e0 c9 7f 06 37 80 00 02 00 00 00 80
60: 00 00 00 60 e8 15 e7 08 00 00 00 00 00 00 00 00
70: 00 00 00 00 00 00 00 00 f0 03 17 00 2e 00 11 00
80: 01 00 00 00 00 00 00 00 00 00 00 00 00 00 00 00
90: 41 10 00 00 00 00 00 00 00 00 00 00 00 00 00 00
a0: 00 00 00 00 00 00 00 00 00 00 00 00 00 00 00 00
b0: 00 00 00 00 00 00 00 00 00 00 00 00 00 00 00 00
c0: 00 00 00 00 00 00 00 00 00 00 00 00 00 00 00 00
d0: 00 00 01 00 00 00 00 00 00 00 00 00 00 00 00 00
e0: 00 00 00 00 00 00 00 00 00 00 00 00 00 00 00 00
f0: 00 00 00 00 00 00 00 00 30 0f 00 00 00 00 00 00

01:00.0 VGA compatible controller: S3 Inc. 86C270-294 Savage/IX-MV (rev 
11) (prog-if 00 [VGA])
	Subsystem: IBM ThinkPad T20
	Control: I/O+ Mem+ BusMaster+ SpecCycle- MemWINV- VGASnoop- ParErr- 
Stepping- SERR- FastB2B-
	Status: Cap+ 66Mhz+ UDF- FastB2B- ParErr- DEVSEL=medium >TAbort- 
<TAbort- <MAbort- >SERR- <PERR-
	Latency: 64 (1000ns min, 63750ns max), cache line size 08
	Interrupt: pin A routed to IRQ 11
	Region 0: Memory at f0000000 (32-bit, non-prefetchable) [size=128M]
	Expansion ROM at <unassigned> [disabled] [size=64K]
	Capabilities: [dc] Power Management version 1
		Flags: PMEClk- DSI+ D1+ D2+ AuxCurrent=0mA PME(D0-,D1-,D2-,D3hot-,D3cold-)
		Status: D0 PME-Enable- DSel=0 DScale=0 PME-
	Capabilities: [80] AGP version 1.0
		Status: RQ=32 Iso- ArqSz=0 Cal=0 SBA+ ITACoh- GART64- HTrans- 64bit- 
FW- AGP3- Rate=x1,x2
		Command: RQ=1 ArqSz=0 Cal=0 SBA- AGP- GART64- 64bit- FW- Rate=<none>
00: 33 53 12 8c 07 00 30 02 11 00 00 03 08 40 00 00
10: 00 00 00 f0 00 00 00 00 00 00 00 00 00 00 00 00
20: 00 00 00 00 00 00 00 00 00 00 00 00 14 10 7f 01
30: 00 00 00 00 dc 00 00 00 00 00 00 00 0b 01 04 ff
40: 03 00 00 00 00 00 00 00 00 00 00 00 00 00 00 00
50: 00 00 00 00 00 00 00 00 00 00 00 00 00 00 00 00
60: 00 00 00 00 00 00 00 00 00 00 00 00 00 00 00 00
70: 00 00 00 00 00 00 00 00 00 00 00 00 00 00 00 00
80: 02 00 10 00 03 02 00 1f 00 00 00 00 40 02 00 00
90: 00 00 00 00 00 00 00 00 00 00 00 00 00 00 00 00
a0: 00 00 00 00 00 00 00 00 00 00 00 00 00 00 00 00
b0: 00 00 00 00 00 00 00 00 00 00 00 00 00 00 00 00
c0: 00 00 00 00 00 00 00 00 00 00 00 00 00 00 00 00
d0: 00 00 00 00 00 00 00 00 00 00 00 00 01 80 21 06
e0: 00 00 00 00 00 00 00 00 00 00 00 00 00 00 00 00
f0: 00 00 00 00 00 00 00 00 00 00 00 00 00 00 00 00




********************************************************************
WITH NO YENTA KERNEL 2.6
********************************************************************


00:00.0 Host bridge: Intel Corp. 440BX/ZX/DX - 82443BX/ZX/DX Host bridge 
(rev 03)
	Control: I/O- Mem+ BusMaster+ SpecCycle- MemWINV- VGASnoop- ParErr- 
Stepping- SERR+ FastB2B-
	Status: Cap+ 66Mhz- UDF- FastB2B- ParErr- DEVSEL=medium >TAbort- 
<TAbort- <MAbort+ >SERR- <PERR+
	Latency: 64
	Region 0: Memory at f8000000 (32-bit, prefetchable) [size=64M]
	Capabilities: [a0] AGP version 1.0
		Status: RQ=32 Iso- ArqSz=0 Cal=0 SBA+ ITACoh- GART64- HTrans- 64bit- 
FW- AGP3- Rate=x1,x2
		Command: RQ=1 ArqSz=0 Cal=0 SBA- AGP- GART64- 64bit- FW- Rate=<none>
00: 86 80 90 71 06 01 10 a2 03 00 00 06 00 40 00 00
10: 08 00 00 f8 00 00 00 00 00 00 00 00 00 00 00 00
20: 00 00 00 00 00 00 00 00 00 00 00 00 00 00 00 00
30: 00 00 00 00 a0 00 00 00 00 00 00 00 00 00 00 00
40: 00 00 00 00 00 00 00 00 00 00 00 00 00 00 00 00
50: 0c 82 00 ff 00 00 00 09 03 10 11 11 00 00 11 11
60: 08 10 10 18 20 20 20 20 00 00 00 00 00 aa 00 00
70: 20 1f 0a 38 45 01 03 01 27 1b 9c 00 10 00 00 00
80: 00 00 00 00 00 00 00 00 00 00 00 00 00 00 00 00
90: 00 00 00 00 04 61 00 00 00 05 00 00 00 00 00 00
a0: 02 00 10 00 03 02 00 1f 00 00 00 00 00 00 00 00
b0: 80 20 00 00 30 00 00 00 00 00 35 01 20 10 00 00
c0: 00 00 00 00 00 00 00 00 18 0c 83 cd 78 00 00 00
d0: 00 00 00 00 00 00 00 00 0c 00 00 00 00 00 00 00
e0: 4c ad ff bb 8a 3e 00 80 2c d3 f7 cf 9d 3e 00 00
f0: 40 01 00 00 00 f8 00 60 20 0f 00 00 00 00 00 00

00:01.0 PCI bridge: Intel Corp. 440BX/ZX/DX - 82443BX/ZX/DX AGP bridge 
(rev 03) (prog-if 00 [Normal decode])
	Control: I/O+ Mem+ BusMaster+ SpecCycle+ MemWINV+ VGASnoop- ParErr- 
Stepping- SERR- FastB2B-
	Status: Cap- 66Mhz+ UDF- FastB2B- ParErr- DEVSEL=medium >TAbort- 
<TAbort- <MAbort- >SERR- <PERR-
	Latency: 128
	Bus: primary=00, secondary=01, subordinate=01, sec-latency=64
	Memory behind bridge: f0000000-f7ffffff
	BridgeCtl: Parity- SERR- NoISA+ VGA+ MAbort- >Reset- FastB2B+
00: 86 80 91 71 1f 00 20 02 03 00 04 06 00 80 01 00
10: 00 00 00 00 00 00 00 00 00 01 01 40 f0 00 a0 22
20: 00 f0 f0 f7 f0 ff 00 00 00 00 00 00 00 00 00 00
30: 00 00 00 00 00 00 00 00 00 00 00 00 00 00 8c 00
40: 00 00 00 00 00 00 00 00 00 00 00 00 00 00 00 00
50: 00 00 00 00 00 00 00 00 00 00 00 00 00 00 00 00
60: 00 00 00 00 00 00 00 00 00 00 00 00 00 00 00 00
70: 00 00 00 00 00 00 00 00 00 00 00 00 00 00 00 00
80: 00 00 00 00 00 00 00 00 00 00 00 00 00 00 00 00
90: 00 00 00 00 00 00 00 00 00 00 00 00 00 00 00 00
a0: 00 00 00 00 00 00 00 00 00 00 00 00 00 00 00 00
b0: 00 00 00 00 00 00 00 00 00 00 00 00 00 00 00 00
c0: 00 00 00 00 00 00 00 00 00 00 00 00 00 00 00 00
d0: 00 00 00 00 00 00 00 00 00 00 00 00 00 00 00 00
e0: 00 00 00 00 00 00 00 00 00 00 00 00 00 00 00 00
f0: 00 00 00 00 00 00 00 00 00 00 00 00 00 00 00 00

00:02.0 CardBus bridge: Texas Instruments PCI1450 (rev 03)
	Subsystem: IBM: Unknown device 0130
	Control: I/O+ Mem+ BusMaster+ SpecCycle- MemWINV- VGASnoop- ParErr- 
Stepping- SERR- FastB2B-
	Status: Cap+ 66Mhz- UDF- FastB2B- ParErr- DEVSEL=medium >TAbort- 
<TAbort- <MAbort- >SERR- <PERR-
	Latency: 168, cache line size 08
	Interrupt: pin A routed to IRQ 11
	Region 0: Memory at 50000000 (32-bit, non-prefetchable) [size=4K]
	Bus: primary=00, secondary=02, subordinate=05, sec-latency=176
	Memory window 0: 10000000-103ff000 (prefetchable)
	Memory window 1: 10400000-107ff000
	I/O window 0: 00004000-000040ff
	I/O window 1: 00004400-000044ff
	BridgeCtl: Parity- SERR- ISA- VGA- MAbort- >Reset+ 16bInt+ PostWrite+
	16-bit legacy interface ports at 0001
00: 4c 10 1b ac 07 00 10 02 03 00 07 06 08 a8 82 00
10: 00 00 00 50 a0 00 00 02 00 02 05 b0 00 00 00 10
20: 00 f0 3f 10 00 00 40 10 00 f0 7f 10 00 40 00 00
30: fc 40 00 00 00 44 00 00 fc 44 00 00 0b 01 c0 05
40: 14 10 30 01 01 00 00 00 00 00 00 00 00 00 00 00
50: 00 00 00 00 00 00 00 00 00 00 00 00 00 00 00 00
60: 00 00 00 00 00 00 00 00 00 00 00 00 00 00 00 00
70: 00 00 00 00 00 00 00 00 00 00 00 00 00 00 00 00
80: 78 d0 44 08 80 00 00 00 80 80 01 80 00 10 00 00
90: c0 82 66 40 00 00 00 00 00 00 00 00 00 00 00 00
a0: 01 00 11 fe 00 00 c0 00 00 00 00 00 00 00 00 00
b0: 00 00 00 00 00 00 00 00 00 00 00 00 00 00 00 00
c0: 00 00 00 00 00 00 00 00 00 00 00 00 00 00 00 00
d0: 00 00 00 00 00 00 00 00 00 00 00 00 00 00 00 00
e0: 00 00 00 00 00 00 00 00 00 00 00 00 00 00 00 00
f0: 00 00 00 00 00 00 00 00 00 00 00 00 00 00 00 00

00:02.1 CardBus bridge: Texas Instruments PCI1450 (rev 03)
	Subsystem: IBM: Unknown device 0130
	Control: I/O+ Mem+ BusMaster+ SpecCycle- MemWINV- VGASnoop- ParErr- 
Stepping- SERR- FastB2B-
	Status: Cap+ 66Mhz- UDF- FastB2B- ParErr- DEVSEL=medium >TAbort- 
<TAbort- <MAbort- >SERR- <PERR-
	Latency: 168, cache line size 08
	Interrupt: pin B routed to IRQ 11
	Region 0: Memory at 50100000 (32-bit, non-prefetchable) [size=4K]
	Bus: primary=00, secondary=06, subordinate=09, sec-latency=176
	Memory window 0: 10800000-10bff000 (prefetchable)
	Memory window 1: 10c00000-10fff000
	I/O window 0: 00004800-000048ff
	I/O window 1: 00004c00-00004cff
	BridgeCtl: Parity- SERR- ISA- VGA- MAbort- >Reset+ 16bInt+ PostWrite+
	16-bit legacy interface ports at 0001
00: 4c 10 1b ac 07 00 10 02 03 00 07 06 08 a8 82 00
10: 00 00 10 50 a0 00 00 02 00 06 09 b0 00 00 80 10
20: 00 f0 bf 10 00 00 c0 10 00 f0 ff 10 00 48 00 00
30: fc 48 00 00 00 4c 00 00 fc 4c 00 00 0b 02 c0 05
40: 14 10 30 01 01 00 00 00 00 00 00 00 00 00 00 00
50: 00 00 00 00 00 00 00 00 00 00 00 00 00 00 00 00
60: 00 00 00 00 00 00 00 00 00 00 00 00 00 00 00 00
70: 00 00 00 00 00 00 00 00 00 00 00 00 00 00 00 00
80: 78 d0 44 08 80 00 00 00 80 80 01 80 00 10 00 00
90: c0 82 66 40 00 00 00 00 00 00 00 00 00 00 00 00
a0: 01 00 11 fe 00 00 c0 00 00 00 00 00 00 00 00 00
b0: 00 00 00 00 00 00 00 00 00 00 00 00 00 00 00 00
c0: 00 00 00 00 00 00 00 00 00 00 00 00 00 00 00 00
d0: 00 00 00 00 00 00 00 00 00 00 00 00 00 00 00 00
e0: 00 00 00 00 00 00 00 00 00 00 00 00 00 00 00 00
f0: 00 00 00 00 00 00 00 00 00 00 00 00 00 00 00 00

00:03.0 Ethernet controller: 3Com Corporation 3c556B Hurricane CardBus 
(rev 20)
	Subsystem: 3Com Corporation: Unknown device 6356
	Control: I/O+ Mem+ BusMaster+ SpecCycle- MemWINV+ VGASnoop- ParErr- 
Stepping- SERR- FastB2B-
	Status: Cap+ 66Mhz- UDF- FastB2B- ParErr- DEVSEL=medium >TAbort- 
<TAbort- <MAbort- >SERR- <PERR-
	Latency: 80 (2500ns min, 2500ns max), cache line size 08
	Interrupt: pin A routed to IRQ 11
	Region 0: I/O ports at 1800 [size=256]
	Region 1: Memory at e8101400 (32-bit, non-prefetchable) [size=128]
	Region 2: Memory at e8101000 (32-bit, non-prefetchable) [size=128]
	Expansion ROM at <unassigned> [disabled] [size=128K]
	Capabilities: [50] Power Management version 2
		Flags: PMEClk- DSI- D1+ D2+ AuxCurrent=0mA PME(D0+,D1+,D2+,D3hot+,D3cold+)
		Status: D3 PME-Enable+ DSel=0 DScale=2 PME-
00: b7 10 56 60 17 00 10 02 20 00 00 02 08 50 80 00
10: 01 18 00 00 00 14 10 e8 00 10 10 e8 00 00 00 00
20: 00 00 00 00 00 00 00 00 00 00 00 00 b7 10 56 63
30: 00 00 00 00 50 00 00 00 00 00 00 00 0b 01 0a 0a
40: 00 00 00 00 40 00 00 00 00 00 00 00 00 00 00 00
50: 01 00 02 fe 03 41 00 29 00 00 00 00 00 00 00 00
60: 00 00 46 86 49 a5 56 60 61 00 09 00 00 00 50 6d
70: 70 29 09 00 00 00 46 86 49 a5 10 00 00 00 aa 00
80: a6 32 00 00 00 00 00 00 00 00 00 00 29 04 30 00
90: 00 00 00 00 02 00 00 00 00 00 00 00 00 00 00 00
a0: 00 00 00 00 00 00 00 00 00 00 00 00 00 00 00 00
b0: 00 00 00 00 00 00 00 00 00 00 00 00 00 00 00 00
c0: 00 00 00 00 00 00 00 00 00 00 00 00 00 00 00 00
d0: 00 00 00 00 00 00 00 00 00 00 00 00 00 00 00 00
e0: 00 00 00 00 00 00 00 00 00 00 00 00 00 00 00 00
f0: 00 00 00 00 00 00 00 00 00 00 00 00 00 00 00 00

00:03.1 Communication controller: 3Com Corporation Mini PCI 56k Winmodem 
(rev 20)
	Subsystem: 3Com Corporation: Unknown device 6159
	Control: I/O+ Mem+ BusMaster- SpecCycle- MemWINV+ VGASnoop- ParErr- 
Stepping- SERR- FastB2B-
	Status: Cap+ 66Mhz- UDF- FastB2B- ParErr- DEVSEL=medium >TAbort- 
<TAbort- <MAbort- >SERR- <PERR-
	Interrupt: pin A routed to IRQ 11
	Region 0: I/O ports at 2000 [size=256]
	Region 1: Memory at e8101c00 (32-bit, non-prefetchable) [size=256]
	Region 2: Memory at e8101800 (32-bit, non-prefetchable) [size=128]
	Capabilities: [50] Power Management version 2
		Flags: PMEClk- DSI- D1- D2+ AuxCurrent=0mA PME(D0+,D1-,D2+,D3hot+,D3cold+)
		Status: D0 PME-Enable- DSel=0 DScale=2 PME-
00: b7 10 07 10 13 00 10 02 20 00 80 07 08 50 00 00
10: 01 20 00 00 00 1c 10 e8 00 18 10 e8 00 00 00 00
20: 00 00 00 00 00 00 00 00 00 00 00 00 b7 10 59 61
30: 00 00 00 00 50 00 00 00 00 00 00 00 0b 01 0a 0a
40: 00 00 00 00 00 00 00 00 00 00 00 00 00 00 00 00
50: 01 00 12 ec 00 40 00 08 00 00 00 00 00 00 00 00
60: 00 00 00 00 00 00 00 00 00 00 00 00 00 00 00 00
70: 00 00 00 00 00 00 00 00 00 00 00 00 00 00 00 00
80: 00 00 00 00 00 00 00 00 00 00 00 00 00 00 00 00
90: 00 00 00 00 00 00 00 00 00 00 00 00 00 00 00 00
a0: 00 00 00 00 00 00 00 00 00 00 00 00 00 00 00 00
b0: 00 00 00 00 00 00 00 00 00 00 00 00 00 00 00 00
c0: 00 00 00 00 00 00 00 00 00 00 00 00 00 00 00 00
d0: 00 00 00 00 00 00 00 00 00 00 00 00 00 00 00 00
e0: 00 00 00 00 00 00 00 00 00 00 00 00 00 00 00 00
f0: 00 00 00 00 00 00 00 00 00 00 00 00 00 00 00 00

00:05.0 Multimedia audio controller: Cirrus Logic CS 4614/22/24 
[CrystalClear SoundFusion Audio Accelerator] (rev 01)
	Subsystem: IBM: Unknown device 0153
	Control: I/O- Mem+ BusMaster+ SpecCycle- MemWINV- VGASnoop- ParErr- 
Stepping- SERR- FastB2B-
	Status: Cap+ 66Mhz- UDF- FastB2B- ParErr- DEVSEL=slow >TAbort- <TAbort- 
<MAbort- >SERR- <PERR-
	Latency: 64 (1000ns min, 6000ns max)
	Interrupt: pin A routed to IRQ 11
	Region 0: Memory at e8100000 (32-bit, non-prefetchable) [size=4K]
	Region 1: Memory at e8000000 (32-bit, non-prefetchable) [size=1M]
	Capabilities: [40] Power Management version 2
		Flags: PMEClk- DSI+ D1+ D2+ AuxCurrent=0mA PME(D0-,D1-,D2-,D3hot-,D3cold-)
		Status: D0 PME-Enable- DSel=0 DScale=0 PME-
00: 13 10 03 60 06 00 10 04 01 00 01 04 00 40 00 00
10: 00 00 10 e8 00 00 00 e8 00 00 00 00 00 00 00 00
20: 00 00 00 00 00 00 00 00 00 00 00 00 14 10 53 01
30: 00 00 00 00 40 00 00 00 00 00 00 00 0b 01 04 18
40: 01 00 22 06 00 00 00 00 00 00 00 00 00 00 00 00
50: 00 00 00 00 00 00 00 00 00 00 00 00 00 00 00 00
60: 00 00 00 00 00 00 00 00 00 00 00 00 00 00 00 00
70: 00 00 00 00 00 00 00 00 00 00 00 00 00 00 00 00
80: 00 00 00 00 00 00 00 00 00 00 00 00 00 00 00 00
90: 00 00 00 00 00 00 00 00 00 00 00 00 00 00 00 00
a0: 00 00 00 00 00 00 00 00 00 00 00 00 00 00 00 00
b0: 00 00 00 00 00 00 00 00 00 00 00 00 00 00 00 00
c0: 00 00 00 00 00 00 00 00 00 00 00 00 00 00 00 00
d0: 00 00 00 00 00 00 00 00 00 00 00 00 00 00 00 00
e0: 00 00 00 00 00 00 00 00 00 00 00 00 00 00 00 00
f0: 00 00 00 00 00 00 00 00 00 00 00 00 00 00 00 00

00:07.0 Bridge: Intel Corp. 82371AB/EB/MB PIIX4 ISA (rev 02)
	Control: I/O+ Mem+ BusMaster+ SpecCycle+ MemWINV- VGASnoop- ParErr- 
Stepping- SERR- FastB2B-
	Status: Cap- 66Mhz- UDF- FastB2B+ ParErr- DEVSEL=medium >TAbort- 
<TAbort- <MAbort- >SERR- <PERR-
	Latency: 0
00: 86 80 10 71 0f 00 80 02 02 00 80 06 00 00 80 00
10: 00 00 00 00 00 00 00 00 00 00 00 00 00 00 00 00
20: 00 00 00 00 00 00 00 00 00 00 00 00 00 00 00 00
30: 00 00 00 00 00 00 00 00 00 00 00 00 00 00 00 00
40: 00 00 00 00 00 00 00 00 00 00 00 00 4d 00 f3 04
50: 00 00 00 00 00 00 00 00 00 00 00 00 00 00 00 00
60: 0b 0b 0b 0b 92 00 00 00 00 f2 00 00 00 00 00 00
70: 00 00 00 00 00 00 0c 0c 00 00 00 00 00 00 00 00
80: 00 00 03 00 00 00 00 00 00 00 00 00 00 00 00 00
90: 00 00 00 00 00 00 00 00 00 00 00 00 00 00 00 00
a0: 00 00 00 00 00 00 00 00 00 00 00 00 00 00 00 00
b0: 07 81 11 10 00 00 00 00 00 00 00 00 00 00 00 00
c0: 00 00 00 00 00 00 00 00 00 00 00 25 00 00 00 00
d0: 00 00 00 00 00 00 00 00 00 00 00 00 00 00 00 00
e0: 00 00 00 00 00 00 00 00 00 00 00 00 00 00 00 00
f0: 00 00 00 00 00 00 00 00 30 0f 00 00 00 00 00 00

00:07.1 IDE interface: Intel Corp. 82371AB/EB/MB PIIX4 IDE (rev 01) 
(prog-if 80 [Master])
	Control: I/O+ Mem- BusMaster+ SpecCycle- MemWINV- VGASnoop- ParErr- 
Stepping- SERR- FastB2B-
	Status: Cap- 66Mhz- UDF- FastB2B+ ParErr- DEVSEL=medium >TAbort- 
<TAbort- <MAbort- >SERR- <PERR-
	Latency: 64
	Region 4: I/O ports at 1c00 [size=16]
00: 86 80 11 71 05 00 80 02 01 80 01 01 00 40 00 00
10: 00 00 00 00 00 00 00 00 00 00 00 00 00 00 00 00
20: 01 1c 00 00 00 00 00 00 00 00 00 00 00 00 00 00
30: 00 00 00 00 00 00 00 00 00 00 00 00 00 00 00 00
40: 07 a3 07 a3 00 00 00 00 05 00 02 02 00 00 00 00
50: 00 00 00 00 00 00 00 00 00 00 00 00 00 00 00 00
60: 00 00 00 00 00 00 00 00 00 00 00 00 00 00 00 00
70: 00 00 00 00 00 00 00 00 00 00 00 00 00 00 00 00
80: 00 00 00 00 00 00 00 00 00 00 00 00 00 00 00 00
90: 00 00 00 00 00 00 00 00 00 00 00 00 00 00 00 00
a0: 00 00 00 00 00 00 00 00 00 00 00 00 00 00 00 00
b0: 00 00 00 00 00 00 00 00 00 00 00 00 00 00 00 00
c0: 00 00 00 00 00 00 00 00 00 00 00 00 00 00 00 00
d0: 00 00 00 00 00 00 00 00 00 00 00 00 00 00 00 00
e0: 00 00 00 00 00 00 00 00 00 00 00 00 00 00 00 00
f0: 00 00 00 00 00 00 00 00 30 0f 00 00 00 00 00 00

00:07.2 USB Controller: Intel Corp. 82371AB/EB/MB PIIX4 USB (rev 01) 
(prog-if 00 [UHCI])
	Control: I/O+ Mem- BusMaster+ SpecCycle- MemWINV- VGASnoop- ParErr- 
Stepping- SERR- FastB2B-
	Status: Cap- 66Mhz- UDF- FastB2B+ ParErr- DEVSEL=medium >TAbort- 
<TAbort- <MAbort- >SERR- <PERR-
	Latency: 64
	Interrupt: pin D routed to IRQ 11
	Region 4: I/O ports at 1c20 [size=32]
00: 86 80 12 71 05 00 80 02 01 00 03 0c 00 40 00 00
10: 00 00 00 00 00 00 00 00 00 00 00 00 00 00 00 00
20: 21 1c 00 00 00 00 00 00 00 00 00 00 00 00 00 00
30: 00 00 00 00 00 00 00 00 00 00 00 00 0b 04 00 00
40: 00 00 00 00 00 00 00 00 00 00 00 00 00 00 00 00
50: 00 00 00 00 00 00 00 00 00 00 00 00 00 00 00 00
60: 10 00 00 00 00 00 00 00 00 00 00 00 00 00 00 00
70: 00 00 00 00 00 00 00 00 00 00 00 00 00 00 00 00
80: 00 00 00 00 00 00 00 00 00 00 00 00 00 00 00 00
90: 00 00 00 00 00 00 00 00 00 00 00 00 00 00 00 00
a0: 00 00 00 00 00 00 00 00 00 00 00 00 00 00 00 00
b0: 00 00 00 00 00 00 00 00 00 00 00 00 00 00 00 00
c0: 00 20 00 00 00 00 00 00 00 00 00 00 00 00 00 00
d0: 00 00 00 00 00 00 00 00 00 00 00 00 00 00 00 00
e0: 00 00 00 00 00 00 00 00 00 00 00 00 00 00 00 00
f0: 00 00 00 00 00 00 00 00 30 0f 00 00 00 00 00 00

00:07.3 Bridge: Intel Corp. 82371AB/EB/MB PIIX4 ACPI (rev 03)
	Control: I/O+ Mem+ BusMaster- SpecCycle- MemWINV- VGASnoop- ParErr- 
Stepping- SERR- FastB2B-
	Status: Cap- 66Mhz- UDF- FastB2B+ ParErr- DEVSEL=medium >TAbort- 
<TAbort- <MAbort- >SERR- <PERR-
	Interrupt: pin ? routed to IRQ 9
00: 86 80 13 71 03 00 80 02 03 00 80 06 00 00 00 00
10: 00 00 00 00 00 00 00 00 00 00 00 00 00 00 00 00
20: 00 00 00 00 00 00 00 00 00 00 00 00 00 00 00 00
30: 00 00 00 00 00 00 00 00 00 00 00 00 00 00 00 00
40: 01 10 00 00 0f ff bf 10 e1 30 00 00 80 00 10 00
50: 03 50 1d 00 e0 c9 7f 06 37 80 00 02 00 00 00 80
60: 00 00 00 60 e8 15 e7 08 00 00 00 00 00 00 00 00
70: 00 00 00 00 00 00 00 00 f0 03 17 00 2e 00 11 00
80: 01 00 00 00 00 00 00 00 00 00 00 00 00 00 00 00
90: 41 10 00 00 00 00 00 00 00 00 00 00 00 00 00 00
a0: 00 00 00 00 00 00 00 00 00 00 00 00 00 00 00 00
b0: 00 00 00 00 00 00 00 00 00 00 00 00 00 00 00 00
c0: 00 00 00 00 00 00 00 00 00 00 00 00 00 00 00 00
d0: 00 00 01 00 00 00 00 00 00 00 00 00 00 00 00 00
e0: 00 00 00 00 00 00 00 00 00 00 00 00 00 00 00 00
f0: 00 00 00 00 00 00 00 00 30 0f 00 00 00 00 00 00

01:00.0 VGA compatible controller: S3 Inc. 86C270-294 Savage/IX-MV (rev 
11) (prog-if 00 [VGA])
	Subsystem: IBM ThinkPad T20
	Control: I/O+ Mem+ BusMaster+ SpecCycle- MemWINV- VGASnoop- ParErr- 
Stepping- SERR- FastB2B-
	Status: Cap+ 66Mhz+ UDF- FastB2B- ParErr- DEVSEL=medium >TAbort- 
<TAbort- <MAbort- >SERR- <PERR-
	Latency: 64 (1000ns min, 63750ns max), cache line size 08
	Interrupt: pin A routed to IRQ 11
	Region 0: Memory at f0000000 (32-bit, non-prefetchable) [size=128M]
	Expansion ROM at <unassigned> [disabled] [size=64K]
	Capabilities: [dc] Power Management version 1
		Flags: PMEClk- DSI+ D1+ D2+ AuxCurrent=0mA PME(D0-,D1-,D2-,D3hot-,D3cold-)
		Status: D0 PME-Enable- DSel=0 DScale=0 PME-
	Capabilities: [80] AGP version 1.0
		Status: RQ=32 Iso- ArqSz=0 Cal=0 SBA+ ITACoh- GART64- HTrans- 64bit- 
FW- AGP3- Rate=x1,x2
		Command: RQ=1 ArqSz=0 Cal=0 SBA- AGP- GART64- 64bit- FW- Rate=<none>
00: 33 53 12 8c 07 00 30 02 11 00 00 03 08 40 00 00
10: 00 00 00 f0 00 00 00 00 00 00 00 00 00 00 00 00
20: 00 00 00 00 00 00 00 00 00 00 00 00 14 10 7f 01
30: 00 00 00 00 dc 00 00 00 00 00 00 00 0b 01 04 ff
40: 03 00 00 00 00 00 00 00 00 00 00 00 00 00 00 00
50: 00 00 00 00 00 00 00 00 00 00 00 00 00 00 00 00
60: 00 00 00 00 00 00 00 00 00 00 00 00 00 00 00 00
70: 00 00 00 00 00 00 00 00 00 00 00 00 00 00 00 00
80: 02 00 10 00 03 02 00 1f 00 00 00 00 40 02 00 00
90: 00 00 00 00 00 00 00 00 00 00 00 00 00 00 00 00
a0: 00 00 00 00 00 00 00 00 00 00 00 00 00 00 00 00
b0: 00 00 00 00 00 00 00 00 00 00 00 00 00 00 00 00
c0: 00 00 00 00 00 00 00 00 00 00 00 00 00 00 00 00
d0: 00 00 00 00 00 00 00 00 00 00 00 00 01 80 21 06
e0: 00 00 00 00 00 00 00 00 00 00 00 00 00 00 00 00
f0: 00 00 00 00 00 00 00 00 00 00 00 00 00 00 00 00







********************************************************************
WITH YENTA KERNEL 2.4.20
********************************************************************
00:00.0 Host bridge: Intel Corp. 440BX/ZX/DX - 82443BX/ZX/DX Host bridge 
(rev 03)
	Control: I/O- Mem+ BusMaster+ SpecCycle- MemWINV- VGASnoop- ParErr- 
Stepping- SERR+ FastB2B-
	Status: Cap+ 66Mhz- UDF- FastB2B- ParErr- DEVSEL=medium >TAbort- 
<TAbort- <MAbort+ >SERR- <PERR-
	Latency: 64
	Region 0: Memory at f8000000 (32-bit, prefetchable) [size=64M]
	Capabilities: [a0] AGP version 1.0
		Status: RQ=32 Iso- ArqSz=0 Cal=0 SBA+ ITACoh- GART64- HTrans- 64bit- 
FW- AGP3- Rate=x1,x2
		Command: RQ=1 ArqSz=0 Cal=0 SBA- AGP- GART64- 64bit- FW- Rate=<none>
00: 86 80 90 71 06 01 10 22 03 00 00 06 00 40 00 00
10: 08 00 00 f8 00 00 00 00 00 00 00 00 00 00 00 00
20: 00 00 00 00 00 00 00 00 00 00 00 00 00 00 00 00
30: 00 00 00 00 a0 00 00 00 00 00 00 00 00 00 00 00
40: 00 00 00 00 00 00 00 00 00 00 00 00 00 00 00 00
50: 0c 82 00 ff 00 00 00 09 03 10 11 11 00 00 11 11
60: 08 10 10 18 20 20 20 20 00 00 00 00 00 aa 00 00
70: 20 1f 0a 38 45 01 03 01 27 1b 9c 00 10 00 00 00
80: 00 00 00 00 00 00 00 00 00 00 00 00 00 00 00 00
90: 00 00 00 00 04 61 00 00 00 05 00 00 00 00 00 00
a0: 02 00 10 00 03 02 00 1f 00 00 00 00 00 00 00 00
b0: 80 20 00 00 30 00 00 00 00 00 35 01 20 10 00 00
c0: 00 00 00 00 00 00 00 00 18 0c 83 cd 78 00 00 00
d0: 00 00 00 00 00 00 00 00 0c 00 00 00 00 00 00 00
e0: 4c ad ff bb 8a 3e 00 80 2c d3 f7 cf 9d 3e 00 00
f0: 40 01 00 00 00 f8 00 60 20 0f 00 00 00 00 00 00

00:01.0 PCI bridge: Intel Corp. 440BX/ZX/DX - 82443BX/ZX/DX AGP bridge 
(rev 03) (prog-if 00 [Normal decode])
	Control: I/O+ Mem+ BusMaster+ SpecCycle+ MemWINV+ VGASnoop- ParErr- 
Stepping- SERR- FastB2B-
	Status: Cap- 66Mhz+ UDF- FastB2B- ParErr- DEVSEL=medium >TAbort- 
<TAbort- <MAbort- >SERR- <PERR-
	Latency: 128
	Bus: primary=00, secondary=01, subordinate=01, sec-latency=64
	Memory behind bridge: f0000000-f7ffffff
	BridgeCtl: Parity- SERR- NoISA+ VGA+ MAbort- >Reset- FastB2B+
00: 86 80 91 71 1f 00 20 02 03 00 04 06 00 80 01 00
10: 00 00 00 00 00 00 00 00 00 01 01 40 f0 00 a0 22
20: 00 f0 f0 f7 f0 ff 00 00 00 00 00 00 00 00 00 00
30: 00 00 00 00 00 00 00 00 00 00 00 00 00 00 8c 00
40: 00 00 00 00 00 00 00 00 00 00 00 00 00 00 00 00
50: 00 00 00 00 00 00 00 00 00 00 00 00 00 00 00 00
60: 00 00 00 00 00 00 00 00 00 00 00 00 00 00 00 00
70: 00 00 00 00 00 00 00 00 00 00 00 00 00 00 00 00
80: 00 00 00 00 00 00 00 00 00 00 00 00 00 00 00 00
90: 00 00 00 00 00 00 00 00 00 00 00 00 00 00 00 00
a0: 00 00 00 00 00 00 00 00 00 00 00 00 00 00 00 00
b0: 00 00 00 00 00 00 00 00 00 00 00 00 00 00 00 00
c0: 00 00 00 00 00 00 00 00 00 00 00 00 00 00 00 00
d0: 00 00 00 00 00 00 00 00 00 00 00 00 00 00 00 00
e0: 00 00 00 00 00 00 00 00 00 00 00 00 00 00 00 00
f0: 00 00 00 00 00 00 00 00 00 00 00 00 00 00 00 00

00:02.0 CardBus bridge: Texas Instruments PCI1450 (rev 03)
	Subsystem: IBM: Unknown device 0130
	Control: I/O+ Mem+ BusMaster+ SpecCycle- MemWINV- VGASnoop- ParErr- 
Stepping- SERR- FastB2B-
	Status: Cap+ 66Mhz- UDF- FastB2B- ParErr- DEVSEL=medium >TAbort- 
<TAbort- <MAbort- >SERR- <PERR-
	Latency: 168, cache line size 08
	Interrupt: pin A routed to IRQ 11
	Region 0: Memory at 50000000 (32-bit, non-prefetchable) [size=4K]
	Bus: primary=00, secondary=02, subordinate=04, sec-latency=176
	Memory window 0: 10000000-103ff000 (prefetchable)
	Memory window 1: 10400000-107ff000
	I/O window 0: 00004000-000040ff
	I/O window 1: 00004400-000044ff
	BridgeCtl: Parity- SERR- ISA- VGA- MAbort- >Reset+ 16bInt+ PostWrite+
	16-bit legacy interface ports at 0001
00: 4c 10 1b ac 07 00 10 02 03 00 07 06 08 a8 82 00
10: 00 00 00 50 a0 00 00 02 00 02 04 b0 00 00 00 10
20: 00 f0 3f 10 00 00 40 10 00 f0 7f 10 00 40 00 00
30: fc 40 00 00 00 44 00 00 fc 44 00 00 0b 01 c0 05
40: 14 10 30 01 01 00 00 00 00 00 00 00 00 00 00 00
50: 00 00 00 00 00 00 00 00 00 00 00 00 00 00 00 00
60: 00 00 00 00 00 00 00 00 00 00 00 00 00 00 00 00
70: 00 00 00 00 00 00 00 00 00 00 00 00 00 00 00 00
80: 78 d0 44 08 00 00 00 00 80 80 01 80 00 10 00 00
90: c0 82 66 40 00 00 00 00 00 00 00 00 00 00 00 00
a0: 01 00 11 fe 00 00 c0 00 00 00 00 00 00 00 00 00
b0: 00 00 00 00 00 00 00 00 00 00 00 00 00 00 00 00
c0: 00 00 00 00 00 00 00 00 00 00 00 00 00 00 00 00
d0: 00 00 00 00 00 00 00 00 00 00 00 00 00 00 00 00
e0: 00 00 00 00 00 00 00 00 00 00 00 00 00 00 00 00
f0: 00 00 00 00 00 00 00 00 00 00 00 00 00 00 00 00

00:02.1 CardBus bridge: Texas Instruments PCI1450 (rev 03)
	Subsystem: IBM: Unknown device 0130
	Control: I/O+ Mem+ BusMaster+ SpecCycle- MemWINV- VGASnoop- ParErr- 
Stepping- SERR- FastB2B-
	Status: Cap+ 66Mhz- UDF- FastB2B- ParErr- DEVSEL=medium >TAbort- 
<TAbort- <MAbort- >SERR- <PERR-
	Latency: 168, cache line size 08
	Interrupt: pin B routed to IRQ 11
	Region 0: Memory at 50100000 (32-bit, non-prefetchable) [size=4K]
	Bus: primary=00, secondary=05, subordinate=07, sec-latency=176
	Memory window 0: 10800000-10bff000 (prefetchable)
	Memory window 1: 10c00000-10fff000
	I/O window 0: 00004800-000048ff
	I/O window 1: 00004c00-00004cff
	BridgeCtl: Parity- SERR- ISA- VGA- MAbort- >Reset+ 16bInt+ PostWrite+
	16-bit legacy interface ports at 0001
00: 4c 10 1b ac 07 00 10 02 03 00 07 06 08 a8 82 00
10: 00 00 10 50 a0 00 00 02 00 05 07 b0 00 00 80 10
20: 00 f0 bf 10 00 00 c0 10 00 f0 ff 10 00 48 00 00
30: fc 48 00 00 00 4c 00 00 fc 4c 00 00 0b 02 c0 05
40: 14 10 30 01 01 00 00 00 00 00 00 00 00 00 00 00
50: 00 00 00 00 00 00 00 00 00 00 00 00 00 00 00 00
60: 00 00 00 00 00 00 00 00 00 00 00 00 00 00 00 00
70: 00 00 00 00 00 00 00 00 00 00 00 00 00 00 00 00
80: 78 d0 44 08 00 00 00 00 80 80 01 80 00 10 00 00
90: c0 82 66 40 00 00 00 00 00 00 00 00 00 00 00 00
a0: 01 00 11 fe 00 00 c0 00 00 00 00 00 00 00 00 00
b0: 00 00 00 00 00 00 00 00 00 00 00 00 00 00 00 00
c0: 00 00 00 00 00 00 00 00 00 00 00 00 00 00 00 00
d0: 00 00 00 00 00 00 00 00 00 00 00 00 00 00 00 00
e0: 00 00 00 00 00 00 00 00 00 00 00 00 00 00 00 00
f0: 00 00 00 00 00 00 00 00 00 00 00 00 00 00 00 00

00:03.0 Ethernet controller: 3Com Corporation 3c556B Hurricane CardBus 
(rev 20)
	Subsystem: 3Com Corporation: Unknown device 6356
	Control: I/O+ Mem+ BusMaster+ SpecCycle- MemWINV+ VGASnoop- ParErr- 
Stepping- SERR- FastB2B-
	Status: Cap+ 66Mhz- UDF- FastB2B- ParErr- DEVSEL=medium >TAbort- 
<TAbort- <MAbort- >SERR- <PERR-
	Latency: 80 (2500ns min, 2500ns max), cache line size 08
	Interrupt: pin A routed to IRQ 11
	Region 0: I/O ports at 1800 [size=256]
	Region 1: Memory at e8101400 (32-bit, non-prefetchable) [size=128]
	Region 2: Memory at e8101000 (32-bit, non-prefetchable) [size=128]
	Expansion ROM at <unassigned> [disabled] [size=128K]
	Capabilities: [50] Power Management version 2
		Flags: PMEClk- DSI- D1+ D2+ AuxCurrent=0mA PME(D0+,D1+,D2+,D3hot+,D3cold+)
		Status: D0 PME-Enable- DSel=0 DScale=2 PME-
00: b7 10 56 60 17 00 10 02 20 00 00 02 08 50 80 00
10: 01 18 00 00 00 14 10 e8 00 10 10 e8 00 00 00 00
20: 00 00 00 00 00 00 00 00 00 00 00 00 b7 10 56 63
30: 00 00 00 00 50 00 00 00 00 00 00 00 0b 01 0a 0a
40: 00 00 00 00 40 00 00 00 00 00 00 00 00 00 00 00
50: 01 00 02 fe 00 40 00 29 00 00 00 00 00 00 00 00
60: 00 00 46 86 49 a5 56 60 61 00 09 00 00 00 50 6d
70: 70 29 09 00 00 00 46 86 49 a5 10 00 00 00 aa 00
80: a6 32 00 00 00 00 00 00 00 00 00 00 29 04 30 00
90: 00 00 00 00 02 00 00 00 00 00 00 00 00 00 00 00
a0: 00 00 00 00 00 00 00 00 00 00 00 00 00 00 00 00
b0: 00 00 00 00 00 00 00 00 00 00 00 00 00 00 00 00
c0: 00 00 00 00 00 00 00 00 00 00 00 00 00 00 00 00
d0: 00 00 00 00 00 00 00 00 00 00 00 00 00 00 00 00
e0: 00 00 00 00 00 00 00 00 00 00 00 00 00 00 00 00
f0: 00 00 00 00 00 00 00 00 00 00 00 00 00 00 00 00

00:03.1 Communication controller: 3Com Corporation Mini PCI 56k Winmodem 
(rev 20)
	Subsystem: 3Com Corporation: Unknown device 6159
	Control: I/O+ Mem+ BusMaster- SpecCycle- MemWINV+ VGASnoop- ParErr- 
Stepping- SERR- FastB2B-
	Status: Cap+ 66Mhz- UDF- FastB2B- ParErr- DEVSEL=medium >TAbort- 
<TAbort- <MAbort- >SERR- <PERR-
	Interrupt: pin A routed to IRQ 11
	Region 0: I/O ports at 2000 [size=256]
	Region 1: Memory at e8101c00 (32-bit, non-prefetchable) [size=256]
	Region 2: Memory at e8101800 (32-bit, non-prefetchable) [size=128]
	Capabilities: [50] Power Management version 2
		Flags: PMEClk- DSI- D1- D2+ AuxCurrent=0mA PME(D0+,D1-,D2+,D3hot+,D3cold+)
		Status: D0 PME-Enable- DSel=0 DScale=2 PME-
00: b7 10 07 10 13 00 10 02 20 00 80 07 08 50 00 00
10: 01 20 00 00 00 1c 10 e8 00 18 10 e8 00 00 00 00
20: 00 00 00 00 00 00 00 00 00 00 00 00 b7 10 59 61
30: 00 00 00 00 50 00 00 00 00 00 00 00 0b 01 0a 0a
40: 00 00 00 00 00 00 00 00 00 00 00 00 00 00 00 00
50: 01 00 12 ec 00 40 00 08 00 00 00 00 00 00 00 00
60: 00 00 00 00 00 00 00 00 00 00 00 00 00 00 00 00
70: 00 00 00 00 00 00 00 00 00 00 00 00 00 00 00 00
80: 00 00 00 00 00 00 00 00 00 00 00 00 00 00 00 00
90: 00 00 00 00 00 00 00 00 00 00 00 00 00 00 00 00
a0: 00 00 00 00 00 00 00 00 00 00 00 00 00 00 00 00
b0: 00 00 00 00 00 00 00 00 00 00 00 00 00 00 00 00
c0: 00 00 00 00 00 00 00 00 00 00 00 00 00 00 00 00
d0: 00 00 00 00 00 00 00 00 00 00 00 00 00 00 00 00
e0: 00 00 00 00 00 00 00 00 00 00 00 00 00 00 00 00
f0: 00 00 00 00 00 00 00 00 00 00 00 00 00 00 00 00

00:05.0 Multimedia audio controller: Cirrus Logic CS 4614/22/24 
[CrystalClear SoundFusion Audio Accelerator] (rev 01)
	Subsystem: IBM: Unknown device 0153
	Control: I/O- Mem+ BusMaster+ SpecCycle- MemWINV- VGASnoop- ParErr- 
Stepping- SERR- FastB2B-
	Status: Cap+ 66Mhz- UDF- FastB2B- ParErr- DEVSEL=slow >TAbort- <TAbort- 
<MAbort- >SERR- <PERR-
	Latency: 64 (1000ns min, 6000ns max)
	Interrupt: pin A routed to IRQ 11
	Region 0: Memory at e8100000 (32-bit, non-prefetchable) [size=4K]
	Region 1: Memory at e8000000 (32-bit, non-prefetchable) [size=1M]
	Capabilities: [40] Power Management version 2
		Flags: PMEClk- DSI+ D1+ D2+ AuxCurrent=0mA PME(D0-,D1-,D2-,D3hot-,D3cold-)
		Status: D0 PME-Enable- DSel=0 DScale=0 PME-
00: 13 10 03 60 06 00 10 04 01 00 01 04 00 40 00 00
10: 00 00 10 e8 00 00 00 e8 00 00 00 00 00 00 00 00
20: 00 00 00 00 00 00 00 00 00 00 00 00 14 10 53 01
30: 00 00 00 00 40 00 00 00 00 00 00 00 0b 01 04 18
40: 01 00 22 06 00 00 00 00 00 00 00 00 00 00 00 00
50: 00 00 00 00 00 00 00 00 00 00 00 00 00 00 00 00
60: 00 00 00 00 00 00 00 00 00 00 00 00 00 00 00 00
70: 00 00 00 00 00 00 00 00 00 00 00 00 00 00 00 00
80: 00 00 00 00 00 00 00 00 00 00 00 00 00 00 00 00
90: 00 00 00 00 00 00 00 00 00 00 00 00 00 00 00 00
a0: 00 00 00 00 00 00 00 00 00 00 00 00 00 00 00 00
b0: 00 00 00 00 00 00 00 00 00 00 00 00 00 00 00 00
c0: 00 00 00 00 00 00 00 00 00 00 00 00 00 00 00 00
d0: 00 00 00 00 00 00 00 00 00 00 00 00 00 00 00 00
e0: 00 00 00 00 00 00 00 00 00 00 00 00 00 00 00 00
f0: 00 00 00 00 00 00 00 00 00 00 00 00 00 00 00 00

00:07.0 Bridge: Intel Corp. 82371AB/EB/MB PIIX4 ISA (rev 02)
	Control: I/O+ Mem+ BusMaster+ SpecCycle+ MemWINV- VGASnoop- ParErr- 
Stepping- SERR- FastB2B-
	Status: Cap- 66Mhz- UDF- FastB2B+ ParErr- DEVSEL=medium >TAbort- 
<TAbort- <MAbort- >SERR- <PERR-
	Latency: 0
00: 86 80 10 71 0f 00 80 02 02 00 80 06 00 00 80 00
10: 00 00 00 00 00 00 00 00 00 00 00 00 00 00 00 00
20: 00 00 00 00 00 00 00 00 00 00 00 00 00 00 00 00
30: 00 00 00 00 00 00 00 00 00 00 00 00 00 00 00 00
40: 00 00 00 00 00 00 00 00 00 00 00 00 4d 00 f3 04
50: 00 00 00 00 00 00 00 00 00 00 00 00 00 00 00 00
60: 0b 0b 0b 0b 92 00 00 00 00 f2 00 00 00 00 00 00
70: 00 00 00 00 00 00 0c 0c 00 00 00 00 00 00 00 00
80: 00 00 03 00 00 00 00 00 00 00 00 00 00 00 00 00
90: 00 00 00 00 00 00 00 00 00 00 00 00 00 00 00 00
a0: 00 00 00 00 00 00 00 00 00 00 00 00 00 00 00 00
b0: 07 81 11 10 00 00 00 00 00 00 00 00 00 00 00 00
c0: 00 00 00 00 00 00 00 00 00 00 00 25 00 00 00 00
d0: 00 00 00 00 00 00 00 00 00 00 00 00 00 00 00 00
e0: 00 00 00 00 00 00 00 00 00 00 00 00 00 00 00 00
f0: 00 00 00 00 00 00 00 00 30 0f 00 00 00 00 00 00

00:07.1 IDE interface: Intel Corp. 82371AB/EB/MB PIIX4 IDE (rev 01) 
(prog-if 80 [Master])
	Control: I/O+ Mem- BusMaster+ SpecCycle- MemWINV- VGASnoop- ParErr- 
Stepping- SERR- FastB2B-
	Status: Cap- 66Mhz- UDF- FastB2B+ ParErr- DEVSEL=medium >TAbort- 
<TAbort- <MAbort- >SERR- <PERR-
	Latency: 64
	Region 4: I/O ports at 1c00 [size=16]
00: 86 80 11 71 05 00 80 02 01 80 01 01 00 40 00 00
10: 00 00 00 00 00 00 00 00 00 00 00 00 00 00 00 00
20: 01 1c 00 00 00 00 00 00 00 00 00 00 00 00 00 00
30: 00 00 00 00 00 00 00 00 00 00 00 00 00 00 00 00
40: 07 a3 07 a3 00 00 00 00 05 00 02 02 00 00 00 00
50: 00 00 00 00 00 00 00 00 00 00 00 00 00 00 00 00
60: 00 00 00 00 00 00 00 00 00 00 00 00 00 00 00 00
70: 00 00 00 00 00 00 00 00 00 00 00 00 00 00 00 00
80: 00 00 00 00 00 00 00 00 00 00 00 00 00 00 00 00
90: 00 00 00 00 00 00 00 00 00 00 00 00 00 00 00 00
a0: 00 00 00 00 00 00 00 00 00 00 00 00 00 00 00 00
b0: 00 00 00 00 00 00 00 00 00 00 00 00 00 00 00 00
c0: 00 00 00 00 00 00 00 00 00 00 00 00 00 00 00 00
d0: 00 00 00 00 00 00 00 00 00 00 00 00 00 00 00 00
e0: 00 00 00 00 00 00 00 00 00 00 00 00 00 00 00 00
f0: 00 00 00 00 00 00 00 00 30 0f 00 00 00 00 00 00

00:07.2 USB Controller: Intel Corp. 82371AB/EB/MB PIIX4 USB (rev 01) 
(prog-if 00 [UHCI])
	Control: I/O+ Mem- BusMaster+ SpecCycle- MemWINV- VGASnoop- ParErr- 
Stepping- SERR- FastB2B-
	Status: Cap- 66Mhz- UDF- FastB2B+ ParErr- DEVSEL=medium >TAbort- 
<TAbort- <MAbort- >SERR- <PERR-
	Latency: 64
	Interrupt: pin D routed to IRQ 11
	Region 4: I/O ports at 1c20 [size=32]
00: 86 80 12 71 05 00 80 02 01 00 03 0c 00 40 00 00
10: 00 00 00 00 00 00 00 00 00 00 00 00 00 00 00 00
20: 21 1c 00 00 00 00 00 00 00 00 00 00 00 00 00 00
30: 00 00 00 00 00 00 00 00 00 00 00 00 0b 04 00 00
40: 00 00 00 00 00 00 00 00 00 00 00 00 00 00 00 00
50: 00 00 00 00 00 00 00 00 00 00 00 00 00 00 00 00
60: 10 00 00 00 00 00 00 00 00 00 00 00 00 00 00 00
70: 00 00 00 00 00 00 00 00 00 00 00 00 00 00 00 00
80: 00 00 00 00 00 00 00 00 00 00 00 00 00 00 00 00
90: 00 00 00 00 00 00 00 00 00 00 00 00 00 00 00 00
a0: 00 00 00 00 00 00 00 00 00 00 00 00 00 00 00 00
b0: 00 00 00 00 00 00 00 00 00 00 00 00 00 00 00 00
c0: 00 20 00 00 00 00 00 00 00 00 00 00 00 00 00 00
d0: 00 00 00 00 00 00 00 00 00 00 00 00 00 00 00 00
e0: 00 00 00 00 00 00 00 00 00 00 00 00 00 00 00 00
f0: 00 00 00 00 00 00 00 00 30 0f 00 00 00 00 00 00

00:07.3 Bridge: Intel Corp. 82371AB/EB/MB PIIX4 ACPI (rev 03)
	Control: I/O+ Mem+ BusMaster- SpecCycle- MemWINV- VGASnoop- ParErr- 
Stepping- SERR- FastB2B-
	Status: Cap- 66Mhz- UDF- FastB2B+ ParErr- DEVSEL=medium >TAbort- 
<TAbort- <MAbort- >SERR- <PERR-
	Interrupt: pin ? routed to IRQ 9
00: 86 80 13 71 03 00 80 02 03 00 80 06 00 00 00 00
10: 00 00 00 00 00 00 00 00 00 00 00 00 00 00 00 00
20: 00 00 00 00 00 00 00 00 00 00 00 00 00 00 00 00
30: 00 00 00 00 00 00 00 00 00 00 00 00 00 00 00 00
40: 01 10 00 00 0f ff bf 10 e1 30 00 00 80 00 10 00
50: 03 50 1d 00 e0 c9 7f 06 37 80 00 02 00 00 00 80
60: 00 00 00 60 e8 15 e7 00 00 00 00 00 00 00 00 00
70: 00 00 00 00 00 00 00 00 f0 03 17 00 2e 00 11 00
80: 01 00 00 00 00 00 00 00 00 00 00 00 00 00 00 00
90: 41 10 00 00 00 00 00 00 00 00 00 00 00 00 00 00
a0: 00 00 00 00 00 00 00 00 00 00 00 00 00 00 00 00
b0: 00 00 00 00 00 00 00 00 00 00 00 00 00 00 00 00
c0: 00 00 00 00 00 00 00 00 00 00 00 00 00 00 00 00
d0: 00 00 01 00 00 00 00 00 00 00 00 00 00 00 00 00
e0: 00 00 00 00 00 00 00 00 00 00 00 00 00 00 00 00
f0: 00 00 00 00 00 00 00 00 30 0f 00 00 00 00 00 00

01:00.0 VGA compatible controller: S3 Inc. 86C270-294 Savage/IX-MV (rev 
11) (prog-if 00 [VGA])
	Subsystem: IBM ThinkPad T20
	Control: I/O+ Mem+ BusMaster+ SpecCycle- MemWINV- VGASnoop- ParErr- 
Stepping- SERR- FastB2B-
	Status: Cap+ 66Mhz+ UDF- FastB2B- ParErr- DEVSEL=medium >TAbort- 
<TAbort- <MAbort- >SERR- <PERR-
	Latency: 64 (1000ns min, 63750ns max), cache line size 08
	Interrupt: pin A routed to IRQ 11
	Region 0: Memory at f0000000 (32-bit, non-prefetchable) [size=128M]
	Expansion ROM at <unassigned> [disabled] [size=64K]
	Capabilities: [dc] Power Management version 1
		Flags: PMEClk- DSI+ D1+ D2+ AuxCurrent=0mA PME(D0-,D1-,D2-,D3hot-,D3cold-)
		Status: D0 PME-Enable- DSel=0 DScale=0 PME-
	Capabilities: [80] AGP version 1.0
		Status: RQ=32 Iso- ArqSz=0 Cal=0 SBA+ ITACoh- GART64- HTrans- 64bit- 
FW- AGP3- Rate=x1,x2
		Command: RQ=1 ArqSz=0 Cal=0 SBA- AGP- GART64- 64bit- FW- Rate=<none>
00: 33 53 12 8c 07 00 30 02 11 00 00 03 08 40 00 00
10: 00 00 00 f0 00 00 00 00 00 00 00 00 00 00 00 00
20: 00 00 00 00 00 00 00 00 00 00 00 00 14 10 7f 01
30: 00 00 00 00 dc 00 00 00 00 00 00 00 0b 01 04 ff
40: 03 00 00 00 00 00 00 00 00 00 00 00 00 00 00 00
50: 00 00 00 00 00 00 00 00 00 00 00 00 00 00 00 00
60: 00 00 00 00 00 00 00 00 00 00 00 00 00 00 00 00
70: 00 00 00 00 00 00 00 00 00 00 00 00 00 00 00 00
80: 02 00 10 00 03 02 00 1f 00 00 00 00 40 02 00 00
90: 00 00 00 00 00 00 00 00 00 00 00 00 00 00 00 00
a0: 00 00 00 00 00 00 00 00 00 00 00 00 00 00 00 00
b0: 00 00 00 00 00 00 00 00 00 00 00 00 00 00 00 00
c0: 00 00 00 00 00 00 00 00 00 00 00 00 00 00 00 00
d0: 00 00 00 00 00 00 00 00 00 00 00 00 01 80 21 06
e0: 00 00 00 00 00 00 00 00 00 00 00 00 00 00 00 00
f0: 00 00 00 00 00 00 00 00 00 00 00 00 00 00 00 00


********************************************************************
WITH NO YENTA KERNEL 2.4.20
********************************************************************
00:00.0 Host bridge: Intel Corp. 440BX/ZX/DX - 82443BX/ZX/DX Host bridge 
(rev 03)
	Control: I/O- Mem+ BusMaster+ SpecCycle- MemWINV- VGASnoop- ParErr- 
Stepping- SERR+ FastB2B-
	Status: Cap+ 66Mhz- UDF- FastB2B- ParErr- DEVSEL=medium >TAbort- 
<TAbort- <MAbort+ >SERR- <PERR-
	Latency: 64
	Region 0: Memory at f8000000 (32-bit, prefetchable) [size=64M]
	Capabilities: [a0] AGP version 1.0
		Status: RQ=32 Iso- ArqSz=0 Cal=0 SBA+ ITACoh- GART64- HTrans- 64bit- 
FW- AGP3- Rate=x1,x2
		Command: RQ=1 ArqSz=0 Cal=0 SBA- AGP- GART64- 64bit- FW- Rate=<none>
00: 86 80 90 71 06 01 10 22 03 00 00 06 00 40 00 00
10: 08 00 00 f8 00 00 00 00 00 00 00 00 00 00 00 00
20: 00 00 00 00 00 00 00 00 00 00 00 00 00 00 00 00
30: 00 00 00 00 a0 00 00 00 00 00 00 00 00 00 00 00
40: 00 00 00 00 00 00 00 00 00 00 00 00 00 00 00 00
50: 0c 82 00 ff 00 00 00 09 03 10 11 11 00 00 11 11
60: 08 10 10 18 20 20 20 20 00 00 00 00 00 aa 00 00
70: 20 1f 0a 38 45 01 03 01 27 1b 9c 00 10 00 00 00
80: 00 00 00 00 00 00 00 00 00 00 00 00 00 00 00 00
90: 00 00 00 00 04 61 00 00 00 05 00 00 00 00 00 00
a0: 02 00 10 00 03 02 00 1f 00 00 00 00 00 00 00 00
b0: 80 20 00 00 30 00 00 00 00 00 35 01 20 10 00 00
c0: 00 00 00 00 00 00 00 00 18 0c 83 cd 78 00 00 00
d0: 00 00 00 00 00 00 00 00 0c 00 00 00 00 00 00 00
e0: 4c ad ff bb 8a 3e 00 80 2c d3 f7 cf 9d 3e 00 00
f0: 40 01 00 00 00 f8 00 60 20 0f 00 00 00 00 00 00

00:01.0 PCI bridge: Intel Corp. 440BX/ZX/DX - 82443BX/ZX/DX AGP bridge 
(rev 03) (prog-if 00 [Normal decode])
	Control: I/O+ Mem+ BusMaster+ SpecCycle+ MemWINV+ VGASnoop- ParErr- 
Stepping- SERR- FastB2B-
	Status: Cap- 66Mhz+ UDF- FastB2B- ParErr- DEVSEL=medium >TAbort- 
<TAbort- <MAbort- >SERR- <PERR-
	Latency: 128
	Bus: primary=00, secondary=01, subordinate=01, sec-latency=64
	Memory behind bridge: f0000000-f7ffffff
	BridgeCtl: Parity- SERR- NoISA+ VGA+ MAbort- >Reset- FastB2B+
00: 86 80 91 71 1f 00 20 02 03 00 04 06 00 80 01 00
10: 00 00 00 00 00 00 00 00 00 01 01 40 f0 00 a0 22
20: 00 f0 f0 f7 f0 ff 00 00 00 00 00 00 00 00 00 00
30: 00 00 00 00 00 00 00 00 00 00 00 00 00 00 8c 00
40: 00 00 00 00 00 00 00 00 00 00 00 00 00 00 00 00
50: 00 00 00 00 00 00 00 00 00 00 00 00 00 00 00 00
60: 00 00 00 00 00 00 00 00 00 00 00 00 00 00 00 00
70: 00 00 00 00 00 00 00 00 00 00 00 00 00 00 00 00
80: 00 00 00 00 00 00 00 00 00 00 00 00 00 00 00 00
90: 00 00 00 00 00 00 00 00 00 00 00 00 00 00 00 00
a0: 00 00 00 00 00 00 00 00 00 00 00 00 00 00 00 00
b0: 00 00 00 00 00 00 00 00 00 00 00 00 00 00 00 00
c0: 00 00 00 00 00 00 00 00 00 00 00 00 00 00 00 00
d0: 00 00 00 00 00 00 00 00 00 00 00 00 00 00 00 00
e0: 00 00 00 00 00 00 00 00 00 00 00 00 00 00 00 00
f0: 00 00 00 00 00 00 00 00 00 00 00 00 00 00 00 00

00:02.0 CardBus bridge: Texas Instruments PCI1450 (rev 03)
	Subsystem: IBM: Unknown device 0130
	Control: I/O+ Mem+ BusMaster+ SpecCycle- MemWINV- VGASnoop- ParErr- 
Stepping- SERR- FastB2B-
	Status: Cap+ 66Mhz- UDF- FastB2B- ParErr- DEVSEL=medium >TAbort- 
<TAbort- <MAbort- >SERR- <PERR-
	Latency: 168, cache line size 08
	Interrupt: pin A routed to IRQ 11
	Region 0: Memory at 50000000 (32-bit, non-prefetchable) [size=4K]
	Bus: primary=00, secondary=02, subordinate=04, sec-latency=176
	Memory window 0: 10000000-103ff000 (prefetchable)
	Memory window 1: 10400000-107ff000
	I/O window 0: 00004000-000040ff
	I/O window 1: 00004400-000044ff
	BridgeCtl: Parity- SERR- ISA- VGA- MAbort- >Reset+ 16bInt+ PostWrite+
	16-bit legacy interface ports at 0001
00: 4c 10 1b ac 07 00 10 02 03 00 07 06 08 a8 82 00
10: 00 00 00 50 a0 00 00 02 00 02 04 b0 00 00 00 10
20: 00 f0 3f 10 00 00 40 10 00 f0 7f 10 00 40 00 00
30: fc 40 00 00 00 44 00 00 fc 44 00 00 0b 01 c0 05
40: 14 10 30 01 01 00 00 00 00 00 00 00 00 00 00 00
50: 00 00 00 00 00 00 00 00 00 00 00 00 00 00 00 00
60: 00 00 00 00 00 00 00 00 00 00 00 00 00 00 00 00
70: 00 00 00 00 00 00 00 00 00 00 00 00 00 00 00 00
80: 78 d0 44 08 80 00 00 00 80 80 01 80 00 10 00 00
90: c0 82 66 40 00 00 00 00 00 00 00 00 00 00 00 00
a0: 01 00 11 fe 00 00 c0 00 00 00 00 00 00 00 00 00
b0: 00 00 00 00 00 00 00 00 00 00 00 00 00 00 00 00
c0: 00 00 00 00 00 00 00 00 00 00 00 00 00 00 00 00
d0: 00 00 00 00 00 00 00 00 00 00 00 00 00 00 00 00
e0: 00 00 00 00 00 00 00 00 00 00 00 00 00 00 00 00
f0: 00 00 00 00 00 00 00 00 00 00 00 00 00 00 00 00

00:02.1 CardBus bridge: Texas Instruments PCI1450 (rev 03)
	Subsystem: IBM: Unknown device 0130
	Control: I/O+ Mem+ BusMaster+ SpecCycle- MemWINV- VGASnoop- ParErr- 
Stepping- SERR- FastB2B-
	Status: Cap+ 66Mhz- UDF- FastB2B- ParErr- DEVSEL=medium >TAbort- 
<TAbort- <MAbort- >SERR- <PERR-
	Latency: 168, cache line size 08
	Interrupt: pin B routed to IRQ 11
	Region 0: Memory at 50100000 (32-bit, non-prefetchable) [size=4K]
	Bus: primary=00, secondary=05, subordinate=07, sec-latency=176
	Memory window 0: 10800000-10bff000 (prefetchable)
	Memory window 1: 10c00000-10fff000
	I/O window 0: 00004800-000048ff
	I/O window 1: 00004c00-00004cff
	BridgeCtl: Parity- SERR- ISA- VGA- MAbort- >Reset+ 16bInt+ PostWrite+
	16-bit legacy interface ports at 0001
00: 4c 10 1b ac 07 00 10 02 03 00 07 06 08 a8 82 00
10: 00 00 10 50 a0 00 00 02 00 05 07 b0 00 00 80 10
20: 00 f0 bf 10 00 00 c0 10 00 f0 ff 10 00 48 00 00
30: fc 48 00 00 00 4c 00 00 fc 4c 00 00 0b 02 c0 05
40: 14 10 30 01 01 00 00 00 00 00 00 00 00 00 00 00
50: 00 00 00 00 00 00 00 00 00 00 00 00 00 00 00 00
60: 00 00 00 00 00 00 00 00 00 00 00 00 00 00 00 00
70: 00 00 00 00 00 00 00 00 00 00 00 00 00 00 00 00
80: 78 d0 44 08 80 00 00 00 80 80 01 80 00 10 00 00
90: c0 82 66 40 00 00 00 00 00 00 00 00 00 00 00 00
a0: 01 00 11 fe 00 00 c0 00 00 00 00 00 00 00 00 00
b0: 00 00 00 00 00 00 00 00 00 00 00 00 00 00 00 00
c0: 00 00 00 00 00 00 00 00 00 00 00 00 00 00 00 00
d0: 00 00 00 00 00 00 00 00 00 00 00 00 00 00 00 00
e0: 00 00 00 00 00 00 00 00 00 00 00 00 00 00 00 00
f0: 00 00 00 00 00 00 00 00 00 00 00 00 00 00 00 00

00:03.0 Ethernet controller: 3Com Corporation 3c556B Hurricane CardBus 
(rev 20)
	Subsystem: 3Com Corporation: Unknown device 6356
	Control: I/O+ Mem+ BusMaster+ SpecCycle- MemWINV+ VGASnoop- ParErr- 
Stepping- SERR- FastB2B-
	Status: Cap+ 66Mhz- UDF- FastB2B- ParErr- DEVSEL=medium >TAbort- 
<TAbort- <MAbort- >SERR- <PERR-
	Latency: 80 (2500ns min, 2500ns max), cache line size 08
	Interrupt: pin A routed to IRQ 11
	Region 0: I/O ports at 1800 [size=256]
	Region 1: Memory at e8101400 (32-bit, non-prefetchable) [size=128]
	Region 2: Memory at e8101000 (32-bit, non-prefetchable) [size=128]
	Expansion ROM at <unassigned> [disabled] [size=128K]
	Capabilities: [50] Power Management version 2
		Flags: PMEClk- DSI- D1+ D2+ AuxCurrent=0mA PME(D0+,D1+,D2+,D3hot+,D3cold+)
		Status: D0 PME-Enable- DSel=0 DScale=2 PME-
00: b7 10 56 60 17 00 10 02 20 00 00 02 08 50 80 00
10: 01 18 00 00 00 14 10 e8 00 10 10 e8 00 00 00 00
20: 00 00 00 00 00 00 00 00 00 00 00 00 b7 10 56 63
30: 00 00 00 00 50 00 00 00 00 00 00 00 0b 01 0a 0a
40: 00 00 00 00 40 00 00 00 00 00 00 00 00 00 00 00
50: 01 00 02 fe 00 40 00 29 00 00 00 00 00 00 00 00
60: 00 00 46 86 49 a5 56 60 61 00 09 00 00 00 50 6d
70: 70 29 09 00 00 00 46 86 49 a5 10 00 00 00 aa 00
80: a6 32 00 00 00 00 00 00 00 00 00 00 29 04 30 00
90: 00 00 00 00 02 00 00 00 00 00 00 00 00 00 00 00
a0: 00 00 00 00 00 00 00 00 00 00 00 00 00 00 00 00
b0: 00 00 00 00 00 00 00 00 00 00 00 00 00 00 00 00
c0: 00 00 00 00 00 00 00 00 00 00 00 00 00 00 00 00
d0: 00 00 00 00 00 00 00 00 00 00 00 00 00 00 00 00
e0: 00 00 00 00 00 00 00 00 00 00 00 00 00 00 00 00
f0: 00 00 00 00 00 00 00 00 00 00 00 00 00 00 00 00

00:03.1 Communication controller: 3Com Corporation Mini PCI 56k Winmodem 
(rev 20)
	Subsystem: 3Com Corporation: Unknown device 6159
	Control: I/O+ Mem+ BusMaster- SpecCycle- MemWINV+ VGASnoop- ParErr- 
Stepping- SERR- FastB2B-
	Status: Cap+ 66Mhz- UDF- FastB2B- ParErr- DEVSEL=medium >TAbort- 
<TAbort- <MAbort- >SERR- <PERR-
	Interrupt: pin A routed to IRQ 11
	Region 0: I/O ports at 2000 [size=256]
	Region 1: Memory at e8101c00 (32-bit, non-prefetchable) [size=256]
	Region 2: Memory at e8101800 (32-bit, non-prefetchable) [size=128]
	Capabilities: [50] Power Management version 2
		Flags: PMEClk- DSI- D1- D2+ AuxCurrent=0mA PME(D0+,D1-,D2+,D3hot+,D3cold+)
		Status: D0 PME-Enable- DSel=0 DScale=2 PME-
00: b7 10 07 10 13 00 10 02 20 00 80 07 08 50 00 00
10: 01 20 00 00 00 1c 10 e8 00 18 10 e8 00 00 00 00
20: 00 00 00 00 00 00 00 00 00 00 00 00 b7 10 59 61
30: 00 00 00 00 50 00 00 00 00 00 00 00 0b 01 0a 0a
40: 00 00 00 00 00 00 00 00 00 00 00 00 00 00 00 00
50: 01 00 12 ec 00 40 00 08 00 00 00 00 00 00 00 00
60: 00 00 00 00 00 00 00 00 00 00 00 00 00 00 00 00
70: 00 00 00 00 00 00 00 00 00 00 00 00 00 00 00 00
80: 00 00 00 00 00 00 00 00 00 00 00 00 00 00 00 00
90: 00 00 00 00 00 00 00 00 00 00 00 00 00 00 00 00
a0: 00 00 00 00 00 00 00 00 00 00 00 00 00 00 00 00
b0: 00 00 00 00 00 00 00 00 00 00 00 00 00 00 00 00
c0: 00 00 00 00 00 00 00 00 00 00 00 00 00 00 00 00
d0: 00 00 00 00 00 00 00 00 00 00 00 00 00 00 00 00
e0: 00 00 00 00 00 00 00 00 00 00 00 00 00 00 00 00
f0: 00 00 00 00 00 00 00 00 00 00 00 00 00 00 00 00

00:05.0 Multimedia audio controller: Cirrus Logic CS 4614/22/24 
[CrystalClear SoundFusion Audio Accelerator] (rev 01)
	Subsystem: IBM: Unknown device 0153
	Control: I/O- Mem+ BusMaster+ SpecCycle- MemWINV- VGASnoop- ParErr- 
Stepping- SERR- FastB2B-
	Status: Cap+ 66Mhz- UDF- FastB2B- ParErr- DEVSEL=slow >TAbort- <TAbort- 
<MAbort- >SERR- <PERR-
	Latency: 64 (1000ns min, 6000ns max)
	Interrupt: pin A routed to IRQ 11
	Region 0: Memory at e8100000 (32-bit, non-prefetchable) [size=4K]
	Region 1: Memory at e8000000 (32-bit, non-prefetchable) [size=1M]
	Capabilities: [40] Power Management version 2
		Flags: PMEClk- DSI+ D1+ D2+ AuxCurrent=0mA PME(D0-,D1-,D2-,D3hot-,D3cold-)
		Status: D0 PME-Enable- DSel=0 DScale=0 PME-
00: 13 10 03 60 06 00 10 04 01 00 01 04 00 40 00 00
10: 00 00 10 e8 00 00 00 e8 00 00 00 00 00 00 00 00
20: 00 00 00 00 00 00 00 00 00 00 00 00 14 10 53 01
30: 00 00 00 00 40 00 00 00 00 00 00 00 0b 01 04 18
40: 01 00 22 06 00 00 00 00 00 00 00 00 00 00 00 00
50: 00 00 00 00 00 00 00 00 00 00 00 00 00 00 00 00
60: 00 00 00 00 00 00 00 00 00 00 00 00 00 00 00 00
70: 00 00 00 00 00 00 00 00 00 00 00 00 00 00 00 00
80: 00 00 00 00 00 00 00 00 00 00 00 00 00 00 00 00
90: 00 00 00 00 00 00 00 00 00 00 00 00 00 00 00 00
a0: 00 00 00 00 00 00 00 00 00 00 00 00 00 00 00 00
b0: 00 00 00 00 00 00 00 00 00 00 00 00 00 00 00 00
c0: 00 00 00 00 00 00 00 00 00 00 00 00 00 00 00 00
d0: 00 00 00 00 00 00 00 00 00 00 00 00 00 00 00 00
e0: 00 00 00 00 00 00 00 00 00 00 00 00 00 00 00 00
f0: 00 00 00 00 00 00 00 00 00 00 00 00 00 00 00 00

00:07.0 Bridge: Intel Corp. 82371AB/EB/MB PIIX4 ISA (rev 02)
	Control: I/O+ Mem+ BusMaster+ SpecCycle+ MemWINV- VGASnoop- ParErr- 
Stepping- SERR- FastB2B-
	Status: Cap- 66Mhz- UDF- FastB2B+ ParErr- DEVSEL=medium >TAbort- 
<TAbort- <MAbort- >SERR- <PERR-
	Latency: 0
00: 86 80 10 71 0f 00 80 02 02 00 80 06 00 00 80 00
10: 00 00 00 00 00 00 00 00 00 00 00 00 00 00 00 00
20: 00 00 00 00 00 00 00 00 00 00 00 00 00 00 00 00
30: 00 00 00 00 00 00 00 00 00 00 00 00 00 00 00 00
40: 00 00 00 00 00 00 00 00 00 00 00 00 4d 00 f3 04
50: 00 00 00 00 00 00 00 00 00 00 00 00 00 00 00 00
60: 0b 0b 0b 0b 92 00 00 00 00 f2 00 00 00 00 00 00
70: 00 00 00 00 00 00 0c 0c 00 00 00 00 00 00 00 00
80: 00 00 03 00 00 00 00 00 00 00 00 00 00 00 00 00
90: 00 00 00 00 00 00 00 00 00 00 00 00 00 00 00 00
a0: 00 00 00 00 00 00 00 00 00 00 00 00 00 00 00 00
b0: 07 81 11 10 00 00 00 00 00 00 00 00 00 00 00 00
c0: 00 00 00 00 00 00 00 00 00 00 00 25 00 00 00 00
d0: 00 00 00 00 00 00 00 00 00 00 00 00 00 00 00 00
e0: 00 00 00 00 00 00 00 00 00 00 00 00 00 00 00 00
f0: 00 00 00 00 00 00 00 00 30 0f 00 00 00 00 00 00

00:07.1 IDE interface: Intel Corp. 82371AB/EB/MB PIIX4 IDE (rev 01) 
(prog-if 80 [Master])
	Control: I/O+ Mem- BusMaster+ SpecCycle- MemWINV- VGASnoop- ParErr- 
Stepping- SERR- FastB2B-
	Status: Cap- 66Mhz- UDF- FastB2B+ ParErr- DEVSEL=medium >TAbort- 
<TAbort- <MAbort- >SERR- <PERR-
	Latency: 64
	Region 4: I/O ports at 1c00 [size=16]
00: 86 80 11 71 05 00 80 02 01 80 01 01 00 40 00 00
10: 00 00 00 00 00 00 00 00 00 00 00 00 00 00 00 00
20: 01 1c 00 00 00 00 00 00 00 00 00 00 00 00 00 00
30: 00 00 00 00 00 00 00 00 00 00 00 00 00 00 00 00
40: 07 a3 07 a3 00 00 00 00 05 00 02 02 00 00 00 00
50: 00 00 00 00 00 00 00 00 00 00 00 00 00 00 00 00
60: 00 00 00 00 00 00 00 00 00 00 00 00 00 00 00 00
70: 00 00 00 00 00 00 00 00 00 00 00 00 00 00 00 00
80: 00 00 00 00 00 00 00 00 00 00 00 00 00 00 00 00
90: 00 00 00 00 00 00 00 00 00 00 00 00 00 00 00 00
a0: 00 00 00 00 00 00 00 00 00 00 00 00 00 00 00 00
b0: 00 00 00 00 00 00 00 00 00 00 00 00 00 00 00 00
c0: 00 00 00 00 00 00 00 00 00 00 00 00 00 00 00 00
d0: 00 00 00 00 00 00 00 00 00 00 00 00 00 00 00 00
e0: 00 00 00 00 00 00 00 00 00 00 00 00 00 00 00 00
f0: 00 00 00 00 00 00 00 00 30 0f 00 00 00 00 00 00

00:07.2 USB Controller: Intel Corp. 82371AB/EB/MB PIIX4 USB (rev 01) 
(prog-if 00 [UHCI])
	Control: I/O+ Mem- BusMaster+ SpecCycle- MemWINV- VGASnoop- ParErr- 
Stepping- SERR- FastB2B-
	Status: Cap- 66Mhz- UDF- FastB2B+ ParErr- DEVSEL=medium >TAbort- 
<TAbort- <MAbort- >SERR- <PERR-
	Latency: 64
	Interrupt: pin D routed to IRQ 11
	Region 4: I/O ports at 1c20 [size=32]
00: 86 80 12 71 05 00 80 02 01 00 03 0c 00 40 00 00
10: 00 00 00 00 00 00 00 00 00 00 00 00 00 00 00 00
20: 21 1c 00 00 00 00 00 00 00 00 00 00 00 00 00 00
30: 00 00 00 00 00 00 00 00 00 00 00 00 0b 04 00 00
40: 00 00 00 00 00 00 00 00 00 00 00 00 00 00 00 00
50: 00 00 00 00 00 00 00 00 00 00 00 00 00 00 00 00
60: 10 00 00 00 00 00 00 00 00 00 00 00 00 00 00 00
70: 00 00 00 00 00 00 00 00 00 00 00 00 00 00 00 00
80: 00 00 00 00 00 00 00 00 00 00 00 00 00 00 00 00
90: 00 00 00 00 00 00 00 00 00 00 00 00 00 00 00 00
a0: 00 00 00 00 00 00 00 00 00 00 00 00 00 00 00 00
b0: 00 00 00 00 00 00 00 00 00 00 00 00 00 00 00 00
c0: 00 20 00 00 00 00 00 00 00 00 00 00 00 00 00 00
d0: 00 00 00 00 00 00 00 00 00 00 00 00 00 00 00 00
e0: 00 00 00 00 00 00 00 00 00 00 00 00 00 00 00 00
f0: 00 00 00 00 00 00 00 00 30 0f 00 00 00 00 00 00

00:07.3 Bridge: Intel Corp. 82371AB/EB/MB PIIX4 ACPI (rev 03)
	Control: I/O+ Mem+ BusMaster- SpecCycle- MemWINV- VGASnoop- ParErr- 
Stepping- SERR- FastB2B-
	Status: Cap- 66Mhz- UDF- FastB2B+ ParErr- DEVSEL=medium >TAbort- 
<TAbort- <MAbort- >SERR- <PERR-
	Interrupt: pin ? routed to IRQ 9
00: 86 80 13 71 03 00 80 02 03 00 80 06 00 00 00 00
10: 00 00 00 00 00 00 00 00 00 00 00 00 00 00 00 00
20: 00 00 00 00 00 00 00 00 00 00 00 00 00 00 00 00
30: 00 00 00 00 00 00 00 00 00 00 00 00 00 00 00 00
40: 01 10 00 00 0f ff bf 10 e1 30 00 00 80 00 10 00
50: 03 50 1d 00 e0 c9 7f 06 37 80 00 02 00 00 00 80
60: 00 00 00 60 e8 15 e7 00 00 00 00 00 00 00 00 00
70: 00 00 00 00 00 00 00 00 f0 03 17 00 2e 00 11 00
80: 01 00 00 00 00 00 00 00 00 00 00 00 00 00 00 00
90: 41 10 00 00 00 00 00 00 00 00 00 00 00 00 00 00
a0: 00 00 00 00 00 00 00 00 00 00 00 00 00 00 00 00
b0: 00 00 00 00 00 00 00 00 00 00 00 00 00 00 00 00
c0: 00 00 00 00 00 00 00 00 00 00 00 00 00 00 00 00
d0: 00 00 01 00 00 00 00 00 00 00 00 00 00 00 00 00
e0: 00 00 00 00 00 00 00 00 00 00 00 00 00 00 00 00
f0: 00 00 00 00 00 00 00 00 30 0f 00 00 00 00 00 00

01:00.0 VGA compatible controller: S3 Inc. 86C270-294 Savage/IX-MV (rev 
11) (prog-if 00 [VGA])
	Subsystem: IBM ThinkPad T20
	Control: I/O+ Mem+ BusMaster+ SpecCycle- MemWINV- VGASnoop- ParErr- 
Stepping- SERR- FastB2B-
	Status: Cap+ 66Mhz+ UDF- FastB2B- ParErr- DEVSEL=medium >TAbort- 
<TAbort- <MAbort- >SERR- <PERR-
	Latency: 64 (1000ns min, 63750ns max), cache line size 08
	Interrupt: pin A routed to IRQ 11
	Region 0: Memory at f0000000 (32-bit, non-prefetchable) [size=128M]
	Expansion ROM at <unassigned> [disabled] [size=64K]
	Capabilities: [dc] Power Management version 1
		Flags: PMEClk- DSI+ D1+ D2+ AuxCurrent=0mA PME(D0-,D1-,D2-,D3hot-,D3cold-)
		Status: D0 PME-Enable- DSel=0 DScale=0 PME-
	Capabilities: [80] AGP version 1.0
		Status: RQ=32 Iso- ArqSz=0 Cal=0 SBA+ ITACoh- GART64- HTrans- 64bit- 
FW- AGP3- Rate=x1,x2
		Command: RQ=1 ArqSz=0 Cal=0 SBA- AGP- GART64- 64bit- FW- Rate=<none>
00: 33 53 12 8c 07 00 30 02 11 00 00 03 08 40 00 00
10: 00 00 00 f0 00 00 00 00 00 00 00 00 00 00 00 00
20: 00 00 00 00 00 00 00 00 00 00 00 00 14 10 7f 01
30: 00 00 00 00 dc 00 00 00 00 00 00 00 0b 01 04 ff
40: 03 00 00 00 00 00 00 00 00 00 00 00 00 00 00 00
50: 00 00 00 00 00 00 00 00 00 00 00 00 00 00 00 00
60: 00 00 00 00 00 00 00 00 00 00 00 00 00 00 00 00
70: 00 00 00 00 00 00 00 00 00 00 00 00 00 00 00 00
80: 02 00 10 00 03 02 00 1f 00 00 00 00 40 02 00 00
90: 00 00 00 00 00 00 00 00 00 00 00 00 00 00 00 00
a0: 00 00 00 00 00 00 00 00 00 00 00 00 00 00 00 00
b0: 00 00 00 00 00 00 00 00 00 00 00 00 00 00 00 00
c0: 00 00 00 00 00 00 00 00 00 00 00 00 00 00 00 00
d0: 00 00 00 00 00 00 00 00 00 00 00 00 01 80 21 06
e0: 00 00 00 00 00 00 00 00 00 00 00 00 00 00 00 00
f0: 00 00 00 00 00 00 00 00 00 00 00 00 00 00 00 00



