Return-Path: <linux-kernel-owner+willy=40w.ods.org@vger.kernel.org>
Received: (majordomo@vger.kernel.org) by vger.kernel.org via listexpand
	id S263591AbTKKQSt (ORCPT <rfc822;willy@w.ods.org>);
	Tue, 11 Nov 2003 11:18:49 -0500
Received: (majordomo@vger.kernel.org) by vger.kernel.org id S263593AbTKKQSt
	(ORCPT <rfc822;linux-kernel-outgoing>);
	Tue, 11 Nov 2003 11:18:49 -0500
Received: from dsl092-073-159.bos1.dsl.speakeasy.net ([66.92.73.159]:31493
	"EHLO yupa.krose.org") by vger.kernel.org with ESMTP
	id S263591AbTKKQRD (ORCPT <rfc822;linux-kernel@vger.kernel.org>);
	Tue, 11 Nov 2003 11:17:03 -0500
To: linux-kernel@vger.kernel.org
X-Home-Page: http://www.krose.org/~krose/
From: Kyle Rose <krose@krose.org>
Organization: krose.org
Subject: Cannot allocate resource region foo of device bar (2/3)
Content-Type: message/partial; id="Tue_Nov_11_11:16:56_2003@nausicaa.krose.org";
 number=2; total=3
Date: Tue, 11 Nov 2003 11:17:00 -0500
Message-ID: <87brri3mo3.fsf@nausicaa.krose.org>
User-Agent: Gnus/5.090024 (Oort Gnus v0.24) XEmacs/21.4 (Reasonable
 Discussion, linux)
MIME-Version: 1.0
Sender: linux-kernel-owner@vger.kernel.org
X-Mailing-List: linux-kernel@vger.kernel.org

b0: 00 00 00 00 00 00 00 00 00 00 00 00 00 00 00 00
c0: 00 00 00 00 00 00 00 00 00 00 00 00 00 00 00 00
d0: 00 00 00 00 00 00 00 00 00 00 00 00 00 00 00 00
e0: 00 00 00 00 00 00 00 00 00 00 00 00 00 00 00 00
f0: 00 00 00 00 00 00 00 00 00 00 00 00 00 00 00 00

03:08.2 USB Controller: NEC Corporation USB 2.0 (rev 02) (prog-if 20 [EHCI])
	Subsystem: AFAVLAB Technology Inc: Unknown device 00e0
	Control: I/O- Mem+ BusMaster+ SpecCycle- MemWINV+ VGASnoop- ParErr- Stepping- SERR+ FastB2B-
	Status: Cap+ 66Mhz- UDF- FastB2B- ParErr- DEVSEL=medium >TAbort- <TAbort- <MAbort- >SERR- <PERR-
	Latency: 64 (4000ns min, 8500ns max), Cache Line Size: 0x10 (64 bytes)
	Interrupt: pin C routed to IRQ 24
	Region 0: Memory at fa5ff400 (32-bit, non-prefetchable) [size=256]
	Capabilities: [40] Power Management version 2
		Flags: PMEClk- DSI- D1+ D2+ AuxCurrent=0mA PME(D0+,D1+,D2+,D3hot+,D3cold-)
		Status: D0 PME-Enable- DSel=0 DScale=0 PME-
00: 33 10 e0 00 16 01 10 02 02 20 03 0c 10 40 00 00
10: 00 f4 5f fa 00 00 00 00 00 00 00 00 00 00 00 00
20: 00 00 00 00 00 00 00 00 00 00 00 00 db 14 e0 00
30: 00 00 00 00 40 00 00 00 00 00 00 00 0b 03 10 22
40: 01 00 02 7e 00 00 00 00 00 00 00 00 00 00 00 00
50: 00 00 00 00 00 00 00 00 00 00 00 00 00 00 00 00
60: 20 20 3f 00 00 00 00 00 00 00 00 00 00 00 00 00
70: 00 00 00 00 00 00 00 00 00 00 00 00 00 00 00 00
80: 00 00 00 00 00 00 00 00 00 00 00 00 00 00 00 00
90: 00 00 00 00 00 00 00 00 00 00 00 00 00 00 00 00
a0: 00 00 00 00 00 00 00 00 00 00 00 00 00 00 00 00
b0: 00 00 00 00 00 00 00 00 00 00 00 00 00 00 00 00
c0: 00 00 00 00 00 00 00 00 00 00 00 00 00 00 00 00
d0: 00 00 00 00 00 00 00 00 00 00 00 00 00 00 00 00
e0: 04 33 30 c4 00 00 00 00 00 00 00 00 00 00 00 00
f0: 00 00 00 00 00 00 00 00 00 00 00 00 00 00 00 00

03:09.0 FireWire (IEEE 1394): VIA Technologies, Inc. IEEE 1394 Host Controller (rev 46) (prog-if 10 [OHCI])
	Subsystem: AFAVLAB Technology Inc: Unknown device 3044
	Control: I/O+ Mem+ BusMaster+ SpecCycle- MemWINV+ VGASnoop- ParErr- Stepping- SERR+ FastB2B-
	Status: Cap+ 66Mhz- UDF- FastB2B- ParErr- DEVSEL=medium >TAbort- <TAbort- <MAbort- >SERR- <PERR-
	Latency: 64 (8000ns max), Cache Line Size: 0x10 (64 bytes)
	Interrupt: pin A routed to IRQ 24
	Region 0: Memory at fa5ff800 (32-bit, non-prefetchable) [size=2K]
	Region 1: I/O ports at 7c00 [size=128]
	Capabilities: [50] Power Management version 2
		Flags: PMEClk- DSI- D1- D2+ AuxCurrent=0mA PME(D0-,D1-,D2+,D3hot+,D3cold+)
		Status: D0 PME-Enable- DSel=0 DScale=0 PME-
00: 06 11 44 30 17 01 10 02 46 10 00 0c 10 40 00 00
10: 00 f8 5f fa 01 7c 00 00 00 00 00 00 00 00 00 00
20: 00 00 00 00 00 00 00 00 00 00 00 00 db 14 44 30
30: 00 00 00 00 50 00 00 00 00 00 00 00 09 01 00 20
40: 00 00 00 00 00 00 00 00 00 00 00 00 00 00 00 00
50: 01 00 02 e4 00 00 00 00 00 00 00 00 00 00 00 00
60: 00 00 00 00 00 00 00 00 00 00 00 00 00 00 00 00
70: 00 00 00 00 00 00 00 00 00 00 00 00 00 00 00 00
80: 00 00 00 00 00 00 00 00 00 00 00 00 00 00 00 00
90: 00 00 00 00 00 00 00 00 00 00 00 00 00 00 00 00
a0: 00 00 00 00 00 00 00 00 00 00 00 00 00 00 00 00
b0: 00 00 00 00 00 00 00 00 00 00 00 00 00 00 00 00
c0: 00 00 00 00 00 00 00 00 00 00 00 00 00 00 00 00
d0: 00 00 00 00 00 00 00 00 00 00 00 00 00 00 00 00
e0: 00 00 00 00 00 00 00 00 00 00 00 00 00 00 00 00
f0: 00 00 00 00 00 00 00 00 00 00 00 00 00 00 00 00

04:00.0 USB Controller: Advanced Micro Devices [AMD] AMD-8111 USB (rev 0b) (prog-if 10 [OHCI])
	Subsystem: Advanced Micro Devices [AMD] AMD-8111 USB
	Control: I/O+ Mem+ BusMaster+ SpecCycle- MemWINV+ VGASnoop- ParErr- Stepping- SERR+ FastB2B-
	Status: Cap- 66Mhz- UDF- FastB2B+ ParErr- DEVSEL=medium >TAbort- <TAbort- <MAbort- >SERR- <PERR-
	Latency: 64 (20000ns max)
	Interrupt: pin D routed to IRQ 19
	Region 0: Memory at fc8fd000 (32-bit, non-prefetchable) [size=4K]
00: 22 10 64 74 17 01 80 02 0b 10 03 0c 00 40 80 00
10: 00 d0 8f fc 00 00 00 00 00 00 00 00 00 00 00 00
20: 00 00 00 00 00 00 00 00 00 00 00 00 22 10 64 74
30: 00 00 00 00 00 00 00 00 00 00 00 00 09 04 00 50
40: 00 00 00 00 00 00 00 00 00 00 00 00 00 00 00 00
50: 00 00 00 00 00 00 00 00 00 00 00 00 00 00 00 00
60: 00 00 00 00 00 00 00 00 00 00 00 00 00 00 00 00
70: 22 10 64 74 00 00 00 00 00 00 00 00 00 00 00 00
80: 00 00 00 00 00 00 00 00 00 00 00 00 00 00 00 00
90: 00 00 00 00 00 00 00 00 00 00 00 00 00 00 00 00
a0: 00 00 00 00 00 00 00 00 00 00 00 00 00 00 00 00
b0: 00 00 00 00 00 00 00 00 00 00 00 00 00 00 00 00
c0: 00 00 00 00 00 00 00 00 00 00 00 00 00 00 00 00
d0: 00 00 00 00 00 00 00 00 00 00 00 00 00 00 00 00
e0: 00 00 00 00 00 00 00 00 00 00 00 00 00 00 00 00
f0: 00 00 00 00 00 00 00 00 00 00 00 00 00 00 00 00

04:00.1 USB Controller: Advanced Micro Devices [AMD] AMD-8111 USB (rev 0b) (prog-if 10 [OHCI])
	Subsystem: Advanced Micro Devices [AMD] AMD-8111 USB
	Control: I/O+ Mem+ BusMaster+ SpecCycle- MemWINV+ VGASnoop- ParErr- Stepping- SERR+ FastB2B-
	Status: Cap- 66Mhz- UDF- FastB2B+ ParErr- DEVSEL=medium >TAbort- <TAbort- <MAbort- >SERR- <PERR-
	Latency: 64 (20000ns max)
	Interrupt: pin D routed to IRQ 19
	Region 0: Memory at fc8fe000 (32-bit, non-prefetchable) [size=4K]
00: 22 10 64 74 17 01 80 02 0b 10 03 0c 00 40 00 00
10: 00 e0 8f fc 00 00 00 00 00 00 00 00 00 00 00 00
20: 00 00 00 00 00 00 00 00 00 00 00 00 22 10 64 74
30: 00 00 00 00 00 00 00 00 00 00 00 00 09 04 00 50
40: 00 00 00 00 00 00 00 00 00 00 00 00 00 00 00 00
50: 00 00 00 00 00 00 00 00 00 00 00 00 00 00 00 00
60: 00 00 00 00 00 00 00 00 00 00 00 00 00 00 00 00
70: 22 10 64 74 00 00 00 00 00 00 00 00 00 00 00 00
80: 00 00 00 00 00 00 00 00 00 00 00 00 00 00 00 00
90: 00 00 00 00 00 00 00 00 00 00 00 00 00 00 00 00
a0: 00 00 00 00 00 00 00 00 00 00 00 00 00 00 00 00
b0: 00 00 00 00 00 00 00 00 00 00 00 00 00 00 00 00
c0: 00 00 00 00 00 00 00 00 00 00 00 00 00 00 00 00
d0: 00 00 00 00 00 00 00 00 00 00 00 00 00 00 00 00
e0: 00 00 00 00 00 00 00 00 00 00 00 00 00 00 00 00
f0: 00 00 00 00 00 00 00 00 00 00 00 00 00 00 00 00

04:0a.0 VGA compatible controller: nVidia Corporation NV11 [GeForce2 MX/MX 400] (rev b2) (prog-if 00 [VGA])
	Subsystem: Unknown device 3842:b039
	Control: I/O- Mem+ BusMaster+ SpecCycle- MemWINV- VGASnoop- ParErr- Stepping- SERR- FastB2B-
	Status: Cap+ 66Mhz+ UDF- FastB2B+ ParErr- DEVSEL=medium >TAbort- <TAbort- <MAbort- >SERR- <PERR-
	Latency: 248 (1250ns min, 250ns max)
	Interrupt: pin A routed to IRQ 16
	Region 0: Memory at fb000000 (32-bit, non-prefetchable) [size=16M]
	Region 1: Memory at b0000000 (32-bit, prefetchable) [size=128M]
	Expansion ROM at ffff0000 [disabled] [size=64K]
	Capabilities: [60] Power Management version 2
		Flags: PMEClk- DSI- D1- D2- AuxCurrent=0mA PME(D0-,D1-,D2-,D3hot-,D3cold-)
		Status: D0 PME-Enable- DSel=0 DScale=0 PME-
00: de 10 10 01 06 00 b0 02 b2 00 00 03 00 f8 00 00
10: 00 00 00 fb 08 00 00 b0 00 00 00 00 00 00 00 00
20: 00 00 00 00 00 00 00 00 00 00 00 00 42 38 39 b0
30: 00 00 ff ff 60 00 00 00 00 00 00 00 00 01 05 01
40: 42 38 39 b0 02 00 20 00 07 00 00 1f 00 00 00 00
50: 01 00 00 00 01 00 00 00 ce d6 23 00 0f 00 00 00
60: 01 00 02 00 00 00 00 00 00 00 00 00 00 00 00 00
70: 00 00 00 00 00 00 00 00 00 00 00 00 00 00 00 00
80: 00 00 00 00 00 00 00 00 00 00 00 00 00 00 00 00
90: 00 00 00 00 00 00 00 00 00 00 00 00 00 00 00 00
a0: 00 00 00 00 00 00 00 00 00 00 00 00 00 00 00 00
b0: 00 00 00 00 00 00 00 00 00 00 00 00 00 00 00 00
c0: 00 00 00 00 00 00 00 00 00 00 00 00 00 00 00 00
d0: 00 00 00 00 00 00 00 00 00 00 00 00 00 00 00 00
e0: 00 00 00 00 00 00 00 00 00 00 00 00 00 00 00 00
f0: 00 00 00 00 00 00 00 00 00 00 00 00 00 00 00 00

04:0b.0 Unknown mass storage controller: CMD Technology Inc: Unknown device 3114 (rev 02)
	Subsystem: CMD Technology Inc: Unknown device 3114
	Control: I/O+ Mem+ BusMaster+ SpecCycle- MemWINV- VGASnoop- ParErr- Stepping- SERR+ FastB2B-
	Status: Cap+ 66Mhz+ UDF- FastB2B+ ParErr- DEVSEL=medium >TAbort- <TAbort- <MAbort- >SERR- <PERR-
	Latency: 64, Cache Line Size: 0x10 (64 bytes)
	Interrupt: pin A routed to IRQ 17
	Region 0: I/O ports at 9c00 [size=8]
	Region 1: I/O ports at 9880 [size=4]
	Region 2: I/O ports at 9800 [size=8]
	Region 3: I/O ports at 9480 [size=4]
	Region 4: I/O ports at 9400 [size=16]
	Region 5: Memory at fc8ffc00 (32-bit, non-prefetchable) [size=1K]
	Expansion ROM at fc800000 [disabled] [size=512K]
	Capabilities: [60] Power Management version 2
		Flags: PMEClk- DSI+ D1+ D2+ AuxCurrent=0mA PME(D0-,D1-,D2-,D3hot-,D3cold-)
		Status: D0 PME-Enable- DSel=0 DScale=2 PME-
00: 95 10 14 31 07 01 b0 02 02 00 80 01 10 40 00 00
10: 01 9c 00 00 81 98 00 00 01 98 00 00 81 94 00 00
20: 01 94 00 00 00 fc 8f fc 00 00 00 00 95 10 14 31
30: 00 00 80 fc 60 00 00 00 00 00 00 00 0a 01 00 00
40: 02 00 00 00 01 20 00 00 00 00 00 00 00 00 00 00
50: 00 00 00 00 00 00 00 00 00 00 00 00 00 00 00 00
60: 01 00 22 06 00 40 00 64 00 00 00 00 00 00 00 00
70: 00 00 60 00 00 00 00 00 00 00 60 00 00 00 00 00
80: 22 00 00 00 22 00 00 00 00 00 00 00 88 7e 63 79
90: 00 00 00 09 ff ff 00 00 00 00 00 19 00 00 00 00
a0: 01 21 15 65 dd 62 dd 62 92 43 92 43 09 40 09 40
b0: 01 21 15 65 dd 62 dd 62 92 43 92 43 09 40 09 40
c0: 84 03 00 00 00 00 00 00 00 00 00 00 00 00 00 00
d0: 00 00 00 00 00 00 00 00 00 00 00 00 00 00 00 00
e0: 00 00 00 00 00 00 00 00 00 00 00 00 00 00 00 00
f0: 00 00 00 00 00 00 00 00 00 00 00 00 00 00 00 00

04:0c.0 FireWire (IEEE 1394): Texas Instruments TSB43AB22/A IEEE-1394a-2000 Controller (PHY/Link) (prog-if 10 [OHCI])
	Subsystem: Tyan Computer: Unknown device 2885
	Control: I/O- Mem+ BusMaster+ SpecCycle- MemWINV+ VGASnoop- ParErr- Stepping- SERR+ FastB2B-
	Status: Cap+ 66Mhz- UDF- FastB2B- ParErr- DEVSEL=medium >TAbort- <TAbort- <MAbort- >SERR- <PERR-
	Latency: 64 (500ns min, 1000ns max), Cache Line Size: 0x10 (64 bytes)
	Interrupt: pin A routed to IRQ 19
	Region 0: Memory at fc8ff000 (32-bit, non-prefetchable) [size=2K]
	Region 1: Memory at fc8f8000 (32-bit, non-prefetchable) [size=16K]
	Capabilities: [44] Power Management version 2
		Flags: PMEClk- DSI- D1+ D2+ AuxCurrent=0mA PME(D0+,D1+,D2+,D3hot+,D3cold-)
		Status: D0 PME-Enable- DSel=0 DScale=0 PME-
00: 4c 10 23 80 16 01 10 02 00 10 00 0c 10 40 00 00
10: 00 f0 8f fc 00 80 8f fc 00 00 00 00 00 00 00 00
20: 00 00 00 00 00 00 00 00 00 00 00 00 f1 10 85 28
30: 00 00 00 00 44 00 00 00 00 00 00 00 09 01 02 04
40: 00 00 00 00 01 00 02 7e 00 00 00 00 00 00 00 00
50: 00 00 00 00 00 00 00 00 00 00 00 00 00 00 00 00
60: 00 00 00 00 00 00 00 00 00 00 00 00 00 00 00 00
70: 00 00 00 00 00 00 00 00 00 00 00 00 00 00 00 00
80: 00 00 00 00 00 00 00 00 00 00 00 00 00 00 00 00
90: 00 00 00 00 00 00 00 00 00 00 00 00 00 00 00 00
a0: 00 00 00 00 00 00 00 00 00 00 00 00 00 00 00 00
b0: 00 00 00 00 00 00 00 00 00 00 00 00 00 00 00 00
c0: 00 00 00 00 00 00 00 00 00 00 00 00 00 00 00 00
d0: 00 00 00 00 00 00 00 00 00 00 00 00 00 00 00 00
e0: 00 00 00 00 00 00 00 00 00 00 00 00 88 00 00 00
f0: 10 00 00 00 82 10 00 00 f1 10 85 28 00 00 00 00

05:00.0 Host bridge: Advanced Micro Devices [AMD] AMD-8151 System Controller (rev 13)
	Subsystem: Advanced Micro Devices [AMD] AMD-8151 System Controller
	Control: I/O- Mem+ BusMaster+ SpecCycle- MemWINV- VGASnoop- ParErr- Stepping- SERR- FastB2B-
	Status: Cap+ 66Mhz- UDF- FastB2B- ParErr- DEVSEL=medium >TAbort- <TAbort- <MAbort- >SERR- <PERR-
	Latency: 0
	Region 0: Memory at e0000000 (32-bit, prefetchable) [size=256M]
	Capabilities: [a0] AGP version 3.0
		Status: RQ=32 Iso- ArqSz=0 Cal=2 SBA+ ITACoh+ GART64- HTrans+ 64bit+ FW+ AGP3+ Rate=x4,x8
		Command: RQ=1 ArqSz=0 Cal=2 SBA+ AGP+ GART64- 64bit+ FW- Rate=x8
	Capabilities: [c0] #08 [0060]
00: 22 10 54 74 06 00 10 02 13 00 00 06 00 00 00 00
10: 08 00 00 e0 00 00 00 00 00 00 00 00 00 00 00 00
20: 00 00 00 00 00 00 00 00 00 00 00 00 22 10 54 74
30: 00 00 00 00 a0 00 00 00 00 00 00 00 00 00 00 00
40: 01 00 00 00 00 00 00 00 00 00 00 00 00 00 00 00
50: 0b 00 1b 00 0b 00 17 00 00 00 00 00 00 00 00 00
60: 71 0e 00 e0 00 00 00 00 00 00 00 00 00 00 00 00
70: 00 00 00 00 00 00 00 00 00 00 00 00 00 00 00 00
80: 00 00 00 00 00 00 00 00 00 00 00 00 00 00 00 00
90: 00 00 00 00 00 00 00 00 00 00 00 00 00 00 00 00
a0: 02 c0 30 00 7b 0b 00 1f 22 0b 00 00 00 00 00 00
b0: 00 00 00 00 00 0f 01 00 00 00 00 00 00 00 00 00
c0: 08 00 60 00 20 00 11 11 c0 00 00 77 22 04 35 00
d0: 02 00 35 00 00 00 00 00 00 00 00 00 00 00 00 00
e0: 19 08 12 00 0e 0e 11 00 1f 1f 15 00 00 00 00 00
f0: 00 00 00 00 00 00 00 00 00 00 00 00 00 00 00 00

05:01.0 PCI bridge: Advanced Micro Devices [AMD] AMD-8151 AGP Bridge (rev 13) (prog-if 00 [Normal decode])
	Control: I/O+ Mem+ BusMaster+ SpecCycle- MemWINV- VGASnoop- ParErr- Stepping- SERR+ FastB2B-
	Status: Cap- 66Mhz+ UDF- FastB2B- ParErr- DEVSEL=medium >TAbort- <TAbort- <MAbort- >SERR- <PERR-
	Latency: 64
	Bus: primary=05, secondary=06, subordinate=06, sec-latency=64
	Memory behind bridge: fca00000-feafffff
	Prefetchable memory behind bridge: ba200000-da2fffff
	BridgeCtl: Parity- SERR- NoISA- VGA+ MAbort- >Reset- FastB2B-
00: 22 10 55 74 07 01 20 02 13 00 04 06 00 40 01 00
10: 00 00 00 00 00 00 00 00 05 06 06 40 f1 01 20 02
20: a0 fc a0 fe 20 ba 20 da 00 00 00 00 00 00 00 00
30: 00 00 00 00 00 00 00 00 00 00 00 00 ff 00 08 00
40: 00 00 00 00 00 00 00 00 00 00 00 00 00 00 00 00
50: 00 00 00 00 00 00 00 00 00 00 00 00 00 00 00 00
60: 00 00 00 00 00 00 00 00 00 00 00 00 00 00 00 00
70: 00 00 00 00 00 00 00 00 00 00 00 00 00 00 00 00
80: 00 00 00 00 00 00 00 00 00 00 00 00 00 00 00 00
90: 00 00 00 00 00 00 00 00 00 00 00 00 00 00 00 00
a0: 00 00 00 00 00 00 00 00 00 00 00 00 00 00 00 00
b0: 00 00 00 00 00 00 00 00 00 00 00 00 00 00 00 00
c0: 00 00 00 00 00 00 00 00 00 00 00 00 00 00 00 00
d0: 00 00 00 00 00 00 00 00 00 00 00 00 00 00 00 00
e0: 00 00 00 00 00 00 00 00 00 00 00 00 00 00 00 00
f0: 00 00 00 00 00 00 00 00 00 00 00 00 00 00 00 00

06:00.0 VGA compatible controller: nVidia Corporation NV31 [GeForce FX 5600] (rev a1) (prog-if 00 [VGA])
	Subsystem: Micro-Star International Co., Ltd.: Unknown device 9123
	Control: I/O+ Mem+ BusMaster+ SpecCycle- MemWINV- VGASnoop- ParErr- Stepping- SERR- FastB2B-
	Status: Cap+ 66Mhz+ UDF- FastB2B+ ParErr- DEVSEL=medium >TAbort- <TAbort- <MAbort- >SERR- <PERR-
	Latency: 248 (1250ns min, 250ns max)
	Interrupt: pin A routed to IRQ 16
	Region 0: Memory at fd000000 (32-bit, non-prefetchable) [size=16M]
	Region 1: Memory at c0000000 (32-bit, prefetchable) [size=256M]
	Expansion ROM at feae0000 [disabled] [size=128K]
	Capabilities: [60] Power Management version 2
		Flags: PMEClk- DSI- D1- D2- AuxCurrent=0mA PME(D0-,D1-,D2-,D3hot-,D3cold-)
		Status: D0 PME-Enable- DSel=0 DScale=0 PME-
	Capabilities: [44] AGP version 3.0
		Status: RQ=32 Iso- ArqSz=0 Cal=3 SBA+ ITACoh- GART64- HTrans- 64bit- FW+ AGP3+ Rate=x4,x8
		Command: RQ=32 ArqSz=0 Cal=0 SBA+ AGP+ GART64- 64bit- FW- Rate=x8
00: de 10 12 03 07 00 b0 02 a1 00 00 03 00 f8 00 00
10: 00 00 00 fd 08 00 00 c0 00 00 00 00 00 00 00 00
20: 00 00 00 00 00 00 00 00 00 00 00 00 62 14 23 91
30: 00 00 ae fe 60 00 00 00 00 00 00 00 0b 01 05 01
40: 62 14 23 91 02 00 30 00 1b 0e 00 1f 02 03 00 1f
50: 01 00 00 00 01 00 00 00 ce d6 23 00 0f 00 00 00
60: 01 44 02 00 00 00 00 00 00 00 00 00 00 00 00 00
70: 00 00 00 00 00 00 00 00 00 00 00 00 00 00 00 00
80: 00 00 00 00 00 00 00 00 00 00 00 00 00 00 00 00
90: 00 00 00 00 00 00 00 00 00 00 00 00 00 00 00 00
a0: 00 00 00 00 00 00 00 00 00 00 00 00 00 00 00 00
b0: 00 00 00 00 00 00 00 00 00 00 00 00 00 00 00 00
c0: 00 00 00 00 00 00 00 00 00 00 00 00 00 00 00 00
d0: 00 00 00 00 00 00 00 00 00 00 00 00 00 00 00 00
e0: 00 00 00 00 00 00 00 00 00 00 00 00 00 00 00 00
f0: 00 00 00 00 00 00 00 00 00 00 00 00 00 00 00 00

root@nausicaa:/var/log# cat /usr/local/src/linux-2.6.0-test9/.config
#
# Automatically generated make config: don't edit
#
CONFIG_X86=y
CONFIG_MMU=y
CONFIG_UID16=y
CONFIG_GENERIC_ISA_DMA=y

#
# Code maturity level options
#
CONFIG_EXPERIMENTAL=y
CONFIG_CLEAN_COMPILE=y
CONFIG_STANDALONE=y

#
# General setup
#
CONFIG_SWAP=y
CONFIG_SYSVIPC=y
CONFIG_BSD_PROCESS_ACCT=y
CONFIG_SYSCTL=y
CONFIG_LOG_BUF_SHIFT=17
CONFIG_IKCONFIG=y
CONFIG_IKCONFIG_PROC=y
# CONFIG_EMBEDDED is not set
CONFIG_KALLSYMS=y
CONFIG_FUTEX=y
CONFIG_EPOLL=y
CONFIG_IOSCHED_NOOP=y
CONFIG_IOSCHED_AS=y
CONFIG_IOSCHED_DEADLINE=y

#
# Loadable module support
#
CONFIG_MODULES=y
CONFIG_MODULE_UNLOAD=y
# CONFIG_MODULE_FORCE_UNLOAD is not set
CONFIG_OBSOLETE_MODPARM=y
CONFIG_MODVERSIONS=y
CONFIG_KMOD=y

#
# Processor type and features
#
CONFIG_X86_PC=y
# CONFIG_X86_VOYAGER is not set
# CONFIG_X86_NUMAQ is not set
# CONFIG_X86_SUMMIT is not set
# CONFIG_X86_BIGSMP is not set
# CONFIG_X86_VISWS is not set
# CONFIG_X86_GENERICARCH is not set
# CONFIG_X86_ES7000 is not set
# CONFIG_M386 is not set
# CONFIG_M486 is not set
# CONFIG_M586 is not set
# CONFIG_M586TSC is not set
# CONFIG_M586MMX is not set
# CONFIG_M686 is not set
# CONFIG_MPENTIUMII is not set
# CONFIG_MPENTIUMIII is not set
# CONFIG_MPENTIUM4 is not set
# CONFIG_MK6 is not set
# CONFIG_MK7 is not set
CONFIG_MK8=y
# CONFIG_MELAN is not set
# CONFIG_MCRUSOE is not set
# CONFIG_MWINCHIPC6 is not set
# CONFIG_MWINCHIP2 is not set
# CONFIG_MWINCHIP3D is not set
# CONFIG_MCYRIXIII is not set
# CONFIG_MVIAC3_2 is not set
# CONFIG_X86_GENERIC is not set
CONFIG_X86_CMPXCHG=y
CONFIG_X86_XADD=y
CONFIG_X86_L1_CACHE_SHIFT=6
CONFIG_RWSEM_XCHGADD_ALGORITHM=y
CONFIG_X86_WP_WORKS_OK=y
CONFIG_X86_INVLPG=y
CONFIG_X86_BSWAP=y
CONFIG_X86_POPAD_OK=y
CONFIG_X86_GOOD_APIC=y
CONFIG_X86_INTEL_USERCOPY=y
CONFIG_X86_USE_PPRO_CHECKSUM=y
CONFIG_HPET_TIMER=y
# CONFIG_HPET_EMULATE_RTC is not set
CONFIG_SMP=y
CONFIG_NR_CPUS=8
CONFIG_PREEMPT=y
CONFIG_X86_LOCAL_APIC=y
CONFIG_X86_IO_APIC=y
CONFIG_X86_TSC=y
CONFIG_X86_MCE=y
CONFIG_X86_MCE_NONFATAL=y
# CONFIG_X86_MCE_P4THERMAL is not set
# CONFIG_TOSHIBA is not set
# CONFIG_I8K is not set
CONFIG_MICROCODE=m
CONFIG_X86_MSR=m
CONFIG_X86_CPUID=m
# CONFIG_EDD is not set
CONFIG_NOHIGHMEM=y
# CONFIG_HIGHMEM4G is not set
# CONFIG_HIGHMEM64G is not set
# CONFIG_MATH_EMULATION is not set
CONFIG_MTRR=y
CONFIG_HAVE_DEC_LOCK=y

#
# Power management options (ACPI, APM)
#
CONFIG_PM=y
# CONFIG_SOFTWARE_SUSPEND is not set
# CONFIG_PM_DISK is not set

#
# ACPI (Advanced Configuration and Power Interface) Support
#
CONFIG_ACPI=y
CONFIG_ACPI_BOOT=y
CONFIG_ACPI_INTERPRETER=y
# CONFIG_ACPI_SLEEP is not set
CONFIG_ACPI_AC=m
CONFIG_ACPI_BATTERY=m
CONFIG_ACPI_BUTTON=m
CONFIG_ACPI_FAN=m
CONFIG_ACPI_PROCESSOR=m
CONFIG_ACPI_THERMAL=m
# CONFIG_ACPI_ASUS is not set
# CONFIG_ACPI_TOSHIBA is not set
CONFIG_ACPI_DEBUG=y
CONFIG_ACPI_BUS=y
CONFIG_ACPI_EC=y
CONFIG_ACPI_POWER=y
CONFIG_ACPI_PCI=y
CONFIG_ACPI_SYSTEM=y
CONFIG_ACPI_RELAXED_AML=y

#
# APM (Advanced Power Management) BIOS Support
#
# CONFIG_APM is not set

#
# CPU Frequency scaling
#
# CONFIG_CPU_FREQ is not set

#
# Bus options (PCI, PCMCIA, EISA, MCA, ISA)
#
CONFIG_PCI=y
# CONFIG_PCI_GOBIOS is not set
# CONFIG_PCI_GODIRECT is not set
CONFIG_PCI_GOANY=y
CONFIG_PCI_BIOS=y
CONFIG_PCI_DIRECT=y
CONFIG_PCI_LEGACY_PROC=y
CONFIG_PCI_NAMES=y
CONFIG_ISA=y
# CONFIG_EISA is not set
# CONFIG_MCA is not set
# CONFIG_SCx200 is not set
CONFIG_HOTPLUG=y

#
# PCMCIA/CardBus support
#
# CONFIG_PCMCIA is not set
CONFIG_PCMCIA_PROBE=y

#
# PCI Hotplug Support
#
# CONFIG_HOTPLUG_PCI is not set

#
# Executable file formats
#
CONFIG_BINFMT_ELF=y
CONFIG_BINFMT_AOUT=m
CONFIG_BINFMT_MISC=m

#
# Device Drivers
#

#
# Generic Driver Options
#
CONFIG_FW_LOADER=m

#
# Memory Technology Devices (MTD)
#
# CONFIG_MTD is not set

#
# Parallel port support
#
CONFIG_PARPORT=m
CONFIG_PARPORT_PC=m
CONFIG_PARPORT_PC_CML1=m
# CONFIG_PARPORT_SERIAL is not set
# CONFIG_PARPORT_PC_FIFO is not set
# CONFIG_PARPORT_PC_SUPERIO is not set
# CONFIG_PARPORT_OTHER is not set
# CONFIG_PARPORT_1284 is not set

#
# Plug and Play support
#
# CONFIG_PNP is not set

#
# Block devices
#
CONFIG_BLK_DEV_FD=y
# CONFIG_BLK_DEV_XD is not set
# CONFIG_PARIDE is not set
# CONFIG_BLK_CPQ_DA is not set
# CONFIG_BLK_CPQ_CISS_DA is not set
# CONFIG_BLK_DEV_DAC960 is not set
# CONFIG_BLK_DEV_UMEM is not set
CONFIG_BLK_DEV_LOOP=m
CONFIG_BLK_DEV_CRYPTOLOOP=m
CONFIG_BLK_DEV_NBD=m
CONFIG_BLK_DEV_RAM=m
CONFIG_BLK_DEV_RAM_SIZE=4096
# CONFIG_BLK_DEV_INITRD is not set
# CONFIG_LBD is not set

#
# ATA/ATAPI/MFM/RLL support
#
CONFIG_IDE=y
CONFIG_BLK_DEV_IDE=y

#
# Please see Documentation/ide.txt for help/info on IDE drives
#
# CONFIG_BLK_DEV_HD_IDE is not set
CONFIG_BLK_DEV_IDEDISK=y
CONFIG_IDEDISK_MULTI_MODE=y
# CONFIG_IDEDISK_STROKE is not set
CONFIG_BLK_DEV_IDECD=m
CONFIG_BLK_DEV_IDETAPE=m
CONFIG_BLK_DEV_IDEFLOPPY=m
CONFIG_BLK_DEV_IDESCSI=m
# CONFIG_IDE_TASK_IOCTL is not set
CONFIG_IDE_TASKFILE_IO=y

#
# IDE chipset support/bugfixes
#
CONFIG_BLK_DEV_CMD640=y
# CONFIG_BLK_DEV_CMD640_ENHANCED is not set
CONFIG_BLK_DEV_IDEPCI=y
CONFIG_IDEPCI_SHARE_IRQ=y
# CONFIG_BLK_DEV_OFFBOARD is not set
CONFIG_BLK_DEV_GENERIC=y
# CONFIG_BLK_DEV_OPTI621 is not set
CONFIG_BLK_DEV_RZ1000=y
CONFIG_BLK_DEV_IDEDMA_PCI=y
# CONFIG_BLK_DEV_IDEDMA_FORCED is not set
CONFIG_IDEDMA_PCI_AUTO=y
# CONFIG_IDEDMA_ONLYDISK is not set
# CONFIG_IDEDMA_PCI_WIP is not set
CONFIG_BLK_DEV_ADMA=y
# CONFIG_BLK_DEV_AEC62XX is not set
# CONFIG_BLK_DEV_ALI15X3 is not set
CONFIG_BLK_DEV_AMD74XX=y
# CONFIG_BLK_DEV_CMD64X is not set
# CONFIG_BLK_DEV_TRIFLEX is not set
# CONFIG_BLK_DEV_CY82C693 is not set
# CONFIG_BLK_DEV_CS5520 is not set
# CONFIG_BLK_DEV_CS5530 is not set
# CONFIG_BLK_DEV_HPT34X is not set
# CONFIG_BLK_DEV_HPT366 is not set
# CONFIG_BLK_DEV_SC1200 is not set
CONFIG_BLK_DEV_PIIX=y
# CONFIG_BLK_DEV_NS87415 is not set
# CONFIG_BLK_DEV_PDC202XX_OLD is not set
# CONFIG_BLK_DEV_PDC202XX_NEW is not set
# CONFIG_BLK_DEV_SVWKS is not set
CONFIG_BLK_DEV_SIIMAGE=m
# CONFIG_BLK_DEV_SIS5513 is not set
# CONFIG_BLK_DEV_SLC90E66 is not set
# CONFIG_BLK_DEV_TRM290 is not set
# CONFIG_BLK_DEV_VIA82CXXX is not set
# CONFIG_IDE_CHIPSETS is not set
CONFIG_BLK_DEV_IDEDMA=y
# CONFIG_IDEDMA_IVB is not set
CONFIG_IDEDMA_AUTO=y
# CONFIG_DMA_NONPCI is not set
# CONFIG_BLK_DEV_HD is not set

#
# SCSI device support
#
CONFIG_SCSI=m
CONFIG_SCSI_PROC_FS=y

#
# SCSI support type (disk, tape, CD-ROM)
#
CONFIG_BLK_DEV_SD=m
# CONFIG_CHR_DEV_ST is not set
# CONFIG_CHR_DEV_OSST is not set
CONFIG_BLK_DEV_SR=m
# CONFIG_BLK_DEV_SR_VENDOR is not set
CONFIG_CHR_DEV_SG=m

#
# Some SCSI devices (e.g. CD jukebox) support multiple LUNs
#
CONFIG_SCSI_MULTI_LUN=y
# CONFIG_SCSI_REPORT_LUNS is not set
CONFIG_SCSI_CONSTANTS=y
# CONFIG_SCSI_LOGGING is not set

#
# SCSI low-level drivers
#
# CONFIG_BLK_DEV_3W_XXXX_RAID is not set
# CONFIG_SCSI_7000FASST is not set
# CONFIG_SCSI_ACARD is not set
# CONFIG_SCSI_AHA152X is not set
# CONFIG_SCSI_AHA1542 is not set
# CONFIG_SCSI_AACRAID is not set
# CONFIG_SCSI_AIC7XXX is not set
# CONFIG_SCSI_AIC7XXX_OLD is not set
# CONFIG_SCSI_AIC79XX is not set
# CONFIG_SCSI_ADVANSYS is not set
# CONFIG_SCSI_IN2000 is not set
# CONFIG_SCSI_MEGARAID is not set
# CONFIG_SCSI_SATA is not set
# CONFIG_SCSI_BUSLOGIC is not set
# CONFIG_SCSI_CPQFCTS is not set
# CONFIG_SCSI_DMX3191D is not set
# CONFIG_SCSI_DTC3280 is not set
# CONFIG_SCSI_EATA is not set
# CONFIG_SCSI_EATA_PIO is not set
# CONFIG_SCSI_FUTURE_DOMAIN is not set
# CONFIG_SCSI_GDTH is not set
# CONFIG_SCSI_GENERIC_NCR5380 is not set
# CONFIG_SCSI_GENERIC_NCR5380_MMIO is not set
# CONFIG_SCSI_IPS is not set
# CONFIG_SCSI_INIA100 is not set
# CONFIG_SCSI_PPA is not set
# CONFIG_SCSI_IMM is not set
# CONFIG_SCSI_NCR53C406A is not set
# CONFIG_SCSI_SYM53C8XX_2 is not set
# CONFIG_SCSI_PAS16 is not set
# CONFIG_SCSI_PSI240I is not set
# CONFIG_SCSI_QLOGIC_FAS is not set
# CONFIG_SCSI_QLOGIC_ISP is not set
# CONFIG_SCSI_QLOGIC_FC is not set
# CONFIG_SCSI_QLOGIC_1280 is not set
# CONFIG_SCSI_SYM53C416 is not set
# CONFIG_SCSI_DC395x is not set
# CONFIG_SCSI_T128 is not set
# CONFIG_SCSI_U14_34F is not set
# CONFIG_SCSI_ULTRASTOR is not set
# CONFIG_SCSI_NSP32 is not set
# CONFIG_SCSI_DEBUG is not set

#
# Old CD-ROM drivers (not SCSI, not IDE)
#
# CONFIG_CD_NO_IDESCSI is not set

#
# Multi-device support (RAID and LVM)
#
# CONFIG_MD is not set

#
# Fusion MPT device support
#
# CONFIG_FUSION is not set

#
# IEEE 1394 (FireWire) support (EXPERIMENTAL)
#
CONFIG_IEEE1394=m

#
# Subsystem Options
#
# CONFIG_IEEE1394_VERBOSEDEBUG is not set
# CONFIG_IEEE1394_OUI_DB is not set

#
# Device Drivers
#
CONFIG_IEEE1394_PCILYNX=m
CONFIG_IEEE1394_OHCI1394=m

#
# Protocol Drivers
#
CONFIG_IEEE1394_VIDEO1394=m
CONFIG_IEEE1394_SBP2=m
# CONFIG_IEEE1394_SBP2_PHYS_DMA is not set
CONFIG_IEEE1394_ETH1394=m
CONFIG_IEEE1394_DV1394=m
CONFIG_IEEE1394_RAWIO=m
CONFIG_IEEE1394_CMP=m
CONFIG_IEEE1394_AMDTP=m

#
# I2O device support
#
# CONFIG_I2O is not set

#
# Networking support
#
CONFIG_NET=y

#
# Networking options
#
CONFIG_PACKET=y
# CONFIG_PACKET_MMAP is not set
# CONFIG_NETLINK_DEV is not set
CONFIG_UNIX=y
CONFIG_NET_KEY=y
CONFIG_INET=y
CONFIG_IP_MULTICAST=y
# CONFIG_IP_ADVANCED_ROUTER is not set
# CONFIG_IP_PNP is not set
# CONFIG_NET_IPIP is not set
# CONFIG_NET_IPGRE is not set
# CONFIG_IP_MROUTE is not set
# CONFIG_ARPD is not set
# CONFIG_INET_ECN is not set
# CONFIG_SYN_COOKIES is not set
CONFIG_INET_AH=m
CONFIG_INET_ESP=m
CONFIG_INET_IPCOMP=m
# CONFIG_IPV6 is not set
# CONFIG_DECNET is not set
# CONFIG_BRIDGE is not set
# CONFIG_NETFILTER is not set
CONFIG_XFRM=y
CONFIG_XFRM_USER=m

#
# SCTP Configuration (EXPERIMENTAL)
#
CONFIG_IPV6_SCTP__=y
CONFIG_IP_SCTP=m
# CONFIG_SCTP_ADLER32 is not set
# CONFIG_SCTP_DBG_MSG is not set
# CONFIG_SCTP_DBG_OBJCNT is not set
CONFIG_SCTP_HMAC_NONE=y
# CONFIG_SCTP_HMAC_SHA1 is not set
# CONFIG_SCTP_HMAC_MD5 is not set
# CONFIG_ATM is not set
# CONFIG_VLAN_8021Q is not set
# CONFIG_LLC2 is not set
# CONFIG_IPX is not set
# CONFIG_ATALK is not set
# CONFIG_X25 is not set
# CONFIG_LAPB is not set
# CONFIG_NET_DIVERT is not set
# CONFIG_ECONET is not set
# CONFIG_WAN_ROUTER is not set
# CONFIG_NET_FASTROUTE is not set
# CONFIG_NET_HW_FLOWCONTROL is not set

#
# QoS and/or fair queueing
#
# CONFIG_NET_SCHED is not set

#
# Network testing
#
# CONFIG_NET_PKTGEN is not set
CONFIG_NETDEVICES=y

#
# ARCnet devices
#
# CONFIG_ARCNET is not set
CONFIG_DUMMY=m
# CONFIG_BONDING is not set
# CONFIG_EQUALIZER is not set
# CONFIG_TUN is not set

#
# Ethernet (10 or 100Mbit)
#
# CONFIG_NET_ETHERNET is not set

#
# Ethernet (1000 Mbit)
#
# CONFIG_ACENIC is not set
# CONFIG_DL2K is not set
# CONFIG_E1000 is not set
# CONFIG_NS83820 is not set
# CONFIG_HAMACHI is not set
# CONFIG_YELLOWFIN is not set
# CONFIG_R8169 is not set
# CONFIG_SIS190 is not set
# CONFIG_SK98LIN is not set
CONFIG_TIGON3=m

#
# Ethernet (10000 Mbit)
#
# CONFIG_IXGB is not set
# CONFIG_FDDI is not set
# CONFIG_HIPPI is not set
# CONFIG_PLIP is not set
# CONFIG_PPP is not set
# CONFIG_SLIP is not set

#
# Wireless LAN (non-hamradio)
#
# CONFIG_NET_RADIO is not set

#
# Token Ring devices
#
# CONFIG_TR is not set
# CONFIG_NET_FC is not set
# CONFIG_RCPCI is not set
# CONFIG_SHAPER is not set

#
# Wan interfaces
#
# CONFIG_WAN is not set

#
# Amateur Radio support
#
# CONFIG_HAMRADIO is not set

#
# IrDA (infrared) support
#
# CONFIG_IRDA is not set

#
# Bluetooth support
#
# CONFIG_BT is not set

#
# ISDN subsystem
#
# CONFIG_ISDN_BOOL is not set

#
# Telephony Support
#
# CONFIG_PHONE is not set

#
# Input device support
#
CONFIG_INPUT=y

#
# Userland interfaces
#
CONFIG_INPUT_MOUSEDEV=y
CONFIG_INPUT_MOUSEDEV_PSAUX=y
CONFIG_INPUT_MOUSEDEV_SCREEN_X=1024
CONFIG_INPUT_MOUSEDEV_SCREEN_Y=768
CONFIG_INPUT_JOYDEV=m
# CONFIG_INPUT_TSDEV is not set
CONFIG_INPUT_EVDEV=m
# CONFIG_INPUT_EVBUG is not set

#
# Input I/O drivers
#
CONFIG_GAMEPORT=m
CONFIG_SOUND_GAMEPORT=m
CONFIG_GAMEPORT_NS558=m
# CONFIG_GAMEPORT_L4 is not set
CONFIG_GAMEPORT_EMU10K1=m
# CONFIG_GAMEPORT_VORTEX is not set
# CONFIG_GAMEPORT_FM801 is not set
# CONFIG_GAMEPORT_CS461x is not set
CONFIG_SERIO=y
CONFIG_SERIO_I8042=y
CONFIG_SERIO_SERPORT=y
# CONFIG_SERIO_CT82C710 is not set
# CONFIG_SERIO_PARKBD is not set
# CONFIG_SERIO_PCIPS2 is not set

#
# Input Device Drivers
#
CONFIG_INPUT_KEYBOARD=y
CONFIG_KEYBOARD_ATKBD=y
# CONFIG_KEYBOARD_SUNKBD is not set
# CONFIG_KEYBOARD_XTKBD is not set
# CONFIG_KEYBOARD_NEWTON is not set
CONFIG_INPUT_MOUSE=y
CONFIG_MOUSE_PS2=m
# CONFIG_MOUSE_PS2_SYNAPTICS is not set
# CONFIG_MOUSE_SERIAL is not set
# CONFIG_MOUSE_INPORT is not set
# CONFIG_MOUSE_LOGIBM is not set
# CONFIG_MOUSE_PC110PAD is not set
CONFIG_INPUT_JOYSTICK=y
CONFIG_JOYSTICK_ANALOG=m
# CONFIG_JOYSTICK_A3D is not set
# CONFIG_JOYSTICK_ADI is not set
# CONFIG_JOYSTICK_COBRA is not set
# CONFIG_JOYSTICK_GF2K is not set
# CONFIG_JOYSTICK_GRIP is not set
# CONFIG_JOYSTICK_GRIP_MP is not set
# CONFIG_JOYSTICK_GUILLEMOT is not set
# CONFIG_JOYSTICK_INTERACT is not set
CONFIG_JOYSTICK_SIDEWINDER=m
# CONFIG_JOYSTICK_TMDC is not set
# CONFIG_JOYSTICK_IFORCE is not set
# CONFIG_JOYSTICK_WARRIOR is not set
# CONFIG_JOYSTICK_MAGELLAN is not set
# CONFIG_JOYSTICK_SPACEORB is not set
# CONFIG_JOYSTICK_SPACEBALL is not set
# CONFIG_JOYSTICK_STINGER is not set
# CONFIG_JOYSTICK_TWIDDLER is not set
# CONFIG_JOYSTICK_DB9 is not set
# CONFIG_JOYSTICK_GAMECON is not set
# CONFIG_JOYSTICK_TURBOGRAFX is not set
# CONFIG_INPUT_JOYDUMP is not set
# CONFIG_INPUT_TOUCHSCREEN is not set
CONFIG_INPUT_MISC=y
CONFIG_INPUT_PCSPKR=m
CONFIG_INPUT_UINPUT=m

#
# Character devices
#
CONFIG_VT=y
CONFIG_VT_CONSOLE=y
CONFIG_HW_CONSOLE=y
# CONFIG_SERIAL_NONSTANDARD is not set

#
# Serial drivers
#
CONFIG_SERIAL_8250=m
# CONFIG_SERIAL_8250_ACPI is not set
CONFIG_SERIAL_8250_NR_UARTS=4
# CONFIG_SERIAL_8250_EXTENDED is not set

#
# Non-8250 serial port support
#
CONFIG_SERIAL_CORE=m
CONFIG_UNIX98_PTYS=y
CONFIG_UNIX98_PTY_COUNT=256
CONFIG_PRINTER=m
# CONFIG_LP_CONSOLE is not set
# CONFIG_PPDEV is not set
# CONFIG_TIPAR is not set

#
# I2C support
#
CONFIG_I2C=m
CONFIG_I2C_CHARDEV=m

#
# I2C Algorithms
#
CONFIG_I2C_ALGOBIT=m
# CONFIG_I2C_ALGOPCF is not set

#
# I2C Hardware Bus support
#
# CONFIG_I2C_ALI1535 is not set
# CONFIG_I2C_ALI15X3 is not set
CONFIG_I2C_AMD756=m
# CONFIG_I2C_AMD8111 is not set
# CONFIG_I2C_ELV is not set
# CONFIG_I2C_I801 is not set
# CONFIG_I2C_I810 is not set
# CONFIG_I2C_ISA is not set
# CONFIG_I2C_NFORCE2 is not set
# CONFIG_I2C_PHILIPSPAR is not set
# CONFIG_I2C_PIIX4 is not set
# CONFIG_I2C_PROSAVAGE is not set
# CONFIG_I2C_SAVAGE4 is not set
# CONFIG_SCx200_ACB is not set
# CONFIG_I2C_SIS5595 is not set
# CONFIG_I2C_SIS630 is not set
# CONFIG_I2C_SIS96X is not set
# CONFIG_I2C_VELLEMAN is not set
# CONFIG_I2C_VIA is not set
# CONFIG_I2C_VIAPRO is not set
# CONFIG_I2C_VOODOO3 is not set

#
# I2C Hardware Sensors Chip support
#
CONFIG_I2C_SENSOR=m
# CONFIG_SENSORS_ADM1021 is not set
# CONFIG_SENSORS_EEPROM is not set
# CONFIG_SENSORS_IT87 is not set
