Return-Path: <linux-kernel-owner@vger.kernel.org>
Received: (majordomo@vger.kernel.org) by vger.kernel.org via listexpand
	id <S267178AbRGPCC6>; Sun, 15 Jul 2001 22:02:58 -0400
Received: (majordomo@vger.kernel.org) by vger.kernel.org
	id <S267180AbRGPCCt>; Sun, 15 Jul 2001 22:02:49 -0400
Received: from Hell.WH8.TU-Dresden.De ([141.30.225.3]:63236 "EHLO
	Hell.WH8.TU-Dresden.De") by vger.kernel.org with ESMTP
	id <S267178AbRGPCCg>; Sun, 15 Jul 2001 22:02:36 -0400
Message-ID: <3B524B36.A9F926CC@delusion.de>
Date: Mon, 16 Jul 2001 04:02:30 +0200
From: "Udo A. Steinberg" <reality@delusion.de>
Organization: Disorganized
X-Mailer: Mozilla 4.77 [en] (X11; U; Linux 2.4.6-ac4 i686)
X-Accept-Language: en, de
MIME-Version: 1.0
To: Alan Cox <alan@lxorguk.ukuu.org.uk>
CC: linux-kernel@vger.kernel.org
Subject: Re: Linux 2.4.6-ac4
In-Reply-To: <20010716004933.A18030@lightning.swansea.linux.org.uk>
Content-Type: text/plain; charset=us-ascii
Content-Transfer-Encoding: 7bit
Sender: linux-kernel-owner@vger.kernel.org
X-Mailing-List: linux-kernel@vger.kernel.org

Alan Cox wrote:

> 2.4.6-ac4
> o       Update VIA southbridge bug fix to VIA provided  (me)
>         workaround.
>         | Except we apply it even when no sblive is
>         | present

Hello,

I have a VIA 686a chipset and the workaround is being enabled nonetheless.
I guess that's not quite correct. ac3 did the right thing, ac4 doesn't.
The relevant output of lspci follows.

Regards,
Udo.

00:00.0 Host bridge: VIA Technologies, Inc.: Unknown device 0305 (rev 02)
        Subsystem: Asustek Computer, Inc.: Unknown device 8033
        Control: I/O- Mem+ BusMaster+ SpecCycle- MemWINV- VGASnoop- ParErr- Stepping- SERR- FastB2B-
        Status: Cap+ 66Mhz- UDF- FastB2B- ParErr- DEVSEL=medium >TAbort- <TAbort- <MAbort+ >SERR- <PERR+
        Latency: 8
        Region 0: Memory at e0000000 (32-bit, prefetchable) [size=128M]
        Capabilities: [a0] AGP version 2.0
                Status: RQ=31 SBA+ 64bit- FW+ Rate=x1,x2
                Command: RQ=0 SBA- AGP- 64bit- FW- Rate=<none>
        Capabilities: [c0] Power Management version 2
                Flags: PMEClk- DSI- D1- D2- AuxCurrent=0mA PME(D0-,D1-,D2-,D3hot-,D3cold-)
                Status: D0 PME-Enable- DSel=0 DScale=0 PME-
00: 06 11 05 03 06 00 10 a2 02 00 00 06 00 08 00 00
10: 08 00 00 e0 00 00 00 00 00 00 00 00 00 00 00 00
20: 00 00 00 00 00 00 00 00 00 00 00 00 43 10 33 80
30: 00 00 00 00 a0 00 00 00 00 00 00 00 00 00 00 00
40: 00 00 00 00 00 00 00 00 00 00 00 00 00 00 00 00
50: 17 a4 6b b4 07 89 10 10 88 00 04 08 0c 10 10 10
60: 0f ff 57 b0 e6 e6 e4 00 44 5c 80 2f c8 7f 00 00
70: de c0 cc 0d 0e a1 96 00 01 b4 19 02 00 00 00 01
80: 0f 40 00 00 80 00 00 00 03 00 48 01 00 00 00 00
90: 00 00 00 00 00 00 00 00 00 00 00 00 00 00 00 00
a0: 02 c0 20 00 17 02 00 1f 00 00 00 00 6e 02 14 00
b0: 61 ec 80 a5 32 33 28 00 00 00 00 00 00 00 00 00
c0: 01 00 02 00 00 00 00 00 00 00 00 00 00 00 00 00
d0: 00 00 00 00 00 00 00 00 00 00 00 00 00 00 00 00
e0: 00 00 00 00 00 00 00 00 00 00 00 00 00 00 00 00
f0: 00 00 00 00 00 00 00 0e 66 00 00 00 00 80 91 06

00:01.0 PCI bridge: VIA Technologies, Inc.: Unknown device 8305 (prog-if 00 [Normal decode])
        Control: I/O+ Mem+ BusMaster+ SpecCycle- MemWINV- VGASnoop- ParErr- Stepping- SERR- FastB2B-
        Status: Cap+ 66Mhz+ UDF- FastB2B- ParErr- DEVSEL=medium >TAbort- <TAbort- <MAbort+ >SERR- <PERR-
        Latency: 0
        Bus: primary=00, secondary=01, subordinate=01, sec-latency=0
        I/O behind bridge: 0000e000-0000dfff
        Memory behind bridge: d5000000-d65fffff
        Prefetchable memory behind bridge: d7f00000-dfffffff
        BridgeCtl: Parity- SERR- NoISA- VGA+ MAbort- >Reset- FastB2B-
        Capabilities: [80] Power Management version 2
                Flags: PMEClk- DSI+ D1+ D2- AuxCurrent=0mA PME(D0-,D1-,D2-,D3hot-,D3cold-)
                Status: D0 PME-Enable- DSel=0 DScale=0 PME-
00: 06 11 05 83 07 00 30 22 00 00 04 06 00 00 01 00
10: 00 00 00 00 00 00 00 00 00 01 01 00 e0 d0 00 00
20: 00 d5 50 d6 f0 d7 f0 df 00 00 00 00 00 00 00 00
30: 00 00 00 00 80 00 00 00 00 00 00 00 00 00 08 00
40: cb cd 18 44 27 72 05 83 00 00 00 00 00 00 00 00
50: 00 00 00 00 00 00 00 00 00 00 00 00 00 00 00 00
60: 00 00 00 00 00 00 00 00 00 00 00 00 00 00 00 00
70: 00 00 00 00 00 00 00 00 00 00 00 00 00 00 00 00
80: 01 00 22 02 00 00 00 00 00 00 00 00 00 00 00 00
90: 00 00 00 00 00 00 00 00 00 00 00 00 00 00 00 00
a0: 00 00 00 00 00 00 00 00 00 00 00 00 00 00 00 00
b0: 00 00 00 00 00 00 00 00 00 00 00 00 00 00 00 00
c0: 00 00 00 00 00 00 00 00 00 00 00 00 00 00 00 00
d0: 00 00 00 00 00 00 00 00 00 00 00 00 00 00 00 00
e0: 00 00 00 00 00 00 00 00 00 00 00 00 00 00 00 00
f0: 00 00 00 00 00 00 00 00 00 00 00 00 00 00 00 00

00:04.0 ISA bridge: VIA Technologies, Inc. VT82C686 [Apollo Super] (rev 22)
        Subsystem: Asustek Computer, Inc.: Unknown device 8033
        Control: I/O+ Mem+ BusMaster+ SpecCycle- MemWINV- VGASnoop- ParErr- Stepping+ SERR- FastB2B-
        Status: Cap+ 66Mhz- UDF- FastB2B- ParErr- DEVSEL=medium >TAbort- <TAbort- <MAbort- >SERR- <PERR-
        Latency: 0
00: 06 11 86 06 87 00 10 02 22 00 01 06 00 00 80 00
10: 00 00 00 00 00 00 00 00 00 00 00 00 00 00 00 00
20: 00 00 00 00 00 00 00 00 00 00 00 00 43 10 33 80
30: 00 00 00 00 00 00 00 00 00 00 00 00 00 00 00 00
40: 08 41 00 00 00 80 62 e6 01 00 44 00 00 00 00 f3
50: 0e 76 34 00 00 b0 5a 90 00 04 ff 08 80 00 00 00
60: 00 00 00 00 00 00 00 00 00 00 00 00 00 00 00 00
70: 00 00 00 00 25 08 40 82 00 00 00 00 00 00 00 00
80: 00 00 00 00 00 0d 00 00 00 00 00 00 00 00 00 00
90: 00 00 00 00 00 00 00 00 00 00 00 00 00 00 00 00
a0: 00 00 00 00 00 00 00 00 00 00 00 00 00 00 00 00
b0: 00 00 00 00 00 00 00 00 00 00 00 00 00 00 00 00
c0: 01 00 02 00 00 00 00 00 00 00 00 00 00 00 00 00
d0: 00 00 00 00 00 00 00 00 00 00 00 00 00 00 00 00
e0: 00 00 00 00 00 00 00 00 00 00 00 00 00 00 00 00
f0: 00 00 00 00 00 00 00 00 00 00 00 00 00 00 00 00

00:04.1 IDE interface: VIA Technologies, Inc. VT82C586 IDE [Apollo] (rev 10) (prog-if 8a [Master SecP PriP])
        Control: I/O+ Mem+ BusMaster+ SpecCycle- MemWINV- VGASnoop- ParErr- Stepping- SERR- FastB2B-
        Status: Cap+ 66Mhz- UDF- FastB2B+ ParErr- DEVSEL=medium >TAbort- <TAbort- <MAbort- >SERR- <PERR-
        Latency: 32
        Region 4: I/O ports at d800 [size=16]
        Capabilities: [c0] Power Management version 2
                Flags: PMEClk- DSI- D1- D2- AuxCurrent=0mA PME(D0-,D1-,D2-,D3hot-,D3cold-)
                Status: D0 PME-Enable- DSel=0 DScale=0 PME-
00: 06 11 71 05 07 00 90 02 10 8a 01 01 00 20 00 00
10: 00 00 00 00 00 00 00 00 00 00 00 00 00 00 00 00
20: 01 d8 00 00 00 00 00 00 00 00 00 00 00 00 00 00
30: 00 00 00 00 c0 00 00 00 00 00 00 00 00 00 00 00
40: 03 02 08 3a 08 1c c0 00 a8 a8 a8 20 3f 00 ff 20
50: 0f 07 0f 07 14 00 00 00 a8 a8 a8 a8 00 00 00 00
60: 00 02 00 00 00 00 00 00 00 02 00 00 00 00 00 00
70: 02 01 00 00 00 00 00 00 82 01 00 00 00 00 00 00
80: 00 00 00 00 00 00 00 00 00 00 00 00 00 00 00 00
90: 00 00 00 00 00 00 00 00 00 00 00 00 00 00 00 00
a0: 00 00 00 00 00 00 00 00 00 00 00 00 00 00 00 00
b0: 00 00 00 00 00 00 00 00 00 00 00 00 00 00 00 00
c0: 01 00 02 00 00 00 00 00 00 00 00 00 00 00 00 00
d0: 10 00 71 05 00 00 00 00 00 00 00 00 00 00 00 00
e0: 00 00 00 00 00 00 00 00 00 00 00 00 00 00 00 00
f0: 00 00 00 00 00 00 00 00 00 00 00 00 00 00 00 00

00:04.2 USB Controller: VIA Technologies, Inc. VT82C586B USB (rev 10) (prog-if 00 [UHCI])
        Subsystem: Unknown device 0925:1234
        Control: I/O+ Mem+ BusMaster+ SpecCycle- MemWINV+ VGASnoop- ParErr- Stepping- SERR- FastB2B-
        Status: Cap+ 66Mhz- UDF- FastB2B- ParErr- DEVSEL=medium >TAbort- <TAbort- <MAbort- >SERR- <PERR-
        Latency: 32, cache line size 08
        Interrupt: pin D routed to IRQ 9
        Region 4: I/O ports at d400 [size=32]
        Capabilities: [80] Power Management version 2
                Flags: PMEClk- DSI- D1- D2- AuxCurrent=0mA PME(D0-,D1-,D2-,D3hot-,D3cold-)
                Status: D0 PME-Enable- DSel=0 DScale=0 PME-
00: 06 11 38 30 17 00 10 02 10 00 03 0c 08 20 00 00
10: 00 00 00 00 00 00 00 00 00 00 00 00 00 00 00 00
20: 01 d4 00 00 00 00 00 00 00 00 00 00 25 09 34 12
30: 00 00 00 00 80 00 00 00 00 00 00 00 09 04 00 00
40: 00 12 03 00 c6 00 31 d0 00 00 00 00 00 00 00 00
50: 00 00 00 00 00 00 00 00 00 00 00 00 00 00 00 00
60: 10 00 00 00 00 00 00 00 00 00 00 00 00 00 00 00
70: 00 00 00 00 00 00 00 00 00 00 00 00 00 00 00 00
80: 01 00 02 00 00 00 00 00 00 00 00 00 00 00 00 00
90: 00 00 00 00 00 00 00 00 00 00 00 00 00 00 00 00
a0: 00 00 00 00 00 00 00 00 00 00 00 00 00 00 00 00
b0: 00 00 00 00 00 00 00 00 00 00 00 00 00 00 00 00
c0: 00 20 00 00 00 00 00 00 00 00 00 00 00 00 00 00
d0: 00 00 00 00 00 00 00 00 00 00 00 00 00 00 00 00
e0: 00 00 00 00 00 00 00 00 00 00 00 00 00 00 00 00
f0: 00 00 00 00 00 00 00 00 00 00 00 00 00 00 00 00

00:04.3 USB Controller: VIA Technologies, Inc. VT82C586B USB (rev 10) (prog-if 00 [UHCI])
        Subsystem: Unknown device 0925:1234
        Control: I/O+ Mem+ BusMaster+ SpecCycle- MemWINV+ VGASnoop- ParErr- Stepping- SERR- FastB2B-
        Status: Cap+ 66Mhz- UDF- FastB2B- ParErr- DEVSEL=medium >TAbort- <TAbort- <MAbort- >SERR- <PERR-
        Latency: 32, cache line size 08
        Interrupt: pin D routed to IRQ 9
        Region 4: I/O ports at d000 [size=32]
        Capabilities: [80] Power Management version 2
                Flags: PMEClk- DSI- D1- D2- AuxCurrent=0mA PME(D0-,D1-,D2-,D3hot-,D3cold-)
                Status: D0 PME-Enable- DSel=0 DScale=0 PME-
00: 06 11 38 30 17 00 10 02 10 00 03 0c 08 20 00 00
10: 00 00 00 00 00 00 00 00 00 00 00 00 00 00 00 00
20: 01 d0 00 00 00 00 00 00 00 00 00 00 25 09 34 12
30: 00 00 00 00 80 00 00 00 00 00 00 00 09 04 00 00
40: 00 12 03 00 c2 00 11 18 00 00 00 00 00 00 00 00
50: 00 00 00 00 00 00 00 00 00 00 00 00 00 00 00 00
60: 10 00 00 00 00 00 00 00 00 00 00 00 00 00 00 00
70: 00 00 00 00 00 00 00 00 00 00 00 00 00 00 00 00
80: 01 00 02 00 00 00 00 00 00 00 00 00 00 00 00 00
90: 00 00 00 00 00 00 00 00 00 00 00 00 00 00 00 00
a0: 00 00 00 00 00 00 00 00 00 00 00 00 00 00 00 00
b0: 00 00 00 00 00 00 00 00 00 00 00 00 00 00 00 00
c0: 00 20 00 00 00 00 00 00 00 00 00 00 00 00 00 00
d0: 00 00 00 00 00 00 00 00 00 00 00 00 00 00 00 00
e0: 00 00 00 00 00 00 00 00 00 00 00 00 00 00 00 00
f0: 00 00 00 00 00 00 00 00 00 00 00 00 00 00 00 00

00:04.4 Bridge: VIA Technologies, Inc. VT82C686 [Apollo Super ACPI] (rev 30)
        Subsystem: Asustek Computer, Inc.: Unknown device 8033
        Control: I/O- Mem- BusMaster- SpecCycle- MemWINV- VGASnoop- ParErr- Stepping- SERR- FastB2B-
        Status: Cap+ 66Mhz- UDF- FastB2B+ ParErr- DEVSEL=medium >TAbort- <TAbort- <MAbort- >SERR- <PERR-
        Interrupt: pin ? routed to IRQ 9
        Capabilities: [68] Power Management version 2
                Flags: PMEClk- DSI- D1- D2- AuxCurrent=0mA PME(D0-,D1-,D2-,D3hot-,D3cold-)
                Status: D0 PME-Enable- DSel=0 DScale=0 PME-
00: 06 11 57 30 00 00 90 02 30 00 80 06 00 00 00 00
10: 00 00 00 00 00 00 00 00 00 00 00 00 00 00 00 00
20: 00 00 00 00 00 00 00 00 00 00 00 00 43 10 33 80
30: 00 00 00 00 68 00 00 00 00 00 00 00 00 00 00 00
40: 20 80 49 00 1a 10 00 00 01 e4 00 00 48 10 00 00
50: 00 ff ff 04 90 04 00 00 00 ff ff 00 43 10 33 80
60: 00 00 00 00 00 00 00 00 01 00 02 00 00 00 00 00
70: 01 e2 00 00 00 00 00 00 00 00 00 00 00 00 00 00
80: 00 00 00 00 00 00 00 00 00 00 00 00 00 00 00 00
90: 01 e8 00 00 00 00 00 00 00 00 00 00 00 00 00 00
a0: 00 00 00 00 00 00 00 00 00 00 00 00 00 00 00 00
b0: 00 00 00 00 00 00 00 00 00 00 00 00 00 00 00 00
c0: 00 00 00 00 00 00 00 00 00 00 00 00 00 00 00 00
d0: 00 00 01 00 00 00 00 00 00 00 00 00 00 00 00 00
e0: 00 00 00 00 00 00 00 00 00 00 00 00 00 00 00 00
f0: 00 00 00 00 00 00 00 00 00 00 00 00 00 00 00 00
