Return-Path: <linux-kernel-owner+willy=40w.ods.org@vger.kernel.org>
Received: (majordomo@vger.kernel.org) by vger.kernel.org via listexpand
	id S262882AbTJGVbp (ORCPT <rfc822;willy@w.ods.org>);
	Tue, 7 Oct 2003 17:31:45 -0400
Received: (majordomo@vger.kernel.org) by vger.kernel.org id S262898AbTJGVbp
	(ORCPT <rfc822;linux-kernel-outgoing>);
	Tue, 7 Oct 2003 17:31:45 -0400
Received: from irq.dk ([194.255.237.167]:50345 "EHLO irq.dk")
	by vger.kernel.org with ESMTP id S262882AbTJGV2f (ORCPT
	<rfc822;linux-kernel@vger.kernel.org>);
	Tue, 7 Oct 2003 17:28:35 -0400
Date: Tue, 7 Oct 2003 23:28:28 +0200
From: Thomas =?iso-8859-1?Q?Kj=E6r?= <lkml@lnx.dk>
To: Lionel Bouton <Lionel.Bouton@inet6.fr>
Cc: Linux Kernel Mailing List <linux-kernel@vger.kernel.org>
Subject: Re: IDE errors with 2.6.0-test* and SIS5513
Message-ID: <20031007212828.GA3639@irq.dk>
References: <20031006193401.GA30170@irq.dk> <3F82C69E.5060609@inet6.fr>
Mime-Version: 1.0
Content-Type: multipart/mixed; boundary="gKMricLos+KVdGMg"
Content-Disposition: inline
Content-Transfer-Encoding: 8bit
In-Reply-To: <3F82C69E.5060609@inet6.fr>
User-Agent: Mutt/1.3.28i
X-GPG-Fingerprint: 38E0 7B25 318D FB76 73DA  AC9A 5DBE B267 638D 3661
X-GPG-URL: http://lnx.dk/gpg.txt
Sender: linux-kernel-owner@vger.kernel.org
X-Mailing-List: linux-kernel@vger.kernel.org


--gKMricLos+KVdGMg
Content-Type: text/plain; charset=iso-8859-1
Content-Disposition: inline
Content-Transfer-Encoding: 8bit

On Tue, Oct 07, 2003 at 03:58:54PM +0200, Lionel Bouton wrote:
> Thomas Kjær said the following on 10/06/2003 09:34 PM:
> >
> >I'm having problems with the 2.6 kernels and the SIS5513 IDE chipset.
> >
> 
> Does kernel parameter noapic change anything ?

noapic didn't help, no.


> Could you attach your .config file and the output of lspci -vvxxx ?

I've attached both to this mail.  And note that I've had the problem
with many different configurations (with and without SIS5513 etc.), as
I wrote in my previous mail.


-- 
  Thomas Kjær

--gKMricLos+KVdGMg
Content-Type: text/plain; charset=us-ascii
Content-Disposition: attachment; filename=lspci_-vvxxx

00:00.0 Host bridge: Silicon Integrated Systems [SiS] SiS651 Host (rev 02)
	Subsystem: Asustek Computer, Inc.: Unknown device 8081
	Control: I/O+ Mem+ BusMaster+ SpecCycle- MemWINV- VGASnoop- ParErr- Stepping- SERR- FastB2B-
	Status: Cap+ 66Mhz- UDF- FastB2B- ParErr- DEVSEL=medium >TAbort- <TAbort- <MAbort+ >SERR- <PERR-
	Latency: 32
	Region 0: Memory at f4000000 (32-bit, non-prefetchable) [size=64M]
	Capabilities: [c0] AGP version 2.0
		Status: RQ=32 Iso- ArqSz=0 Cal=0 SBA+ ITACoh- GART64- HTrans- 64bit- FW+ AGP3- Rate=x1,x2,x4
		Command: RQ=1 ArqSz=0 Cal=0 SBA- AGP- GART64- 64bit- FW- Rate=<none>
00: 39 10 51 06 07 00 10 22 02 00 00 06 00 20 80 00
10: 00 00 00 f4 00 00 00 00 00 00 00 00 00 00 00 00
20: 00 00 00 00 00 00 00 00 00 00 00 00 43 10 81 80
30: 00 00 00 00 c0 00 00 00 00 00 00 00 00 00 00 00
40: 00 00 00 00 00 00 00 00 00 00 00 00 00 00 00 00
50: fe 09 70 8b 03 13 b7 00 42 25 c8 50 12 d5 f2 00
60: 6b 6b 6d 00 03 00 9b 80 00 00 e0 00 48 02 00 00
70: 07 9f 00 00 02 00 61 00 00 00 00 00 82 00 15 00
80: 22 26 30 03 85 00 80 2b 20 0c 00 01 00 00 04 40
90: 00 00 00 00 40 04 00 01 00 16 74 10 00 00 00 00
a0: c2 d4 33 c2 03 03 01 77 00 50 60 c2 42 01 00 04
b0: 00 00 00 10 80 00 00 4f 54 6a 30 33 00 00 00 00
c0: 02 00 20 00 17 02 00 1f 00 00 00 00 00 00 00 00
d0: 22 02 31 02 49 ff ff 01 60 60 aa 00 00 80 00 00
e0: 00 00 00 00 00 00 00 00 00 00 00 00 00 00 00 00
f0: 00 00 00 00 00 00 00 00 00 00 00 00 00 00 00 00

00:01.0 PCI bridge: Silicon Integrated Systems [SiS] SiS 530 Virtual PCI-to-PCI bridge (AGP) (prog-if 00 [Normal decode])
	Control: I/O+ Mem+ BusMaster+ SpecCycle- MemWINV- VGASnoop- ParErr- Stepping- SERR- FastB2B-
	Status: Cap- 66Mhz- UDF- FastB2B- ParErr- DEVSEL=fast >TAbort- <TAbort- <MAbort- >SERR- <PERR-
	Latency: 0
	Bus: primary=00, secondary=01, subordinate=01, sec-latency=0
	Memory behind bridge: f3000000-f3ffffff
	Prefetchable memory behind bridge: fbf00000-febfffff
	BridgeCtl: Parity- SERR- NoISA- VGA+ MAbort- >Reset- FastB2B-
00: 39 10 01 00 07 00 00 00 00 00 04 06 00 00 01 00
10: 00 00 00 00 00 00 00 00 00 01 01 00 e0 d0 00 20
20: 00 f3 f0 f3 f0 fb b0 fe 00 00 00 00 00 00 00 00
30: 00 00 00 00 00 00 00 00 00 00 00 00 00 00 08 00
40: 00 00 00 00 00 00 00 00 00 00 00 00 00 00 00 00
50: 00 00 00 00 00 00 00 00 00 00 00 00 00 00 00 00
60: 00 00 00 00 00 00 00 00 00 00 00 00 00 00 00 00
70: 00 00 00 00 00 00 00 00 00 00 00 00 00 00 00 00
80: 00 00 00 00 00 00 00 00 00 00 00 00 00 00 00 00
90: 00 00 00 00 00 00 00 00 00 00 00 00 00 00 00 00
a0: 00 00 00 00 00 00 00 00 00 00 00 00 00 00 00 00
b0: 00 00 00 00 00 00 00 00 00 00 00 00 00 00 00 00
c0: 00 00 00 00 00 00 00 00 00 00 00 00 00 00 00 00
d0: 00 00 00 00 00 00 00 00 00 00 00 00 00 00 00 00
e0: 00 00 00 00 00 00 00 00 00 00 00 00 00 00 00 00
f0: 00 00 00 00 00 00 00 00 00 00 00 00 00 00 00 00

00:02.0 ISA bridge: Silicon Integrated Systems [SiS] SiS962 [MuTIOL Media IO] (rev 25)
	Control: I/O+ Mem+ BusMaster+ SpecCycle+ MemWINV- VGASnoop- ParErr- Stepping- SERR- FastB2B-
	Status: Cap- 66Mhz- UDF- FastB2B- ParErr- DEVSEL=medium >TAbort- <TAbort- <MAbort- >SERR- <PERR-
	Latency: 0
00: 39 10 62 09 0f 00 00 02 25 00 01 06 00 00 80 00
10: 00 00 00 00 00 00 00 00 00 00 00 00 00 00 00 00
20: 00 00 00 00 00 00 00 00 00 00 00 00 00 00 00 00
30: 00 00 00 00 00 00 00 00 00 00 00 00 00 00 00 00
40: d8 0b 0b 0a 03 00 3d 0c 10 00 00 00 11 20 04 01
50: 11 28 02 01 60 0b 66 0b a9 04 12 00 4d 17 00 00
60: 05 06 80 09 00 c1 00 12 09 80 00 42 b7 00 02 80
70: 00 00 ff ff 00 e4 02 08 00 00 20 00 02 00 00 00
80: 00 00 00 00 00 00 00 00 00 00 00 00 00 00 00 00
90: ff 00 00 00 00 00 00 00 00 00 00 00 00 00 00 00
a0: 00 00 00 00 00 00 00 00 00 00 00 00 00 00 00 00
b0: 00 00 00 00 00 00 00 00 00 00 00 00 00 00 00 00
c0: 00 00 00 00 00 00 00 00 00 00 00 00 00 00 00 00
d0: 00 00 00 00 00 00 00 00 00 00 00 00 00 00 00 00
e0: 40 00 00 80 7c 00 04 00 02 01 00 00 00 00 00 00
f0: 0a 00 00 00 00 00 00 00 00 00 00 00 00 00 00 00

00:02.1 SMBus: Silicon Integrated Systems [SiS]: Unknown device 0016
	Control: I/O+ Mem- BusMaster- SpecCycle- MemWINV- VGASnoop- ParErr- Stepping- SERR- FastB2B-
	Status: Cap- 66Mhz- UDF- FastB2B+ ParErr- DEVSEL=medium >TAbort- <TAbort- <MAbort- >SERR- <PERR-
	Interrupt: pin B routed to IRQ 11
	Region 4: I/O ports at e600 [size=32]
00: 39 10 16 00 01 00 80 02 00 00 05 0c 00 00 00 00
10: 00 00 00 00 00 00 00 00 00 00 00 00 00 00 00 00
20: 01 e6 00 00 00 00 00 00 00 00 00 00 00 00 00 00
30: 00 00 00 00 00 00 00 00 00 00 00 00 00 02 00 00
40: 01 00 00 00 00 00 00 00 00 00 00 00 00 00 00 00
50: 00 00 00 00 00 00 00 00 00 00 00 00 00 00 00 00
60: 00 00 00 00 00 00 00 00 00 00 00 00 00 00 00 00
70: 00 00 00 00 00 00 00 00 00 00 00 00 00 00 00 00
80: 00 00 00 00 00 00 00 00 00 00 00 00 00 00 00 00
90: 00 00 00 00 00 00 00 00 00 00 00 00 00 00 00 00
a0: 00 00 00 00 00 00 00 00 00 00 00 00 00 00 00 00
b0: 00 00 00 00 00 00 00 00 00 00 00 00 00 00 00 00
c0: 00 00 00 00 00 00 00 00 00 00 00 00 00 00 00 00
d0: 00 00 00 00 00 00 00 00 00 00 00 00 00 00 00 00
e0: 00 00 00 00 00 00 00 00 00 00 00 00 00 00 00 00
f0: 00 00 00 00 00 00 00 00 00 00 00 00 00 00 00 00

00:02.5 IDE interface: Silicon Integrated Systems [SiS] 5513 [IDE] (prog-if 80 [Master])
	Subsystem: Asustek Computer, Inc.: Unknown device 807a
	Control: I/O+ Mem- BusMaster+ SpecCycle- MemWINV- VGASnoop- ParErr- Stepping- SERR- FastB2B-
	Status: Cap- 66Mhz- UDF- FastB2B- ParErr- DEVSEL=medium >TAbort- <TAbort- <MAbort- >SERR- <PERR-
	Latency: 128
	Interrupt: pin ? routed to IRQ 11
	Region 4: I/O ports at b400 [size=16]
00: 39 10 13 55 05 00 00 02 00 80 01 01 00 80 00 00
10: 00 00 00 00 00 00 00 00 00 00 00 00 00 00 00 00
20: 01 b4 00 00 00 00 00 00 00 00 00 00 43 10 7a 80
30: 00 00 00 00 00 00 00 00 00 00 00 00 00 00 00 00
40: 00 00 00 00 00 00 00 00 00 00 06 00 00 00 00 00
50: f2 00 f2 00 2a 96 d5 c0 00 00 00 00 00 00 00 00
60: fb aa fb aa 00 00 00 00 00 00 00 00 00 00 00 00
70: 1f 32 09 05 02 90 26 28 7e 34 09 05 1f 32 09 05
80: 00 00 00 00 00 00 00 00 00 00 00 00 00 00 00 00
90: 00 00 00 00 00 00 00 00 00 00 00 00 00 00 00 00
a0: 00 00 00 00 00 00 00 00 00 00 00 00 00 00 00 00
b0: 00 00 00 00 00 00 00 00 00 00 00 00 00 00 00 00
c0: 00 00 00 00 00 00 00 00 00 00 00 00 00 00 00 00
d0: 00 00 00 00 00 00 00 00 00 00 00 00 00 00 00 00
e0: 00 00 00 00 00 00 00 00 00 00 00 00 00 00 00 00
f0: 00 00 00 00 00 00 00 00 00 00 00 00 00 00 00 00

00:02.7 Multimedia audio controller: Silicon Integrated Systems [SiS] SiS7012 PCI Audio Accelerator (rev a0)
	Subsystem: Asustek Computer, Inc.: Unknown device 80b0
	Control: I/O+ Mem- BusMaster+ SpecCycle- MemWINV- VGASnoop- ParErr- Stepping- SERR- FastB2B-
	Status: Cap+ 66Mhz- UDF- FastB2B+ ParErr- DEVSEL=medium >TAbort- <TAbort- <MAbort- >SERR- <PERR-
	Latency: 32 (13000ns min, 2750ns max)
	Interrupt: pin C routed to IRQ 10
	Region 0: I/O ports at a400 [size=256]
	Region 1: I/O ports at a000 [size=128]
	Capabilities: [48] Power Management version 2
		Flags: PMEClk- DSI- D1+ D2+ AuxCurrent=55mA PME(D0-,D1-,D2-,D3hot+,D3cold+)
		Status: D0 PME-Enable- DSel=0 DScale=0 PME-
00: 39 10 12 70 05 00 90 02 a0 00 01 04 00 20 00 00
10: 01 a4 00 00 01 a0 00 00 00 00 00 00 00 00 00 00
20: 00 00 00 00 00 00 00 00 00 00 00 00 43 10 b0 80
30: 00 00 00 00 48 00 00 00 00 00 00 00 0a 03 34 0b
40: 04 00 00 00 00 00 00 00 01 00 42 c6 00 00 00 00
50: 00 00 00 00 00 00 00 00 00 00 00 00 00 00 00 00
60: 00 00 00 00 00 00 00 00 00 00 00 00 00 00 00 00
70: 00 00 00 00 00 00 00 00 00 00 00 00 00 00 00 00
80: 00 00 00 00 00 00 00 00 00 00 00 00 00 00 00 00
90: 00 00 00 00 00 00 00 00 00 00 00 00 00 00 00 00
a0: 00 00 00 00 00 00 00 00 00 00 00 00 00 00 00 00
b0: 00 00 00 00 00 00 00 00 00 00 00 00 00 00 00 00
c0: 00 00 00 00 00 00 00 00 00 00 00 00 00 00 00 00
d0: 00 00 00 00 00 00 00 00 00 00 00 00 00 00 00 00
e0: 00 00 00 00 00 00 00 00 00 00 00 00 00 00 00 00
f0: 02 00 00 00 00 00 00 00 00 00 00 00 00 00 00 00

00:03.0 USB Controller: Silicon Integrated Systems [SiS] SiS7001 USB Controller (rev 0f) (prog-if 10 [OHCI])
	Subsystem: Asustek Computer, Inc.: Unknown device 807a
	Control: I/O+ Mem+ BusMaster+ SpecCycle- MemWINV+ VGASnoop- ParErr- Stepping- SERR- FastB2B-
	Status: Cap- 66Mhz- UDF- FastB2B+ ParErr- DEVSEL=medium >TAbort- <TAbort- <MAbort- >SERR- <PERR-
	Latency: 32 (20000ns max), cache line size 08
	Interrupt: pin A routed to IRQ 5
	Region 0: Memory at f2800000 (32-bit, non-prefetchable) [size=4K]
00: 39 10 01 70 17 00 80 02 0f 10 03 0c 08 20 80 00
10: 00 00 80 f2 00 00 00 00 00 00 00 00 00 00 00 00
20: 00 00 00 00 00 00 00 00 00 00 00 00 43 10 7a 80
30: 00 00 00 00 00 00 00 00 00 00 00 00 05 01 00 50
40: 00 00 00 00 5c ac 01 00 3f 02 00 00 00 00 00 00
50: 00 00 00 00 00 00 00 00 00 00 00 00 00 00 00 00
60: 00 00 00 00 00 00 00 00 00 00 00 00 00 00 00 00
70: 00 00 00 00 00 00 00 00 00 00 00 00 00 00 00 00
80: 00 00 00 00 00 00 00 00 00 00 00 00 00 00 00 00
90: 00 00 00 00 00 00 00 00 00 00 00 00 00 00 00 00
a0: 00 00 00 00 00 00 00 00 00 00 00 00 00 00 00 00
b0: 00 00 00 00 00 00 00 00 00 00 00 00 00 00 00 00
c0: 00 00 00 00 00 00 00 00 00 00 00 00 00 00 00 00
d0: 00 00 00 00 00 00 00 00 00 00 00 00 01 00 c2 c9
e0: 00 00 00 00 00 00 00 00 00 00 00 00 00 00 00 00
f0: 00 00 00 00 00 00 00 00 00 00 00 00 00 00 00 00

00:03.1 USB Controller: Silicon Integrated Systems [SiS] SiS7001 USB Controller (rev 0f) (prog-if 10 [OHCI])
	Subsystem: Asustek Computer, Inc.: Unknown device 807a
	Control: I/O+ Mem+ BusMaster+ SpecCycle- MemWINV+ VGASnoop- ParErr- Stepping- SERR- FastB2B-
	Status: Cap- 66Mhz- UDF- FastB2B+ ParErr- DEVSEL=medium >TAbort- <TAbort- <MAbort- >SERR- <PERR-
	Latency: 32 (20000ns max), cache line size 08
	Interrupt: pin B routed to IRQ 6
	Region 0: Memory at f2000000 (32-bit, non-prefetchable) [size=4K]
00: 39 10 01 70 17 00 80 02 0f 10 03 0c 08 20 00 00
10: 00 00 00 f2 00 00 00 00 00 00 00 00 00 00 00 00
20: 00 00 00 00 00 00 00 00 00 00 00 00 43 10 7a 80
30: 00 00 00 00 00 00 00 00 00 00 00 00 06 02 00 50
40: 00 00 00 00 5c ac 01 00 3f 02 00 00 00 00 00 00
50: 00 00 00 00 00 00 00 00 00 00 00 00 00 00 00 00
60: 00 00 00 00 00 00 00 00 00 00 00 00 00 00 00 00
70: 00 00 00 00 00 00 00 00 00 00 00 00 00 00 00 00
80: 00 00 00 00 00 00 00 00 00 00 00 00 00 00 00 00
90: 00 00 00 00 00 00 00 00 00 00 00 00 00 00 00 00
a0: 00 00 00 00 00 00 00 00 00 00 00 00 00 00 00 00
b0: 00 00 00 00 00 00 00 00 00 00 00 00 00 00 00 00
c0: 00 00 00 00 00 00 00 00 00 00 00 00 00 00 00 00
d0: 00 00 00 00 00 00 00 00 00 00 00 00 01 00 c2 c9
e0: 00 00 00 00 00 00 00 00 00 00 00 00 00 00 00 00
f0: 00 00 00 00 00 00 00 00 00 00 00 00 00 00 00 00

00:03.3 USB Controller: Silicon Integrated Systems [SiS] SiS7002 USB 2.0 (prog-if 20 [EHCI])
	Subsystem: Asustek Computer, Inc.: Unknown device 807a
	Control: I/O- Mem+ BusMaster+ SpecCycle- MemWINV- VGASnoop- ParErr- Stepping- SERR- FastB2B-
	Status: Cap+ 66Mhz- UDF- FastB2B+ ParErr- DEVSEL=medium >TAbort- <TAbort- <MAbort- >SERR- <PERR-
	Latency: 32 (20000ns max)
	Interrupt: pin D routed to IRQ 9
	Region 0: Memory at f1800000 (32-bit, non-prefetchable) [size=4K]
	Capabilities: [50] Power Management version 2
		Flags: PMEClk- DSI- D1- D2- AuxCurrent=375mA PME(D0+,D1-,D2-,D3hot+,D3cold+)
		Status: D0 PME-Enable- DSel=0 DScale=0 PME-
00: 39 10 02 70 06 00 90 02 00 20 03 0c 00 20 00 00
10: 00 00 80 f1 00 00 00 00 00 00 00 00 00 00 00 00
20: 00 00 00 00 00 00 00 00 00 00 00 00 43 10 7a 80
30: 00 00 00 00 50 00 00 00 00 00 00 00 09 04 00 50
40: 20 00 00 08 00 00 00 00 00 00 00 00 00 00 00 00
50: 01 00 c2 c9 00 00 00 00 0a 00 00 21 00 00 00 00
60: 20 20 7f 00 00 00 00 00 00 00 00 00 00 00 00 00
70: 01 00 00 00 00 00 0c c0 00 00 00 00 00 00 00 00
80: 00 00 00 00 00 00 00 00 00 00 00 00 00 00 00 00
90: 00 00 00 00 00 00 00 00 00 00 00 00 00 00 00 00
a0: 00 00 00 00 00 00 00 00 00 00 00 00 00 00 00 00
b0: 00 00 00 00 00 00 00 00 00 00 00 00 00 00 00 00
c0: 00 00 00 00 00 00 00 00 00 00 00 00 00 00 00 00
d0: 00 00 00 00 00 00 00 00 00 00 00 00 00 00 00 00
e0: 00 00 00 00 00 00 00 00 00 00 00 00 00 00 00 00
f0: 00 00 00 00 00 00 00 00 00 00 00 00 00 00 00 00

00:04.0 Ethernet controller: Silicon Integrated Systems [SiS] SiS900 10/100 Ethernet (rev 91)
	Subsystem: Asustek Computer, Inc.: Unknown device 80a7
	Control: I/O+ Mem+ BusMaster+ SpecCycle- MemWINV- VGASnoop- ParErr- Stepping- SERR- FastB2B-
	Status: Cap+ 66Mhz- UDF- FastB2B+ ParErr- DEVSEL=medium >TAbort- <TAbort- <MAbort- >SERR- <PERR-
	Latency: 32 (13000ns min, 2750ns max)
	Interrupt: pin A routed to IRQ 3
	Region 0: I/O ports at 9800 [size=256]
	Region 1: Memory at f1000000 (32-bit, non-prefetchable) [size=4K]
	Expansion ROM at fbee0000 [disabled] [size=128K]
	Capabilities: [40] Power Management version 2
		Flags: PMEClk- DSI- D1+ D2+ AuxCurrent=0mA PME(D0+,D1+,D2+,D3hot+,D3cold+)
		Status: D0 PME-Enable- DSel=0 DScale=0 PME-
00: 39 10 00 09 07 00 90 02 91 00 00 02 00 20 00 00
10: 01 98 00 00 00 00 00 f1 00 00 00 00 00 00 00 00
20: 00 00 00 00 00 00 00 00 00 00 00 00 43 10 a7 80
30: 00 00 ee fb 40 00 00 00 00 00 00 00 03 01 34 0b
40: 01 00 02 fe 00 00 00 00 00 00 00 00 00 00 00 00
50: 01 00 00 00 00 00 00 00 00 00 00 00 00 00 00 00
60: 00 00 00 00 00 00 00 00 00 00 00 00 00 00 00 00
70: 00 00 00 00 00 00 00 00 00 00 00 00 00 00 00 00
80: 00 00 00 00 00 00 00 00 00 00 00 00 00 00 00 00
90: 00 00 00 00 00 00 00 00 00 00 00 00 00 00 00 00
a0: 00 00 00 00 00 00 00 00 00 00 00 00 00 00 00 00
b0: 00 00 00 00 00 00 00 00 00 00 00 00 00 00 00 00
c0: 00 00 00 00 00 00 00 00 00 00 00 00 00 00 00 00
d0: 00 00 00 00 00 00 00 00 00 00 00 00 00 00 00 00
e0: 00 00 00 00 00 00 00 00 00 00 00 00 00 00 00 00
f0: 91 00 00 00 00 00 00 00 00 00 00 00 00 00 00 00

01:00.0 VGA compatible controller: Matrox Graphics, Inc. MGA G550 AGP (rev 01) (prog-if 00 [VGA])
	Subsystem: Matrox Graphics, Inc. Millennium G550 Dual Head DDR 32Mb
	Control: I/O+ Mem+ BusMaster+ SpecCycle- MemWINV- VGASnoop- ParErr- Stepping- SERR- FastB2B-
	Status: Cap+ 66Mhz- UDF- FastB2B+ ParErr- DEVSEL=medium >TAbort- <TAbort- <MAbort- >SERR- <PERR-
	Latency: 64 (4000ns min, 8000ns max), cache line size 08
	Interrupt: pin A routed to IRQ 11
	Region 0: Memory at fc000000 (32-bit, prefetchable) [size=32M]
	Region 1: Memory at f3800000 (32-bit, non-prefetchable) [size=16K]
	Region 2: Memory at f3000000 (32-bit, non-prefetchable) [size=8M]
	Expansion ROM at fbfe0000 [disabled] [size=128K]
	Capabilities: [dc] Power Management version 2
		Flags: PMEClk- DSI+ D1- D2- AuxCurrent=0mA PME(D0-,D1-,D2-,D3hot-,D3cold-)
		Status: D0 PME-Enable- DSel=0 DScale=0 PME-
	Capabilities: [f0] AGP version 2.0
		Status: RQ=32 Iso- ArqSz=0 Cal=0 SBA+ ITACoh- GART64- HTrans- 64bit- FW- AGP3- Rate=x1,x2,x4
		Command: RQ=32 ArqSz=0 Cal=0 SBA+ AGP+ GART64- 64bit- FW- Rate=x1
00: 2b 10 27 25 07 00 90 02 01 00 00 03 08 40 00 00
10: 08 00 00 fc 00 00 80 f3 00 00 00 f3 00 00 00 00
20: 00 00 00 00 00 00 00 00 00 00 00 00 2b 10 84 0f
30: 00 00 fe fb dc 00 00 00 00 00 00 00 0b 01 10 20
40: 20 15 0a 40 08 3c 00 00 00 00 03 00 00 00 00 00
50: 00 ac 00 01 09 a4 90 00 04 0a 00 80 00 00 00 00
60: 00 00 00 00 00 00 00 00 00 00 00 00 00 00 00 00
70: 00 00 00 00 00 00 00 00 00 00 00 00 00 00 00 00
80: 00 00 00 00 00 00 00 00 00 00 00 00 00 00 00 00
90: 00 00 00 00 00 00 00 00 00 00 00 00 00 00 00 00
a0: 00 00 00 00 00 00 00 00 00 00 00 00 00 00 00 00
b0: 00 00 00 00 00 00 00 00 00 00 00 00 00 00 00 00
c0: 00 00 00 00 00 00 00 00 00 00 00 00 00 00 00 00
d0: 00 00 00 00 00 00 00 00 00 00 00 00 01 f0 22 00
e0: 00 00 00 00 00 00 00 00 00 00 00 00 00 00 00 00
f0: 02 00 20 00 07 02 00 1f 01 03 00 1f 00 00 00 00


--gKMricLos+KVdGMg
Content-Type: text/plain; charset=us-ascii
Content-Disposition: attachment; filename=dot-config

#
# Automatically generated make config: don't edit
#
CONFIG_X86=y
CONFIG_MMU=y
CONFIG_UID16=y
CONFIG_GENERIC_ISA_DMA=y

#
# Code maturity level options
#
CONFIG_EXPERIMENTAL=y
CONFIG_CLEAN_COMPILE=y
CONFIG_STANDALONE=y
CONFIG_BROKEN_ON_SMP=y

#
# General setup
#
CONFIG_SWAP=y
CONFIG_SYSVIPC=y
# CONFIG_BSD_PROCESS_ACCT is not set
CONFIG_SYSCTL=y
CONFIG_LOG_BUF_SHIFT=14
# CONFIG_IKCONFIG is not set
# CONFIG_EMBEDDED is not set
CONFIG_KALLSYMS=y
CONFIG_FUTEX=y
CONFIG_EPOLL=y
CONFIG_IOSCHED_NOOP=y
CONFIG_IOSCHED_AS=y
CONFIG_IOSCHED_DEADLINE=y

#
# Loadable module support
#
CONFIG_MODULES=y
# CONFIG_MODULE_UNLOAD is not set
CONFIG_OBSOLETE_MODPARM=y
# CONFIG_MODVERSIONS is not set
CONFIG_KMOD=y

#
# Processor type and features
#
CONFIG_X86_PC=y
# CONFIG_X86_VOYAGER is not set
# CONFIG_X86_NUMAQ is not set
# CONFIG_X86_SUMMIT is not set
# CONFIG_X86_BIGSMP is not set
# CONFIG_X86_VISWS is not set
# CONFIG_X86_GENERICARCH is not set
# CONFIG_X86_ES7000 is not set
# CONFIG_M386 is not set
# CONFIG_M486 is not set
# CONFIG_M586 is not set
# CONFIG_M586TSC is not set
# CONFIG_M586MMX is not set
# CONFIG_M686 is not set
# CONFIG_MPENTIUMII is not set
# CONFIG_MPENTIUMIII is not set
CONFIG_MPENTIUM4=y
# CONFIG_MK6 is not set
# CONFIG_MK7 is not set
# CONFIG_MK8 is not set
# CONFIG_MELAN is not set
# CONFIG_MCRUSOE is not set
# CONFIG_MWINCHIPC6 is not set
# CONFIG_MWINCHIP2 is not set
# CONFIG_MWINCHIP3D is not set
# CONFIG_MCYRIXIII is not set
# CONFIG_MVIAC3_2 is not set
# CONFIG_X86_GENERIC is not set
CONFIG_X86_CMPXCHG=y
CONFIG_X86_XADD=y
CONFIG_X86_L1_CACHE_SHIFT=7
CONFIG_RWSEM_XCHGADD_ALGORITHM=y
CONFIG_X86_WP_WORKS_OK=y
CONFIG_X86_INVLPG=y
CONFIG_X86_BSWAP=y
CONFIG_X86_POPAD_OK=y
CONFIG_X86_GOOD_APIC=y
CONFIG_X86_INTEL_USERCOPY=y
CONFIG_X86_USE_PPRO_CHECKSUM=y
# CONFIG_HPET_TIMER is not set
# CONFIG_HPET_EMULATE_RTC is not set
# CONFIG_SMP is not set
CONFIG_PREEMPT=y
# CONFIG_X86_UP_APIC is not set
CONFIG_X86_TSC=y
CONFIG_X86_MCE=y
CONFIG_X86_MCE_NONFATAL=y
# CONFIG_TOSHIBA is not set
# CONFIG_I8K is not set
# CONFIG_MICROCODE is not set
# CONFIG_X86_MSR is not set
# CONFIG_X86_CPUID is not set
# CONFIG_EDD is not set
# CONFIG_NOHIGHMEM is not set
CONFIG_HIGHMEM4G=y
# CONFIG_HIGHMEM64G is not set
CONFIG_HIGHMEM=y
# CONFIG_HIGHPTE is not set
# CONFIG_MATH_EMULATION is not set
CONFIG_MTRR=y
CONFIG_HAVE_DEC_LOCK=y

#
# Power management options (ACPI, APM)
#
CONFIG_PM=y
# CONFIG_SOFTWARE_SUSPEND is not set
# CONFIG_PM_DISK is not set

#
# ACPI (Advanced Configuration and Power Interface) Support
#
CONFIG_ACPI=y
CONFIG_ACPI_BOOT=y
CONFIG_ACPI_INTERPRETER=y
CONFIG_ACPI_SLEEP=y
CONFIG_ACPI_SLEEP_PROC_FS=y
CONFIG_ACPI_AC=m
CONFIG_ACPI_BATTERY=m
CONFIG_ACPI_BUTTON=m
CONFIG_ACPI_FAN=m
CONFIG_ACPI_PROCESSOR=m
CONFIG_ACPI_THERMAL=m
CONFIG_ACPI_ASUS=m
CONFIG_ACPI_TOSHIBA=m
# CONFIG_ACPI_DEBUG is not set
CONFIG_ACPI_BUS=y
CONFIG_ACPI_EC=y
CONFIG_ACPI_POWER=y
CONFIG_ACPI_PCI=y
CONFIG_ACPI_SYSTEM=y
# CONFIG_ACPI_RELAXED_AML is not set

#
# APM (Advanced Power Management) BIOS Support
#
CONFIG_APM=y
# CONFIG_APM_IGNORE_USER_SUSPEND is not set
# CONFIG_APM_DO_ENABLE is not set
# CONFIG_APM_CPU_IDLE is not set
# CONFIG_APM_DISPLAY_BLANK is not set
# CONFIG_APM_RTC_IS_GMT is not set
# CONFIG_APM_ALLOW_INTS is not set
# CONFIG_APM_REAL_MODE_POWER_OFF is not set

#
# CPU Frequency scaling
#
# CONFIG_CPU_FREQ is not set

#
# Bus options (PCI, PCMCIA, EISA, MCA, ISA)
#
CONFIG_PCI=y
# CONFIG_PCI_GOBIOS is not set
# CONFIG_PCI_GODIRECT is not set
CONFIG_PCI_GOANY=y
CONFIG_PCI_BIOS=y
CONFIG_PCI_DIRECT=y
CONFIG_PCI_LEGACY_PROC=y
CONFIG_PCI_NAMES=y
CONFIG_ISA=y
# CONFIG_EISA is not set
# CONFIG_MCA is not set
# CONFIG_SCx200 is not set
CONFIG_HOTPLUG=y

#
# PCMCIA/CardBus support
#
# CONFIG_PCMCIA is not set
CONFIG_PCMCIA_PROBE=y

#
# PCI Hotplug Support
#
# CONFIG_HOTPLUG_PCI is not set

#
# Executable file formats
#
CONFIG_BINFMT_ELF=y
CONFIG_BINFMT_AOUT=y
CONFIG_BINFMT_MISC=y

#
# Generic Driver Options
#
# CONFIG_FW_LOADER is not set

#
# Memory Technology Devices (MTD)
#
# CONFIG_MTD is not set

#
# Parallel port support
#
CONFIG_PARPORT=y
CONFIG_PARPORT_PC=y
CONFIG_PARPORT_PC_CML1=y
# CONFIG_PARPORT_SERIAL is not set
# CONFIG_PARPORT_PC_FIFO is not set
# CONFIG_PARPORT_PC_SUPERIO is not set
# CONFIG_PARPORT_OTHER is not set
# CONFIG_PARPORT_1284 is not set

#
# Plug and Play support
#
CONFIG_PNP=y
# CONFIG_PNP_DEBUG is not set

#
# Protocols
#
# CONFIG_ISAPNP is not set
# CONFIG_PNPBIOS is not set

#
# Block devices
#
CONFIG_BLK_DEV_FD=y
# CONFIG_BLK_DEV_XD is not set
# CONFIG_PARIDE is not set
# CONFIG_BLK_CPQ_DA is not set
# CONFIG_BLK_CPQ_CISS_DA is not set
# CONFIG_BLK_DEV_DAC960 is not set
# CONFIG_BLK_DEV_UMEM is not set
CONFIG_BLK_DEV_LOOP=y
CONFIG_BLK_DEV_CRYPTOLOOP=y
# CONFIG_BLK_DEV_NBD is not set
# CONFIG_BLK_DEV_RAM is not set
# CONFIG_BLK_DEV_INITRD is not set
CONFIG_LBD=y

#
# ATA/ATAPI/MFM/RLL support
#
CONFIG_IDE=y
CONFIG_BLK_DEV_IDE=y

#
# Please see Documentation/ide.txt for help/info on IDE drives
#
# CONFIG_BLK_DEV_HD_IDE is not set
CONFIG_BLK_DEV_IDEDISK=y
CONFIG_IDEDISK_MULTI_MODE=y
# CONFIG_IDEDISK_STROKE is not set
CONFIG_BLK_DEV_IDECD=y
# CONFIG_BLK_DEV_IDETAPE is not set
# CONFIG_BLK_DEV_IDEFLOPPY is not set
CONFIG_BLK_DEV_IDESCSI=y
# CONFIG_IDE_TASK_IOCTL is not set
CONFIG_IDE_TASKFILE_IO=y

#
# IDE chipset support/bugfixes
#
CONFIG_BLK_DEV_CMD640=y
# CONFIG_BLK_DEV_CMD640_ENHANCED is not set
# CONFIG_BLK_DEV_IDEPNP is not set
CONFIG_BLK_DEV_IDEPCI=y
CONFIG_IDEPCI_SHARE_IRQ=y
# CONFIG_BLK_DEV_OFFBOARD is not set
CONFIG_BLK_DEV_GENERIC=y
# CONFIG_BLK_DEV_OPTI621 is not set
CONFIG_BLK_DEV_RZ1000=y
CONFIG_BLK_DEV_IDEDMA_PCI=y
# CONFIG_BLK_DEV_IDE_TCQ is not set
# CONFIG_BLK_DEV_IDEDMA_FORCED is not set
CONFIG_IDEDMA_PCI_AUTO=y
# CONFIG_IDEDMA_ONLYDISK is not set
# CONFIG_IDEDMA_PCI_WIP is not set
CONFIG_BLK_DEV_ADMA=y
# CONFIG_BLK_DEV_AEC62XX is not set
# CONFIG_BLK_DEV_ALI15X3 is not set
# CONFIG_BLK_DEV_AMD74XX is not set
# CONFIG_BLK_DEV_CMD64X is not set
# CONFIG_BLK_DEV_TRIFLEX is not set
# CONFIG_BLK_DEV_CY82C693 is not set
# CONFIG_BLK_DEV_CS5520 is not set
# CONFIG_BLK_DEV_CS5530 is not set
# CONFIG_BLK_DEV_HPT34X is not set
# CONFIG_BLK_DEV_HPT366 is not set
# CONFIG_BLK_DEV_SC1200 is not set
CONFIG_BLK_DEV_PIIX=y
# CONFIG_BLK_DEV_NS87415 is not set
# CONFIG_BLK_DEV_PDC202XX_OLD is not set
# CONFIG_BLK_DEV_PDC202XX_NEW is not set
# CONFIG_BLK_DEV_SVWKS is not set
# CONFIG_BLK_DEV_SIIMAGE is not set
CONFIG_BLK_DEV_SIS5513=y
# CONFIG_BLK_DEV_SLC90E66 is not set
# CONFIG_BLK_DEV_TRM290 is not set
# CONFIG_BLK_DEV_VIA82CXXX is not set
# CONFIG_IDE_CHIPSETS is not set
CONFIG_BLK_DEV_IDEDMA=y
# CONFIG_IDEDMA_IVB is not set
CONFIG_IDEDMA_AUTO=y
# CONFIG_DMA_NONPCI is not set
# CONFIG_BLK_DEV_HD is not set

#
# SCSI device support
#
CONFIG_SCSI=y
CONFIG_SCSI_PROC_FS=y

#
# SCSI support type (disk, tape, CD-ROM)
#
CONFIG_BLK_DEV_SD=y
# CONFIG_CHR_DEV_ST is not set
# CONFIG_CHR_DEV_OSST is not set
CONFIG_BLK_DEV_SR=y
# CONFIG_BLK_DEV_SR_VENDOR is not set
CONFIG_CHR_DEV_SG=y

#
# Some SCSI devices (e.g. CD jukebox) support multiple LUNs
#
# CONFIG_SCSI_MULTI_LUN is not set
CONFIG_SCSI_REPORT_LUNS=y
# CONFIG_SCSI_CONSTANTS is not set
# CONFIG_SCSI_LOGGING is not set

#
# SCSI low-level drivers
#
# CONFIG_BLK_DEV_3W_XXXX_RAID is not set
# CONFIG_SCSI_7000FASST is not set
# CONFIG_SCSI_ACARD is not set
# CONFIG_SCSI_AHA152X is not set
# CONFIG_SCSI_AHA1542 is not set
# CONFIG_SCSI_AACRAID is not set
# CONFIG_SCSI_AIC7XXX is not set
# CONFIG_SCSI_AIC7XXX_OLD is not set
# CONFIG_SCSI_AIC79XX is not set
# CONFIG_SCSI_ADVANSYS is not set
# CONFIG_SCSI_IN2000 is not set
# CONFIG_SCSI_MEGARAID is not set
# CONFIG_SCSI_BUSLOGIC is not set
# CONFIG_SCSI_CPQFCTS is not set
# CONFIG_SCSI_DMX3191D is not set
# CONFIG_SCSI_DTC3280 is not set
# CONFIG_SCSI_EATA is not set
# CONFIG_SCSI_EATA_PIO is not set
# CONFIG_SCSI_FUTURE_DOMAIN is not set
# CONFIG_SCSI_GDTH is not set
# CONFIG_SCSI_GENERIC_NCR5380 is not set
# CONFIG_SCSI_GENERIC_NCR5380_MMIO is not set
# CONFIG_SCSI_IPS is not set
# CONFIG_SCSI_INIA100 is not set
# CONFIG_SCSI_PPA is not set
# CONFIG_SCSI_IMM is not set
# CONFIG_SCSI_NCR53C406A is not set
# CONFIG_SCSI_SYM53C8XX_2 is not set
# CONFIG_SCSI_PAS16 is not set
# CONFIG_SCSI_PSI240I is not set
# CONFIG_SCSI_QLOGIC_FAS is not set
# CONFIG_SCSI_QLOGIC_ISP is not set
# CONFIG_SCSI_QLOGIC_FC is not set
# CONFIG_SCSI_QLOGIC_1280 is not set
# CONFIG_SCSI_SYM53C416 is not set
# CONFIG_SCSI_DC395x is not set
# CONFIG_SCSI_T128 is not set
# CONFIG_SCSI_U14_34F is not set
# CONFIG_SCSI_ULTRASTOR is not set
# CONFIG_SCSI_NSP32 is not set
# CONFIG_SCSI_DEBUG is not set

#
# Old CD-ROM drivers (not SCSI, not IDE)
#
# CONFIG_CD_NO_IDESCSI is not set

#
# Multi-device support (RAID and LVM)
#
# CONFIG_MD is not set

#
# Fusion MPT device support
#
# CONFIG_FUSION is not set

#
# IEEE 1394 (FireWire) support (EXPERIMENTAL)
#
CONFIG_IEEE1394=y

#
# Subsystem Options
#
# CONFIG_IEEE1394_VERBOSEDEBUG is not set
# CONFIG_IEEE1394_OUI_DB is not set

#
# Device Drivers
#

#
# Texas Instruments PCILynx requires I2C bit-banging
#
CONFIG_IEEE1394_OHCI1394=y

#
# Protocol Drivers
#
# CONFIG_IEEE1394_VIDEO1394 is not set
# CONFIG_IEEE1394_SBP2 is not set
# CONFIG_IEEE1394_ETH1394 is not set
# CONFIG_IEEE1394_DV1394 is not set
# CONFIG_IEEE1394_RAWIO is not set
# CONFIG_IEEE1394_CMP is not set

#
# I2O device support
#
# CONFIG_I2O is not set

#
# Networking support
#
CONFIG_NET=y

#
# Networking options
#
CONFIG_PACKET=y
# CONFIG_PACKET_MMAP is not set
# CONFIG_NETLINK_DEV is not set
CONFIG_UNIX=y
# CONFIG_NET_KEY is not set
CONFIG_INET=y
CONFIG_IP_MULTICAST=y
# CONFIG_IP_ADVANCED_ROUTER is not set
# CONFIG_IP_PNP is not set
# CONFIG_NET_IPIP is not set
# CONFIG_NET_IPGRE is not set
# CONFIG_IP_MROUTE is not set
# CONFIG_ARPD is not set
# CONFIG_INET_ECN is not set
# CONFIG_SYN_COOKIES is not set
# CONFIG_INET_AH is not set
# CONFIG_INET_ESP is not set
# CONFIG_INET_IPCOMP is not set
CONFIG_IPV6=y
# CONFIG_IPV6_PRIVACY is not set
# CONFIG_INET6_AH is not set
# CONFIG_INET6_ESP is not set
# CONFIG_INET6_IPCOMP is not set
# CONFIG_IPV6_TUNNEL is not set
# CONFIG_DECNET is not set
# CONFIG_BRIDGE is not set
# CONFIG_NETFILTER is not set

#
# SCTP Configuration (EXPERIMENTAL)
#
CONFIG_IPV6_SCTP__=y
# CONFIG_IP_SCTP is not set
# CONFIG_ATM is not set
# CONFIG_VLAN_8021Q is not set
# CONFIG_LLC2 is not set
# CONFIG_IPX is not set
# CONFIG_ATALK is not set
# CONFIG_X25 is not set
# CONFIG_LAPB is not set
# CONFIG_NET_DIVERT is not set
# CONFIG_ECONET is not set
# CONFIG_WAN_ROUTER is not set
# CONFIG_NET_FASTROUTE is not set
# CONFIG_NET_HW_FLOWCONTROL is not set

#
# QoS and/or fair queueing
#
# CONFIG_NET_SCHED is not set

#
# Network testing
#
# CONFIG_NET_PKTGEN is not set
CONFIG_NETDEVICES=y

#
# ARCnet devices
#
# CONFIG_ARCNET is not set
CONFIG_DUMMY=m
# CONFIG_BONDING is not set
# CONFIG_EQUALIZER is not set
# CONFIG_TUN is not set
# CONFIG_NET_SB1000 is not set

#
# Ethernet (10 or 100Mbit)
#
CONFIG_NET_ETHERNET=y
CONFIG_MII=y
# CONFIG_HAPPYMEAL is not set
# CONFIG_SUNGEM is not set
# CONFIG_NET_VENDOR_3COM is not set
# CONFIG_LANCE is not set
# CONFIG_NET_VENDOR_SMC is not set
# CONFIG_NET_VENDOR_RACAL is not set

#
# Tulip family network device support
#
# CONFIG_NET_TULIP is not set
# CONFIG_AT1700 is not set
# CONFIG_DEPCA is not set
# CONFIG_HP100 is not set
# CONFIG_NET_ISA is not set
CONFIG_NET_PCI=y
# CONFIG_PCNET32 is not set
# CONFIG_AMD8111_ETH is not set
# CONFIG_ADAPTEC_STARFIRE is not set
# CONFIG_AC3200 is not set
# CONFIG_APRICOT is not set
# CONFIG_B44 is not set
# CONFIG_CS89x0 is not set
# CONFIG_DGRS is not set
CONFIG_EEPRO100=y
# CONFIG_EEPRO100_PIO is not set
# CONFIG_E100 is not set
# CONFIG_FEALNX is not set
# CONFIG_NATSEMI is not set
# CONFIG_NE2K_PCI is not set
# CONFIG_8139CP is not set
CONFIG_8139TOO=y
# CONFIG_8139TOO_PIO is not set
# CONFIG_8139TOO_TUNE_TWISTER is not set
# CONFIG_8139TOO_8129 is not set
# CONFIG_8139_OLD_RX_RESET is not set
CONFIG_SIS900=y
# CONFIG_EPIC100 is not set
# CONFIG_SUNDANCE is not set
# CONFIG_TLAN is not set
# CONFIG_VIA_RHINE is not set
# CONFIG_NET_POCKET is not set

#
# Ethernet (1000 Mbit)
#
# CONFIG_ACENIC is not set
# CONFIG_DL2K is not set
# CONFIG_E1000 is not set
# CONFIG_NS83820 is not set
# CONFIG_HAMACHI is not set
# CONFIG_YELLOWFIN is not set
# CONFIG_R8169 is not set
# CONFIG_SIS190 is not set
# CONFIG_SK98LIN is not set
# CONFIG_TIGON3 is not set

#
# Ethernet (10000 Mbit)
#
# CONFIG_IXGB is not set
# CONFIG_FDDI is not set
# CONFIG_HIPPI is not set
# CONFIG_PLIP is not set
# CONFIG_PPP is not set
# CONFIG_SLIP is not set

#
# Wireless LAN (non-hamradio)
#
# CONFIG_NET_RADIO is not set

#
# Token Ring devices
#
# CONFIG_TR is not set
# CONFIG_NET_FC is not set
# CONFIG_RCPCI is not set
# CONFIG_SHAPER is not set

#
# Wan interfaces
#
# CONFIG_WAN is not set

#
# Amateur Radio support
#
# CONFIG_HAMRADIO is not set

#
# IrDA (infrared) support
#
# CONFIG_IRDA is not set

#
# Bluetooth support
#
# CONFIG_BT is not set

#
# ISDN subsystem
#
# CONFIG_ISDN_BOOL is not set

#
# Telephony Support
#
# CONFIG_PHONE is not set

#
# Input device support
#
CONFIG_INPUT=y

#
# Userland interfaces
#
CONFIG_INPUT_MOUSEDEV=y
CONFIG_INPUT_MOUSEDEV_PSAUX=y
CONFIG_INPUT_MOUSEDEV_SCREEN_X=1920
CONFIG_INPUT_MOUSEDEV_SCREEN_Y=1200
# CONFIG_INPUT_JOYDEV is not set
# CONFIG_INPUT_TSDEV is not set
# CONFIG_INPUT_EVDEV is not set
# CONFIG_INPUT_EVBUG is not set

#
# Input I/O drivers
#
# CONFIG_GAMEPORT is not set
CONFIG_SOUND_GAMEPORT=y
CONFIG_SERIO=y
CONFIG_SERIO_I8042=y
# CONFIG_SERIO_SERPORT is not set
# CONFIG_SERIO_CT82C710 is not set
# CONFIG_SERIO_PARKBD is not set
# CONFIG_SERIO_PCIPS2 is not set

#
# Input Device Drivers
#
CONFIG_INPUT_KEYBOARD=y
CONFIG_KEYBOARD_ATKBD=y
# CONFIG_KEYBOARD_SUNKBD is not set
# CONFIG_KEYBOARD_XTKBD is not set
# CONFIG_KEYBOARD_NEWTON is not set
CONFIG_INPUT_MOUSE=y
CONFIG_MOUSE_PS2=y
# CONFIG_MOUSE_PS2_SYNAPTICS is not set
# CONFIG_MOUSE_SERIAL is not set
# CONFIG_MOUSE_INPORT is not set
# CONFIG_MOUSE_LOGIBM is not set
# CONFIG_MOUSE_PC110PAD is not set
# CONFIG_INPUT_JOYSTICK is not set
# CONFIG_INPUT_TOUCHSCREEN is not set
# CONFIG_INPUT_MISC is not set

#
# Character devices
#
CONFIG_VT=y
CONFIG_VT_CONSOLE=y
CONFIG_HW_CONSOLE=y
# CONFIG_SERIAL_NONSTANDARD is not set

#
# Serial drivers
#
CONFIG_SERIAL_8250=y
# CONFIG_SERIAL_8250_CONSOLE is not set
# CONFIG_SERIAL_8250_ACPI is not set
CONFIG_SERIAL_8250_NR_UARTS=4
# CONFIG_SERIAL_8250_EXTENDED is not set

#
# Non-8250 serial port support
#
CONFIG_SERIAL_CORE=y
CONFIG_UNIX98_PTYS=y
CONFIG_UNIX98_PTY_COUNT=256
CONFIG_PRINTER=y
# CONFIG_LP_CONSOLE is not set
# CONFIG_PPDEV is not set
# CONFIG_TIPAR is not set

#
# I2C support
#
# CONFIG_I2C is not set

#
# I2C Algorithms
#

#
# I2C Hardware Bus support
#

#
# I2C Hardware Sensors Chip support
#
# CONFIG_I2C_SENSOR is not set

#
# Mice
#
# CONFIG_BUSMOUSE is not set
# CONFIG_QIC02_TAPE is not set

#
# IPMI
#
# CONFIG_IPMI_HANDLER is not set

#
# Watchdog Cards
#
# CONFIG_WATCHDOG is not set
# CONFIG_HW_RANDOM is not set
# CONFIG_NVRAM is not set
# CONFIG_RTC is not set
# CONFIG_GEN_RTC is not set
# CONFIG_DTLK is not set
# CONFIG_R3964 is not set
# CONFIG_APPLICOM is not set
# CONFIG_SONYPI is not set

#
# Ftape, the floppy tape device driver
#
# CONFIG_FTAPE is not set
CONFIG_AGP=y
# CONFIG_AGP_ALI is not set
# CONFIG_AGP_ATI is not set
# CONFIG_AGP_AMD is not set
# CONFIG_AGP_AMD64 is not set
CONFIG_AGP_INTEL=y
# CONFIG_AGP_NVIDIA is not set
# CONFIG_AGP_SIS is not set
# CONFIG_AGP_SWORKS is not set
# CONFIG_AGP_VIA is not set
CONFIG_DRM=y
# CONFIG_DRM_TDFX is not set
# CONFIG_DRM_GAMMA is not set
# CONFIG_DRM_R128 is not set
# CONFIG_DRM_RADEON is not set
# CONFIG_DRM_I810 is not set
CONFIG_DRM_I830=y
CONFIG_DRM_MGA=y
# CONFIG_DRM_SIS is not set
# CONFIG_MWAVE is not set
# CONFIG_RAW_DRIVER is not set
# CONFIG_HANGCHECK_TIMER is not set

#
# Multimedia devices
#
# CONFIG_VIDEO_DEV is not set

#
# Digital Video Broadcasting Devices
#
# CONFIG_DVB is not set

#
# File systems
#
CONFIG_EXT2_FS=y
# CONFIG_EXT2_FS_XATTR is not set
CONFIG_EXT3_FS=y
CONFIG_EXT3_FS_XATTR=y
# CONFIG_EXT3_FS_POSIX_ACL is not set
# CONFIG_EXT3_FS_SECURITY is not set
CONFIG_JBD=y
# CONFIG_JBD_DEBUG is not set
CONFIG_FS_MBCACHE=y
# CONFIG_REISERFS_FS is not set
# CONFIG_JFS_FS is not set
# CONFIG_XFS_FS is not set
# CONFIG_MINIX_FS is not set
# CONFIG_ROMFS_FS is not set
# CONFIG_QUOTA is not set
# CONFIG_AUTOFS_FS is not set
CONFIG_AUTOFS4_FS=y

#
# CD-ROM/DVD Filesystems
#
CONFIG_ISO9660_FS=y
CONFIG_JOLIET=y
# CONFIG_ZISOFS is not set
CONFIG_UDF_FS=y

#
# DOS/FAT/NT Filesystems
#
CONFIG_FAT_FS=y
CONFIG_MSDOS_FS=y
CONFIG_VFAT_FS=y
# CONFIG_NTFS_FS is not set

#
# Pseudo filesystems
#
CONFIG_PROC_FS=y
CONFIG_PROC_KCORE=y
CONFIG_DEVFS_FS=y
CONFIG_DEVFS_MOUNT=y
# CONFIG_DEVFS_DEBUG is not set
CONFIG_DEVPTS_FS=y
# CONFIG_DEVPTS_FS_XATTR is not set
CONFIG_TMPFS=y
# CONFIG_HUGETLBFS is not set
# CONFIG_HUGETLB_PAGE is not set
CONFIG_RAMFS=y

#
# Miscellaneous filesystems
#
# CONFIG_ADFS_FS is not set
# CONFIG_AFFS_FS is not set
# CONFIG_HFS_FS is not set
# CONFIG_BEFS_FS is not set
# CONFIG_BFS_FS is not set
# CONFIG_EFS_FS is not set
# CONFIG_CRAMFS is not set
# CONFIG_VXFS_FS is not set
# CONFIG_HPFS_FS is not set
# CONFIG_QNX4FS_FS is not set
# CONFIG_SYSV_FS is not set
# CONFIG_UFS_FS is not set

#
# Network File Systems
#
CONFIG_NFS_FS=y
# CONFIG_NFS_V3 is not set
# CONFIG_NFS_V4 is not set
CONFIG_NFSD=y
# CONFIG_NFSD_V3 is not set
# CONFIG_NFSD_TCP is not set
CONFIG_LOCKD=y
CONFIG_EXPORTFS=y
CONFIG_SUNRPC=y
# CONFIG_SUNRPC_GSS is not set
CONFIG_SMB_FS=y
# CONFIG_SMB_NLS_DEFAULT is not set
# CONFIG_CIFS is not set
# CONFIG_NCP_FS is not set
# CONFIG_CODA_FS is not set
# CONFIG_INTERMEZZO_FS is not set
# CONFIG_AFS_FS is not set

#
# Partition Types
#
# CONFIG_PARTITION_ADVANCED is not set
CONFIG_MSDOS_PARTITION=y
CONFIG_SMB_NLS=y
CONFIG_NLS=y

#
# Native Language Support
#
CONFIG_NLS_DEFAULT="iso8859-1"
CONFIG_NLS_CODEPAGE_437=y
# CONFIG_NLS_CODEPAGE_737 is not set
# CONFIG_NLS_CODEPAGE_775 is not set
# CONFIG_NLS_CODEPAGE_850 is not set
# CONFIG_NLS_CODEPAGE_852 is not set
# CONFIG_NLS_CODEPAGE_855 is not set
# CONFIG_NLS_CODEPAGE_857 is not set
# CONFIG_NLS_CODEPAGE_860 is not set
# CONFIG_NLS_CODEPAGE_861 is not set
# CONFIG_NLS_CODEPAGE_862 is not set
# CONFIG_NLS_CODEPAGE_863 is not set
# CONFIG_NLS_CODEPAGE_864 is not set
# CONFIG_NLS_CODEPAGE_865 is not set
# CONFIG_NLS_CODEPAGE_866 is not set
# CONFIG_NLS_CODEPAGE_869 is not set
# CONFIG_NLS_CODEPAGE_936 is not set
# CONFIG_NLS_CODEPAGE_950 is not set
# CONFIG_NLS_CODEPAGE_932 is not set
# CONFIG_NLS_CODEPAGE_949 is not set
# CONFIG_NLS_CODEPAGE_874 is not set
# CONFIG_NLS_ISO8859_8 is not set
# CONFIG_NLS_CODEPAGE_1250 is not set
# CONFIG_NLS_CODEPAGE_1251 is not set
CONFIG_NLS_ISO8859_1=y
# CONFIG_NLS_ISO8859_2 is not set
# CONFIG_NLS_ISO8859_3 is not set
# CONFIG_NLS_ISO8859_4 is not set
# CONFIG_NLS_ISO8859_5 is not set
# CONFIG_NLS_ISO8859_6 is not set
# CONFIG_NLS_ISO8859_7 is not set
# CONFIG_NLS_ISO8859_9 is not set
# CONFIG_NLS_ISO8859_13 is not set
# CONFIG_NLS_ISO8859_14 is not set
# CONFIG_NLS_ISO8859_15 is not set
# CONFIG_NLS_KOI8_R is not set
# CONFIG_NLS_KOI8_U is not set
# CONFIG_NLS_UTF8 is not set

#
# Graphics support
#
# CONFIG_FB is not set
# CONFIG_VIDEO_SELECT is not set

#
# Console display driver support
#
CONFIG_VGA_CONSOLE=y
# CONFIG_MDA_CONSOLE is not set
CONFIG_DUMMY_CONSOLE=y

#
# Sound
#
CONFIG_SOUND=y

#
# Advanced Linux Sound Architecture
#
CONFIG_SND=y
CONFIG_SND_SEQUENCER=y
# CONFIG_SND_SEQ_DUMMY is not set
CONFIG_SND_OSSEMUL=y
CONFIG_SND_MIXER_OSS=y
CONFIG_SND_PCM_OSS=y
CONFIG_SND_SEQUENCER_OSS=y
# CONFIG_SND_VERBOSE_PRINTK is not set
# CONFIG_SND_DEBUG is not set

#
# Generic devices
#
# CONFIG_SND_DUMMY is not set
# CONFIG_SND_VIRMIDI is not set
# CONFIG_SND_MTPAV is not set
# CONFIG_SND_SERIAL_U16550 is not set
# CONFIG_SND_MPU401 is not set

#
# ISA devices
#
# CONFIG_SND_AD1848 is not set
# CONFIG_SND_CS4231 is not set
# CONFIG_SND_CS4232 is not set
# CONFIG_SND_CS4236 is not set
# CONFIG_SND_ES1688 is not set
# CONFIG_SND_ES18XX is not set
# CONFIG_SND_GUSCLASSIC is not set
# CONFIG_SND_GUSEXTREME is not set
# CONFIG_SND_GUSMAX is not set
# CONFIG_SND_INTERWAVE is not set
# CONFIG_SND_INTERWAVE_STB is not set
# CONFIG_SND_OPTI92X_AD1848 is not set
# CONFIG_SND_OPTI92X_CS4231 is not set
# CONFIG_SND_OPTI93X is not set
# CONFIG_SND_SB8 is not set
# CONFIG_SND_SB16 is not set
# CONFIG_SND_SBAWE is not set
# CONFIG_SND_WAVEFRONT is not set
# CONFIG_SND_CMI8330 is not set
# CONFIG_SND_OPL3SA2 is not set
# CONFIG_SND_SGALAXY is not set
# CONFIG_SND_SSCAPE is not set

#
# PCI devices
#
# CONFIG_SND_ALI5451 is not set
# CONFIG_SND_AZT3328 is not set
# CONFIG_SND_CS46XX is not set
# CONFIG_SND_CS4281 is not set
# CONFIG_SND_EMU10K1 is not set
# CONFIG_SND_KORG1212 is not set
# CONFIG_SND_NM256 is not set
# CONFIG_SND_RME32 is not set
# CONFIG_SND_RME96 is not set
# CONFIG_SND_RME9652 is not set
# CONFIG_SND_HDSP is not set
# CONFIG_SND_TRIDENT is not set
# CONFIG_SND_YMFPCI is not set
# CONFIG_SND_ALS4000 is not set
# CONFIG_SND_CMIPCI is not set
# CONFIG_SND_ENS1370 is not set
# CONFIG_SND_ENS1371 is not set
# CONFIG_SND_ES1938 is not set
# CONFIG_SND_ES1968 is not set
# CONFIG_SND_MAESTRO3 is not set
# CONFIG_SND_FM801 is not set
# CONFIG_SND_ICE1712 is not set
# CONFIG_SND_ICE1724 is not set
CONFIG_SND_INTEL8X0=y
# CONFIG_SND_SONICVIBES is not set
# CONFIG_SND_VIA82XX is not set
# CONFIG_SND_VX222 is not set

#
# ALSA USB devices
#
# CONFIG_SND_USB_AUDIO is not set

#
# Open Sound System
#
# CONFIG_SOUND_PRIME is not set

#
# USB support
#
CONFIG_USB=y
# CONFIG_USB_DEBUG is not set

#
# Miscellaneous USB options
#
CONFIG_USB_DEVICEFS=y
# CONFIG_USB_BANDWIDTH is not set
# CONFIG_USB_DYNAMIC_MINORS is not set

#
# USB Host Controller Drivers
#
CONFIG_USB_EHCI_HCD=y
# CONFIG_USB_OHCI_HCD is not set
CONFIG_USB_UHCI_HCD=y

#
# USB Device Class drivers
#
# CONFIG_USB_AUDIO is not set
# CONFIG_USB_BLUETOOTH_TTY is not set
# CONFIG_USB_MIDI is not set
# CONFIG_USB_ACM is not set
CONFIG_USB_PRINTER=y
CONFIG_USB_STORAGE=y
# CONFIG_USB_STORAGE_DEBUG is not set
# CONFIG_USB_STORAGE_DATAFAB is not set
# CONFIG_USB_STORAGE_FREECOM is not set
# CONFIG_USB_STORAGE_ISD200 is not set
# CONFIG_USB_STORAGE_DPCM is not set
# CONFIG_USB_STORAGE_HP8200e is not set
# CONFIG_USB_STORAGE_SDDR09 is not set
# CONFIG_USB_STORAGE_SDDR55 is not set
# CONFIG_USB_STORAGE_JUMPSHOT is not set

#
# USB Human Interface Devices (HID)
#
CONFIG_USB_HID=y
CONFIG_USB_HIDINPUT=y
# CONFIG_HID_FF is not set
# CONFIG_USB_HIDDEV is not set
# CONFIG_USB_AIPTEK is not set
# CONFIG_USB_WACOM is not set
# CONFIG_USB_KBTAB is not set
# CONFIG_USB_POWERMATE is not set
# CONFIG_USB_XPAD is not set

#
# USB Imaging devices
#
# CONFIG_USB_MDC800 is not set
# CONFIG_USB_SCANNER is not set
# CONFIG_USB_MICROTEK is not set
# CONFIG_USB_HPUSBSCSI is not set

#
# USB Multimedia devices
#
# CONFIG_USB_DABUSB is not set

#
# Video4Linux support is needed for USB Multimedia device support
#

#
# USB Network adaptors
#
# CONFIG_USB_CATC is not set
# CONFIG_USB_KAWETH is not set
# CONFIG_USB_PEGASUS is not set
# CONFIG_USB_RTL8150 is not set
# CONFIG_USB_USBNET is not set

#
# USB port drivers
#
# CONFIG_USB_USS720 is not set

#
# USB Serial Converter support
#
# CONFIG_USB_SERIAL is not set

#
# USB Miscellaneous drivers
#
# CONFIG_USB_TIGL is not set
# CONFIG_USB_AUERSWALD is not set
# CONFIG_USB_RIO500 is not set
# CONFIG_USB_BRLVGER is not set
# CONFIG_USB_LCD is not set
# CONFIG_USB_TEST is not set
# CONFIG_USB_GADGET is not set

#
# Profiling support
#
# CONFIG_PROFILING is not set

#
# Kernel hacking
#
# CONFIG_DEBUG_KERNEL is not set
CONFIG_DEBUG_SPINLOCK_SLEEP=y
CONFIG_FRAME_POINTER=y

#
# Security options
#
# CONFIG_SECURITY is not set

#
# Cryptographic options
#
CONFIG_CRYPTO=y
# CONFIG_CRYPTO_HMAC is not set
CONFIG_CRYPTO_NULL=m
CONFIG_CRYPTO_MD4=m
CONFIG_CRYPTO_MD5=m
CONFIG_CRYPTO_SHA1=m
CONFIG_CRYPTO_SHA256=m
CONFIG_CRYPTO_SHA512=m
CONFIG_CRYPTO_DES=m
CONFIG_CRYPTO_BLOWFISH=m
CONFIG_CRYPTO_TWOFISH=m
CONFIG_CRYPTO_SERPENT=m
CONFIG_CRYPTO_AES=m
CONFIG_CRYPTO_CAST5=m
CONFIG_CRYPTO_CAST6=m
CONFIG_CRYPTO_DEFLATE=m
# CONFIG_CRYPTO_TEST is not set

#
# Library routines
#
CONFIG_CRC32=y
CONFIG_ZLIB_INFLATE=m
CONFIG_ZLIB_DEFLATE=m
CONFIG_X86_BIOS_REBOOT=y
CONFIG_PC=y

--gKMricLos+KVdGMg--
