Return-Path: <linux-kernel-owner@vger.kernel.org>
Received: (majordomo@vger.kernel.org) by vger.kernel.org via listexpand
	id <S312886AbSDKUIv>; Thu, 11 Apr 2002 16:08:51 -0400
Received: (majordomo@vger.kernel.org) by vger.kernel.org
	id <S312894AbSDKUIu>; Thu, 11 Apr 2002 16:08:50 -0400
Received: from cp26357-a.gelen1.lb.nl.home.com ([213.51.0.86]:3194 "EHLO
	hercules.oisec.net") by vger.kernel.org with ESMTP
	id <S312886AbSDKUIi>; Thu, 11 Apr 2002 16:08:38 -0400
Date: Thu, 11 Apr 2002 22:08:26 +0200
From: Cliff Albert <cliff@oisec.net>
To: linux-kernel@vger.kernel.org
Subject: Problems with Compaq WL200 wireless card
Message-ID: <20020411200826.GA32521@oisec.net>
Mail-Followup-To: linux-kernel@vger.kernel.org
Mime-Version: 1.0
Content-Type: multipart/mixed; boundary="GvXjxJ+pjyke8COw"
Content-Disposition: inline
User-Agent: Mutt/1.3.28i
Sender: linux-kernel-owner@vger.kernel.org
X-Mailing-List: linux-kernel@vger.kernel.org


--GvXjxJ+pjyke8COw
Content-Type: text/plain; charset=us-ascii
Content-Disposition: inline

Hi folks,

I have some problems with the Compaq WL200 wireless card. The Compaq
WL200 is actually a prism2 based pcmcia card on a Cirrus Logic PD6927
PCMCIA<->PCI bridge. The problem is as following:

 Whenever the card is present the system will hard lockup whenever any
 heavy I/O on the scsi subsystem (AIC7890) is done. It will always lockup
 after around 500 megabytes of data is written (dd if=/dev/zero of=testfile).
 It generates a oops of which i have 2 different dumps available. 1
 without the prism2 (the hostap driver version 2002-04-10) and i82356 driver
 (from pcmcia-cs 3.1.33) (oops-1) and one with them loaded (oops-2). The
 system itself is a Celeron 400 on a P2B-S (i440BX based) motherboard
 (with BIOS 1014Beta1)

 I have been having these problems for quite some while ago on a variety
 of kernels ranging from 2.4.9 -> 2.4.19-pre5-ac3 

 I have included the 2 ksymoops analyzed oopses, output of lspci -vvvxx
 (with and without the PCI card) kernel-configuration and /proc/scsi/scsi
 contents.

-- 
Cliff Albert		| RIPE:	     CA3348-RIPE | www.oisec.net
cliff@oisec.net		| 6BONE:     CA2-6BONE	 | icq 18461740

--GvXjxJ+pjyke8COw
Content-Type: text/plain; charset=us-ascii
Content-Disposition: attachment; filename=lspci-vvvxx-without-wl200

00:00.0 Host bridge: Intel Corp. 440BX/ZX - 82443BX/ZX Host bridge (rev 02)
	Control: I/O- Mem+ BusMaster+ SpecCycle- MemWINV- VGASnoop- ParErr- Stepping- SERR+ FastB2B-
	Status: Cap+ 66Mhz- UDF- FastB2B- ParErr- DEVSEL=medium >TAbort- <TAbort- <MAbort+ >SERR- <PERR-
	Latency: 64
	Region 0: Memory at e7800000 (32-bit, prefetchable) [size=8M]
	Capabilities: [a0] AGP version 1.0
		Status: RQ=31 SBA+ 64bit- FW- Rate=x1,x2
		Command: RQ=0 SBA- AGP- 64bit- FW- Rate=<none>
00: 86 80 90 71 06 01 10 22 02 00 00 06 00 40 00 00
10: 08 00 80 e7 00 00 00 00 00 00 00 00 00 00 00 00
20: 00 00 00 00 00 00 00 00 00 00 00 00 00 00 00 00
30: 00 00 00 00 a0 00 00 00 00 00 00 00 00 00 00 00

00:01.0 PCI bridge: Intel Corp. 440BX/ZX - 82443BX/ZX AGP bridge (rev 02) (prog-if 00 [Normal decode])
	Control: I/O+ Mem+ BusMaster+ SpecCycle- MemWINV+ VGASnoop- ParErr- Stepping- SERR+ FastB2B-
	Status: Cap- 66Mhz+ UDF- FastB2B- ParErr- DEVSEL=medium >TAbort- <TAbort- <MAbort- >SERR- <PERR-
	Latency: 64
	Bus: primary=00, secondary=01, subordinate=01, sec-latency=64
	I/O behind bridge: 0000d000-0000dfff
	Memory behind bridge: e5000000-e5cfffff
	Prefetchable memory behind bridge: e5f00000-e77fffff
	BridgeCtl: Parity- SERR- NoISA- VGA+ MAbort- >Reset- FastB2B+
00: 86 80 91 71 17 01 20 02 02 00 04 06 00 40 01 00
10: 00 00 00 00 00 00 00 00 00 01 01 40 d0 d0 a0 22
20: 00 e5 c0 e5 f0 e5 70 e7 00 00 00 00 00 00 00 00
30: 00 00 00 00 00 00 00 00 00 00 00 00 00 00 88 00

00:04.0 ISA bridge: Intel Corp. 82371AB PIIX4 ISA (rev 02)
	Control: I/O+ Mem+ BusMaster+ SpecCycle+ MemWINV- VGASnoop- ParErr- Stepping- SERR- FastB2B-
	Status: Cap- 66Mhz- UDF- FastB2B+ ParErr- DEVSEL=medium >TAbort- <TAbort- <MAbort- >SERR- <PERR-
	Latency: 0
00: 86 80 10 71 0f 00 80 02 02 00 01 06 00 00 80 00
10: 00 00 00 00 00 00 00 00 00 00 00 00 00 00 00 00
20: 00 00 00 00 00 00 00 00 00 00 00 00 00 00 00 00
30: 00 00 00 00 00 00 00 00 00 00 00 00 00 00 00 00

00:04.1 IDE interface: Intel Corp. 82371AB PIIX4 IDE (rev 01) (prog-if 80 [Master])
	Control: I/O+ Mem- BusMaster- SpecCycle- MemWINV- VGASnoop- ParErr- Stepping- SERR- FastB2B-
	Status: Cap- 66Mhz- UDF- FastB2B+ ParErr- DEVSEL=medium >TAbort- <TAbort- <MAbort- >SERR- <PERR-
	Region 4: I/O ports at b800 [size=16]
00: 86 80 11 71 01 00 80 02 01 80 01 01 00 20 00 00
10: 00 00 00 00 00 00 00 00 00 00 00 00 00 00 00 00
20: 01 b8 00 00 00 00 00 00 00 00 00 00 00 00 00 00
30: 00 00 00 00 00 00 00 00 00 00 00 00 00 00 00 00

00:04.2 USB Controller: Intel Corp. 82371AB PIIX4 USB (rev 01) (prog-if 00 [UHCI])
	Control: I/O+ Mem- BusMaster+ SpecCycle- MemWINV- VGASnoop- ParErr- Stepping- SERR- FastB2B-
	Status: Cap- 66Mhz- UDF- FastB2B+ ParErr- DEVSEL=medium >TAbort- <TAbort- <MAbort- >SERR- <PERR-
	Latency: 32
	Interrupt: pin D routed to IRQ 15
	Region 4: I/O ports at b400 [size=32]
00: 86 80 12 71 05 00 80 02 01 00 03 0c 00 20 00 00
10: 00 00 00 00 00 00 00 00 00 00 00 00 00 00 00 00
20: 01 b4 00 00 00 00 00 00 00 00 00 00 00 00 00 00
30: 00 00 00 00 00 00 00 00 00 00 00 00 ff 04 00 00

00:04.3 Bridge: Intel Corp. 82371AB PIIX4 ACPI (rev 02)
	Control: I/O+ Mem+ BusMaster- SpecCycle- MemWINV- VGASnoop- ParErr- Stepping- SERR- FastB2B-
	Status: Cap- 66Mhz- UDF- FastB2B+ ParErr- DEVSEL=medium >TAbort- <TAbort- <MAbort- >SERR- <PERR-
	Interrupt: pin ? routed to IRQ 9
00: 86 80 13 71 03 00 80 02 02 00 80 06 00 00 00 00
10: 00 00 00 00 00 00 00 00 00 00 00 00 00 00 00 00
20: 00 00 00 00 00 00 00 00 00 00 00 00 00 00 00 00
30: 00 00 00 00 00 00 00 00 00 00 00 00 00 00 00 00

00:06.0 SCSI storage controller: Adaptec AHA-2940U2/W / 7890
	Subsystem: Adaptec 2940U2W SCSI Controller
	Control: I/O- Mem+ BusMaster+ SpecCycle- MemWINV+ VGASnoop- ParErr- Stepping- SERR- FastB2B-
	Status: Cap+ 66Mhz- UDF- FastB2B+ ParErr- DEVSEL=medium >TAbort- <TAbort- <MAbort- >SERR- <PERR-
	Latency: 32 (9750ns min, 6250ns max)
	Interrupt: pin A routed to IRQ 15
	BIST result: 00
	Region 0: I/O ports at b000 [disabled] [size=256]
	Region 1: Memory at e4800000 (64-bit, non-prefetchable) [size=4K]
	Expansion ROM at <unassigned> [disabled] [size=128K]
	Capabilities: [dc] Power Management version 1
		Flags: PMEClk- DSI- D1- D2- AuxCurrent=0mA PME(D0-,D1-,D2-,D3hot-,D3cold-)
		Status: D0 PME-Enable- DSel=0 DScale=0 PME-
00: 05 90 1f 00 16 00 90 02 00 00 00 01 00 20 00 80
10: 01 b0 00 00 04 00 80 e4 00 00 00 00 00 00 00 00
20: 00 00 00 00 00 00 00 00 00 00 00 00 05 90 0f 00
30: 00 00 00 00 dc 00 00 00 00 00 00 00 0f 01 27 19

00:0b.0 Ethernet controller: Realtek Semiconductor Co., Ltd. RTL-8139 (rev 10)
	Subsystem: Realtek Semiconductor Co., Ltd. RT8139
	Control: I/O+ Mem+ BusMaster+ SpecCycle- MemWINV- VGASnoop- ParErr- Stepping- SERR- FastB2B-
	Status: Cap+ 66Mhz- UDF- FastB2B+ ParErr- DEVSEL=medium >TAbort- <TAbort- <MAbort- >SERR- <PERR-
	Latency: 32 (8000ns min, 16000ns max)
	Interrupt: pin A routed to IRQ 12
	Region 0: I/O ports at a800 [size=256]
	Region 1: Memory at e4000000 (32-bit, non-prefetchable) [size=256]
	Expansion ROM at <unassigned> [disabled] [size=64K]
	Capabilities: [50] Power Management version 2
		Flags: PMEClk- DSI- D1+ D2+ AuxCurrent=0mA PME(D0-,D1+,D2+,D3hot+,D3cold-)
		Status: D0 PME-Enable- DSel=0 DScale=0 PME-
00: ec 10 39 81 07 00 90 02 10 00 00 02 00 20 00 00
10: 01 a8 00 00 00 00 00 e4 00 00 00 00 00 00 00 00
20: 00 00 00 00 00 00 00 00 00 00 00 00 ec 10 39 81
30: 00 00 00 00 50 00 00 00 00 00 00 00 0c 01 20 40

00:0c.0 Ethernet controller: Intel Corp.: Unknown device 2459 (rev 08)
	Subsystem: Intel Corp.: Unknown device 000e
	Control: I/O+ Mem+ BusMaster+ SpecCycle- MemWINV+ VGASnoop- ParErr- Stepping- SERR- FastB2B-
	Status: Cap+ 66Mhz- UDF- FastB2B+ ParErr- DEVSEL=medium >TAbort- <TAbort- <MAbort- >SERR- <PERR-
	Latency: 32 (2000ns min, 14000ns max), cache line size 08
	Interrupt: pin A routed to IRQ 11
	Region 0: Memory at e3800000 (32-bit, non-prefetchable) [size=4K]
	Region 1: I/O ports at a400 [size=64]
	Region 2: Memory at e3000000 (32-bit, non-prefetchable) [size=1M]
	Expansion ROM at <unassigned> [disabled] [size=1M]
	Capabilities: [dc] Power Management version 2
		Flags: PMEClk- DSI+ D1+ D2+ AuxCurrent=0mA PME(D0+,D1+,D2+,D3hot+,D3cold-)
		Status: D0 PME-Enable- DSel=0 DScale=2 PME-
00: 86 80 29 12 17 00 90 02 08 00 00 02 08 20 00 00
10: 00 00 80 e3 01 a4 00 00 00 00 00 e3 00 00 00 00
20: 00 00 00 00 00 00 00 00 00 00 00 00 86 80 0e 00
30: 00 00 00 00 dc 00 00 00 00 00 00 00 0b 01 08 38

01:00.0 VGA compatible controller: ATI Technologies Inc 3D Rage IIC AGP (rev 3a) (prog-if 00 [VGA])
	Subsystem: ATI Technologies Inc: Unknown device 0088
	Control: I/O+ Mem+ BusMaster+ SpecCycle- MemWINV- VGASnoop- ParErr- Stepping+ SERR- FastB2B-
	Status: Cap+ 66Mhz- UDF- FastB2B+ ParErr- DEVSEL=medium >TAbort- <TAbort- <MAbort- >SERR- <PERR-
	Latency: 64 (2000ns min), cache line size 08
	Region 0: Memory at e6000000 (32-bit, prefetchable) [size=16M]
	Region 1: I/O ports at d800 [size=256]
	Region 2: Memory at e5000000 (32-bit, non-prefetchable) [size=4K]
	Expansion ROM at e5fe0000 [disabled] [size=128K]
	Capabilities: [5c] Power Management version 1
		Flags: PMEClk- DSI- D1+ D2+ AuxCurrent=0mA PME(D0-,D1-,D2-,D3hot-,D3cold-)
		Status: D0 PME-Enable- DSel=0 DScale=0 PME-
00: 02 10 5a 47 87 00 90 02 3a 00 00 03 08 40 00 00
10: 08 00 00 e6 01 d8 00 00 00 00 00 e5 00 00 00 00
20: 00 00 00 00 00 00 00 00 00 00 00 00 02 10 88 00
30: 00 00 fe e5 5c 00 00 00 00 00 00 00 90 00 08 00


--GvXjxJ+pjyke8COw
Content-Type: text/plain; charset=us-ascii
Content-Disposition: attachment; filename="oops-2.dump"

ksymoops 2.4.5 on i686 2.4.19-pre5-ac3.  Options used
     -V (default)
     -k /proc/ksyms (default)
     -l /proc/modules (default)
     -o /lib/modules/2.4.19-pre5-ac3/ (default)
     -m /boot/System.map-2.4.19-pre5-ac3 (default)

Warning: You did not tell me where to find symbol information.  I will
assume that the log matches the kernel and modules that are running
right now and I'll use the default options above for symbol resolution.
If the current kernel and/or modules do not match the log, you can get
more accurate output by telling me the kernel version and where to find
map, modules, ksyms etc.  ksymoops -h explains the options.

CPU:    0
EIP:    0010:[<c0123cfd>]  Not tainted
Using defaults from ksymoops -t elf32-i386 -a i386
EFLAGS: 00000206
eax: c125e3e0   ebx: 00000000     ecx: 00000200       edx: 00000000
esi: 08052200   edi: cba89200     ebp: c125e3e0       esp: d8d07f50
ds: 0018        es: 0018       ss: 0018
Process dd (pid: 2001, stackpage=d8d07000)
Stack: 08052200 c01265d9 00000000 da9633c0 ffffffea 00000200 d956f0ac 00000200
       00000000 00000000 00000200 00000200 00000200 1f77e200 00000000 d956f040
       d956f0f4 00000000 00000200 c01319e6 da9633c0 08052200 00000000 da9633e0
Call Trace: [<c01265d9>] [<c01319e6>] [<c0108523>] 
Code: 53 89 c3 0f b6 43 1b 8b 14 85 44 ad 31 c0 69 c3 b1 79 37 9e


>>EIP; c0123cfd <unlock_page+1/64>   <=====

>>eax; c125e3e0 <_end+f20224/207ebe44>
>>esi; 08052200 Before first symbol
>>edi; cba89200 <_end+b74b044/207ebe44>
>>ebp; c125e3e0 <_end+f20224/207ebe44>
>>esp; d8d07f50 <_end+189c9d94/207ebe44>

Trace; c01265d9 <generic_file_write+531/768>
Trace; c01319e6 <sys_write+96/e0>
Trace; c0108523 <system_call+33/38>

Code;  c0123cfd <unlock_page+1/64>
00000000 <_EIP>:
Code;  c0123cfd <unlock_page+1/64>   <=====
   0:   53                        push   %ebx   <=====
Code;  c0123cfe <unlock_page+2/64>
   1:   89 c3                     mov    %eax,%ebx
Code;  c0123d00 <unlock_page+4/64>
   3:   0f b6 43 1b               movzbl 0x1b(%ebx),%eax
Code;  c0123d04 <unlock_page+8/64>
   7:   8b 14 85 44 ad 31 c0      mov    0xc031ad44(,%eax,4),%edx
Code;  c0123d0b <unlock_page+f/64>
   e:   69 c3 b1 79 37 9e         imul   $0x9e3779b1,%ebx,%eax


1 warning issued.  Results may not be reliable.

--GvXjxJ+pjyke8COw
Content-Type: text/plain; charset=us-ascii
Content-Disposition: attachment; filename=kernel-config

#
# Automatically generated by make menuconfig: don't edit
#
CONFIG_X86=y
CONFIG_ISA=y
# CONFIG_SBUS is not set
CONFIG_UID16=y

#
# Code maturity level options
#
CONFIG_EXPERIMENTAL=y

#
# Loadable module support
#
CONFIG_MODULES=y
CONFIG_MODVERSIONS=y
CONFIG_KMOD=y

#
# Processor type and features
#
# CONFIG_M386 is not set
# CONFIG_M486 is not set
# CONFIG_M586 is not set
# CONFIG_M586TSC is not set
# CONFIG_M586MMX is not set
CONFIG_M686=y
# CONFIG_MPENTIUMIII is not set
# CONFIG_MPENTIUM4 is not set
# CONFIG_MK6 is not set
# CONFIG_MK7 is not set
# CONFIG_MELAN is not set
# CONFIG_MCRUSOE is not set
# CONFIG_MWINCHIPC6 is not set
# CONFIG_MWINCHIP2 is not set
# CONFIG_MWINCHIP3D is not set
# CONFIG_MCYRIXIII is not set
CONFIG_X86_WP_WORKS_OK=y
CONFIG_X86_INVLPG=y
CONFIG_X86_CMPXCHG=y
CONFIG_X86_XADD=y
CONFIG_X86_BSWAP=y
CONFIG_X86_POPAD_OK=y
# CONFIG_RWSEM_GENERIC_SPINLOCK is not set
CONFIG_RWSEM_XCHGADD_ALGORITHM=y
CONFIG_X86_L1_CACHE_SHIFT=5
CONFIG_X86_TSC=y
CONFIG_X86_GOOD_APIC=y
CONFIG_X86_PGE=y
CONFIG_X86_USE_PPRO_CHECKSUM=y
CONFIG_X86_PPRO_FENCE=y
CONFIG_X86_MCE=y
# CONFIG_TOSHIBA is not set
# CONFIG_I8K is not set
# CONFIG_MICROCODE is not set
# CONFIG_X86_MSR is not set
# CONFIG_X86_CPUID is not set
CONFIG_NOHIGHMEM=y
# CONFIG_HIGHMEM4G is not set
# CONFIG_HIGHMEM64G is not set
# CONFIG_MATH_EMULATION is not set
CONFIG_MTRR=y
# CONFIG_SMP is not set
CONFIG_X86_UP_APIC=y
# CONFIG_X86_UP_IOAPIC is not set
CONFIG_X86_LOCAL_APIC=y

#
# General setup
#
CONFIG_NET=y
CONFIG_PCI=y
# CONFIG_PCI_GOBIOS is not set
# CONFIG_PCI_GODIRECT is not set
CONFIG_PCI_GOANY=y
CONFIG_PCI_BIOS=y
CONFIG_PCI_DIRECT=y
CONFIG_PCI_NAMES=y
# CONFIG_EISA is not set
# CONFIG_MCA is not set
# CONFIG_HOTPLUG is not set
# CONFIG_PCMCIA is not set
# CONFIG_HOTPLUG_PCI is not set
CONFIG_SYSVIPC=y
CONFIG_BSD_PROCESS_ACCT=y
CONFIG_SYSCTL=y
CONFIG_KCORE_ELF=y
# CONFIG_KCORE_AOUT is not set
CONFIG_BINFMT_AOUT=y
CONFIG_BINFMT_ELF=y
# CONFIG_BINFMT_MISC is not set
# CONFIG_IKCONFIG is not set
# CONFIG_PM is not set
# CONFIG_ACPI is not set
# CONFIG_APM is not set

#
# Memory Technology Devices (MTD)
#
# CONFIG_MTD is not set

#
# Parallel port support
#
# CONFIG_PARPORT is not set

#
# Plug and Play configuration
#
# CONFIG_PNP is not set
# CONFIG_ISAPNP is not set
# CONFIG_PNPBIOS is not set

#
# Block devices
#
# CONFIG_BLK_DEV_FD is not set
# CONFIG_BLK_DEV_XD is not set
# CONFIG_PARIDE is not set
# CONFIG_BLK_CPQ_DA is not set
# CONFIG_BLK_CPQ_CISS_DA is not set
# CONFIG_CISS_SCSI_TAPE is not set
# CONFIG_BLK_DEV_DAC960 is not set
CONFIG_BLK_DEV_LOOP=y
# CONFIG_BLK_DEV_NBD is not set
# CONFIG_BLK_DEV_RAM is not set
# CONFIG_BLK_DEV_INITRD is not set

#
# Multi-device support (RAID and LVM)
#
# CONFIG_MD is not set
# CONFIG_BLK_DEV_MD is not set
# CONFIG_MD_LINEAR is not set
# CONFIG_MD_RAID0 is not set
# CONFIG_MD_RAID1 is not set
# CONFIG_MD_RAID5 is not set
# CONFIG_MD_MULTIPATH is not set
# CONFIG_BLK_DEV_LVM is not set

#
# Networking options
#
CONFIG_PACKET=y
# CONFIG_PACKET_MMAP is not set
# CONFIG_NETLINK_DEV is not set
CONFIG_NETFILTER=y
# CONFIG_NETFILTER_DEBUG is not set
CONFIG_FILTER=y
CONFIG_UNIX=y
CONFIG_INET=y
CONFIG_IP_MULTICAST=y
# CONFIG_IP_ADVANCED_ROUTER is not set
# CONFIG_IP_PNP is not set
# CONFIG_NET_IPIP is not set
CONFIG_NET_IPGRE=y
# CONFIG_NET_IPGRE_BROADCAST is not set
# CONFIG_IP_MROUTE is not set
# CONFIG_ARPD is not set
CONFIG_INET_ECN=y
CONFIG_SYN_COOKIES=y

#
#   IP: Netfilter Configuration
#
# CONFIG_IP_NF_CONNTRACK is not set
# CONFIG_IP_NF_QUEUE is not set
# CONFIG_IP_NF_IPTABLES is not set
# CONFIG_IP_NF_ARPTABLES is not set
CONFIG_IP_NF_COMPAT_IPCHAINS=y
CONFIG_IP_NF_NAT_NEEDED=y
CONFIG_IPV6=y

#
#   IPv6: Netfilter Configuration
#
# CONFIG_IP6_NF_QUEUE is not set
# CONFIG_IP6_NF_IPTABLES is not set
# CONFIG_KHTTPD is not set
# CONFIG_ATM is not set
# CONFIG_VLAN_8021Q is not set
# CONFIG_IPX is not set
# CONFIG_ATALK is not set
# CONFIG_DECNET is not set
CONFIG_BRIDGE=y
# CONFIG_X25 is not set
# CONFIG_LAPB is not set
# CONFIG_LLC is not set
# CONFIG_NET_DIVERT is not set
# CONFIG_ECONET is not set
# CONFIG_WAN_ROUTER is not set
# CONFIG_NET_FASTROUTE is not set
# CONFIG_NET_HW_FLOWCONTROL is not set

#
# QoS and/or fair queueing
#
# CONFIG_NET_SCHED is not set

#
# Network testing
#
# CONFIG_NET_PKTGEN is not set

#
# Telephony Support
#
# CONFIG_PHONE is not set
# CONFIG_PHONE_IXJ is not set
# CONFIG_PHONE_IXJ_PCMCIA is not set

#
# ATA/IDE/MFM/RLL support
#
CONFIG_IDE=y

#
# IDE, ATA and ATAPI Block devices
#
CONFIG_BLK_DEV_IDE=y
# CONFIG_BLK_DEV_HD_IDE is not set
# CONFIG_BLK_DEV_HD is not set
CONFIG_BLK_DEV_IDEDISK=y
CONFIG_IDEDISK_MULTI_MODE=y
# CONFIG_IDEDISK_STROKE is not set
# CONFIG_BLK_DEV_IDEDISK_VENDOR is not set
# CONFIG_BLK_DEV_IDEDISK_FUJITSU is not set
# CONFIG_BLK_DEV_IDEDISK_IBM is not set
# CONFIG_BLK_DEV_IDEDISK_MAXTOR is not set
# CONFIG_BLK_DEV_IDEDISK_QUANTUM is not set
# CONFIG_BLK_DEV_IDEDISK_SEAGATE is not set
# CONFIG_BLK_DEV_IDEDISK_WD is not set
# CONFIG_BLK_DEV_COMMERIAL is not set
# CONFIG_BLK_DEV_TIVO is not set
# CONFIG_BLK_DEV_IDECS is not set
CONFIG_BLK_DEV_IDECD=y
# CONFIG_BLK_DEV_IDETAPE is not set
# CONFIG_BLK_DEV_IDEFLOPPY is not set
# CONFIG_BLK_DEV_IDESCSI is not set
# CONFIG_IDE_TASK_IOCTL is not set
# CONFIG_IDE_TASKFILE_IO is not set
# CONFIG_BLK_DEV_CMD640 is not set
# CONFIG_BLK_DEV_CMD640_ENHANCED is not set
# CONFIG_BLK_DEV_ISAPNP is not set
# CONFIG_BLK_DEV_RZ1000 is not set
CONFIG_BLK_DEV_IDEPCI=y
CONFIG_IDEPCI_SHARE_IRQ=y
CONFIG_BLK_DEV_IDEDMA_PCI=y
# CONFIG_BLK_DEV_OFFBOARD is not set
# CONFIG_BLK_DEV_IDEDMA_FORCED is not set
CONFIG_IDEDMA_PCI_AUTO=y
# CONFIG_IDEDMA_ONLYDISK is not set
CONFIG_BLK_DEV_IDEDMA=y
# CONFIG_IDEDMA_PCI_WIP is not set
# CONFIG_BLK_DEV_IDEDMA_TIMEOUT is not set
# CONFIG_IDEDMA_NEW_DRIVE_LISTINGS is not set
CONFIG_BLK_DEV_ADMA=y
# CONFIG_BLK_DEV_AEC62XX is not set
# CONFIG_AEC62XX_TUNING is not set
# CONFIG_BLK_DEV_ALI15X3 is not set
# CONFIG_WDC_ALI15X3 is not set
# CONFIG_BLK_DEV_AMD74XX is not set
# CONFIG_AMD74XX_OVERRIDE is not set
# CONFIG_BLK_DEV_CMD64X is not set
# CONFIG_BLK_DEV_CMD680 is not set
# CONFIG_BLK_DEV_CY82C693 is not set
# CONFIG_BLK_DEV_CS5530 is not set
# CONFIG_BLK_DEV_HPT34X is not set
# CONFIG_HPT34X_AUTODMA is not set
# CONFIG_BLK_DEV_HPT366 is not set
CONFIG_BLK_DEV_PIIX=y
CONFIG_PIIX_TUNING=y
# CONFIG_BLK_DEV_NS87415 is not set
# CONFIG_BLK_DEV_OPTI621 is not set
# CONFIG_BLK_DEV_PDC202XX is not set
# CONFIG_PDC202XX_BURST is not set
# CONFIG_PDC202XX_FORCE is not set
# CONFIG_BLK_DEV_SVWKS is not set
# CONFIG_BLK_DEV_SIS5513 is not set
# CONFIG_BLK_DEV_SLC90E66 is not set
# CONFIG_BLK_DEV_TRM290 is not set
# CONFIG_BLK_DEV_VIA82CXXX is not set
# CONFIG_IDE_CHIPSETS is not set
CONFIG_IDEDMA_AUTO=y
# CONFIG_IDEDMA_IVB is not set
# CONFIG_DMA_NONPCI is not set
CONFIG_BLK_DEV_IDE_MODES=y
# CONFIG_BLK_DEV_ATARAID is not set
# CONFIG_BLK_DEV_ATARAID_PDC is not set
# CONFIG_BLK_DEV_ATARAID_HPT is not set

#
# SCSI support
#
CONFIG_SCSI=y
CONFIG_BLK_DEV_SD=y
CONFIG_SD_EXTRA_DEVS=40
# CONFIG_CHR_DEV_ST is not set
# CONFIG_CHR_DEV_OSST is not set
CONFIG_BLK_DEV_SR=y
# CONFIG_BLK_DEV_SR_VENDOR is not set
CONFIG_SR_EXTRA_DEVS=2
CONFIG_CHR_DEV_SG=y
CONFIG_SCSI_DEBUG_QUEUES=y
# CONFIG_SCSI_MULTI_LUN is not set
CONFIG_SCSI_CONSTANTS=y
CONFIG_SCSI_LOGGING=y

#
# SCSI low-level drivers
#
# CONFIG_BLK_DEV_3W_XXXX_RAID is not set
# CONFIG_SCSI_7000FASST is not set
# CONFIG_SCSI_ACARD is not set
# CONFIG_SCSI_AHA152X is not set
# CONFIG_SCSI_AHA1542 is not set
# CONFIG_SCSI_AHA1740 is not set
# CONFIG_SCSI_AACRAID is not set
CONFIG_SCSI_AIC7XXX=y
CONFIG_AIC7XXX_CMDS_PER_DEVICE=8
CONFIG_AIC7XXX_RESET_DELAY_MS=15000
# CONFIG_AIC7XXX_PROBE_EISA_VL is not set
# CONFIG_AIC7XXX_BUILD_FIRMWARE is not set
# CONFIG_SCSI_DPT_I2O is not set
# CONFIG_SCSI_ADVANSYS is not set
# CONFIG_SCSI_IN2000 is not set
# CONFIG_SCSI_AM53C974 is not set
# CONFIG_SCSI_MEGARAID is not set
# CONFIG_SCSI_BUSLOGIC is not set
# CONFIG_SCSI_CPQFCTS is not set
# CONFIG_SCSI_DMX3191D is not set
# CONFIG_SCSI_DTC3280 is not set
# CONFIG_SCSI_EATA is not set
# CONFIG_SCSI_EATA_DMA is not set
# CONFIG_SCSI_EATA_PIO is not set
# CONFIG_SCSI_FUTURE_DOMAIN is not set
# CONFIG_SCSI_GDTH is not set
# CONFIG_SCSI_GENERIC_NCR5380 is not set
# CONFIG_SCSI_IPS is not set
# CONFIG_SCSI_INITIO is not set
# CONFIG_SCSI_INIA100 is not set
# CONFIG_SCSI_NCR53C406A is not set
# CONFIG_SCSI_NCR53C7xx is not set
# CONFIG_SCSI_SYM53C8XX_2 is not set
# CONFIG_SCSI_NCR53C8XX is not set
# CONFIG_SCSI_SYM53C8XX is not set
# CONFIG_SCSI_PAS16 is not set
# CONFIG_SCSI_PCI2000 is not set
# CONFIG_SCSI_PCI2220I is not set
# CONFIG_SCSI_PSI240I is not set
# CONFIG_SCSI_QLOGIC_FAS is not set
# CONFIG_SCSI_QLOGIC_ISP is not set
# CONFIG_SCSI_QLOGIC_FC is not set
# CONFIG_SCSI_QLOGIC_1280 is not set
# CONFIG_SCSI_SEAGATE is not set
# CONFIG_SCSI_SIM710 is not set
# CONFIG_SCSI_SYM53C416 is not set
# CONFIG_SCSI_DC390T is not set
# CONFIG_SCSI_T128 is not set
# CONFIG_SCSI_U14_34F is not set
# CONFIG_SCSI_ULTRASTOR is not set
# CONFIG_SCSI_DEBUG is not set

#
# Fusion MPT device support
#
# CONFIG_FUSION is not set
# CONFIG_FUSION_BOOT is not set
# CONFIG_FUSION_ISENSE is not set
# CONFIG_FUSION_CTL is not set
# CONFIG_FUSION_LAN is not set

#
# IEEE 1394 (FireWire) support (EXPERIMENTAL)
#
# CONFIG_IEEE1394 is not set

#
# I2O device support
#
# CONFIG_I2O is not set
# CONFIG_I2O_PCI is not set
# CONFIG_I2O_BLOCK is not set
# CONFIG_I2O_LAN is not set
# CONFIG_I2O_SCSI is not set
# CONFIG_I2O_PROC is not set

#
# Network device support
#
CONFIG_NETDEVICES=y

#
# ARCnet devices
#
# CONFIG_ARCNET is not set
# CONFIG_DUMMY is not set
# CONFIG_BONDING is not set
# CONFIG_EQUALIZER is not set
# CONFIG_TUN is not set
# CONFIG_ETHERTAP is not set

#
# Ethernet (10 or 100Mbit)
#
CONFIG_NET_ETHERNET=y
# CONFIG_SUNLANCE is not set
# CONFIG_HAPPYMEAL is not set
# CONFIG_SUNBMAC is not set
# CONFIG_SUNQE is not set
# CONFIG_SUNGEM is not set
# CONFIG_NET_VENDOR_3COM is not set
# CONFIG_LANCE is not set
# CONFIG_NET_VENDOR_SMC is not set
# CONFIG_NET_VENDOR_RACAL is not set
# CONFIG_AT1700 is not set
# CONFIG_DEPCA is not set
# CONFIG_HP100 is not set
# CONFIG_NET_ISA is not set
CONFIG_NET_PCI=y
# CONFIG_PCNET32 is not set
# CONFIG_ADAPTEC_STARFIRE is not set
# CONFIG_AC3200 is not set
# CONFIG_APRICOT is not set
# CONFIG_CS89x0 is not set
# CONFIG_TULIP is not set
# CONFIG_TC35815 is not set
# CONFIG_DE4X5 is not set
# CONFIG_DGRS is not set
# CONFIG_DM9102 is not set
CONFIG_EEPRO100=y
# CONFIG_LNE390 is not set
# CONFIG_FEALNX is not set
# CONFIG_NATSEMI is not set
# CONFIG_NE2K_PCI is not set
# CONFIG_NE3210 is not set
# CONFIG_ES3210 is not set
# CONFIG_8139CP is not set
CONFIG_8139TOO=y
# CONFIG_8139TOO_PIO is not set
# CONFIG_8139TOO_TUNE_TWISTER is not set
# CONFIG_8139TOO_8129 is not set
# CONFIG_8139_NEW_RX_RESET is not set
# CONFIG_SIS900 is not set
# CONFIG_EPIC100 is not set
# CONFIG_SUNDANCE is not set
# CONFIG_TLAN is not set
# CONFIG_VIA_RHINE is not set
# CONFIG_VIA_RHINE_MMIO is not set
# CONFIG_WINBOND_840 is not set
# CONFIG_NET_POCKET is not set

#
# Ethernet (1000 Mbit)
#
# CONFIG_ACENIC is not set
# CONFIG_DL2K is not set
# CONFIG_MYRI_SBUS is not set
# CONFIG_NS83820 is not set
# CONFIG_HAMACHI is not set
# CONFIG_YELLOWFIN is not set
# CONFIG_SK98LIN is not set
# CONFIG_TIGON3 is not set
# CONFIG_FDDI is not set
# CONFIG_HIPPI is not set
# CONFIG_PLIP is not set
CONFIG_PPP=y
# CONFIG_PPP_MULTILINK is not set
# CONFIG_PPP_FILTER is not set
CONFIG_PPP_ASYNC=y
CONFIG_PPP_SYNC_TTY=y
# CONFIG_PPP_DEFLATE is not set
# CONFIG_PPP_BSDCOMP is not set
# CONFIG_PPPOE is not set
# CONFIG_SLIP is not set

#
# Wireless LAN (non-hamradio)
#
CONFIG_NET_RADIO=y
# CONFIG_STRIP is not set
# CONFIG_WAVELAN is not set
# CONFIG_ARLAN is not set
# CONFIG_AIRONET4500 is not set
# CONFIG_AIRONET4500_NONCS is not set
# CONFIG_AIRONET4500_PROC is not set
# CONFIG_AIRO is not set
# CONFIG_HERMES is not set
# CONFIG_PLX_HERMES is not set
CONFIG_NET_WIRELESS=y

#
# Token Ring devices
#
# CONFIG_TR is not set
# CONFIG_NET_FC is not set
# CONFIG_RCPCI is not set
# CONFIG_SHAPER is not set

#
# Wan interfaces
#
# CONFIG_WAN is not set

#
# Amateur Radio support
#
# CONFIG_HAMRADIO is not set

#
# IrDA (infrared) support
#
# CONFIG_IRDA is not set

#
# ISDN subsystem
#
# CONFIG_ISDN is not set

#
# Old CD-ROM drivers (not SCSI, not IDE)
#
# CONFIG_CD_NO_IDESCSI is not set

#
# Input core support
#
# CONFIG_INPUT is not set
# CONFIG_INPUT_KEYBDEV is not set
# CONFIG_INPUT_MOUSEDEV is not set
# CONFIG_INPUT_JOYDEV is not set
# CONFIG_INPUT_EVDEV is not set

#
# Character devices
#
CONFIG_VT=y
CONFIG_VT_CONSOLE=y
CONFIG_SERIAL=y
CONFIG_SERIAL_CONSOLE=y
# CONFIG_SERIAL_EXTENDED is not set
# CONFIG_SERIAL_NONSTANDARD is not set
CONFIG_UNIX98_PTYS=y
CONFIG_UNIX98_PTY_COUNT=256

#
# I2C support
#
# CONFIG_I2C is not set

#
# Mice
#
# CONFIG_BUSMOUSE is not set
# CONFIG_MOUSE is not set

#
# Joysticks
#
# CONFIG_INPUT_GAMEPORT is not set
# CONFIG_QIC02_TAPE is not set

#
# Watchdog Cards
#
# CONFIG_WATCHDOG is not set
# CONFIG_AMD_RNG is not set
# CONFIG_INTEL_RNG is not set
# CONFIG_AMD_PM768 is not set
# CONFIG_NVRAM is not set
CONFIG_RTC=y
# CONFIG_DTLK is not set
# CONFIG_R3964 is not set
# CONFIG_APPLICOM is not set
# CONFIG_SONYPI is not set

#
# Ftape, the floppy tape device driver
#
# CONFIG_FTAPE is not set
# CONFIG_AGP is not set
# CONFIG_DRM is not set
# CONFIG_MWAVE is not set

#
# Multimedia devices
#
# CONFIG_VIDEO_DEV is not set

#
# File systems
#
# CONFIG_QUOTA is not set
# CONFIG_AUTOFS_FS is not set
# CONFIG_AUTOFS4_FS is not set
CONFIG_REISERFS_FS=y
# CONFIG_REISERFS_CHECK is not set
# CONFIG_REISERFS_PROC_INFO is not set
# CONFIG_ADFS_FS is not set
# CONFIG_ADFS_FS_RW is not set
# CONFIG_AFFS_FS is not set
# CONFIG_HFS_FS is not set
# CONFIG_BEFS_FS is not set
# CONFIG_BEFS_DEBUG is not set
# CONFIG_BFS_FS is not set
CONFIG_EXT3_FS=y
CONFIG_JBD=y
# CONFIG_JBD_DEBUG is not set
# CONFIG_FAT_FS is not set
# CONFIG_MSDOS_FS is not set
# CONFIG_UMSDOS_FS is not set
# CONFIG_VFAT_FS is not set
# CONFIG_EFS_FS is not set
# CONFIG_JFFS_FS is not set
# CONFIG_JFFS2_FS is not set
# CONFIG_CRAMFS is not set
CONFIG_TMPFS=y
# CONFIG_RAMFS is not set
CONFIG_ISO9660_FS=m
CONFIG_JOLIET=y
CONFIG_ZISOFS=y
# CONFIG_JFS_FS is not set
# CONFIG_JFS_DEBUG is not set
# CONFIG_JFS_STATISTICS is not set
# CONFIG_MINIX_FS is not set
# CONFIG_VXFS_FS is not set
# CONFIG_NTFS_FS is not set
# CONFIG_NTFS_RW is not set
# CONFIG_HPFS_FS is not set
CONFIG_PROC_FS=y
# CONFIG_DEVFS_FS is not set
# CONFIG_DEVFS_MOUNT is not set
# CONFIG_DEVFS_DEBUG is not set
CONFIG_DEVPTS_FS=y
# CONFIG_QNX4FS_FS is not set
# CONFIG_QNX4FS_RW is not set
# CONFIG_ROMFS_FS is not set
CONFIG_EXT2_FS=y
# CONFIG_SYSV_FS is not set
# CONFIG_UDF_FS is not set
# CONFIG_UDF_RW is not set
# CONFIG_UFS_FS is not set
# CONFIG_UFS_FS_WRITE is not set

#
# Network File Systems
#
# CONFIG_CODA_FS is not set
# CONFIG_INTERMEZZO_FS is not set
CONFIG_NFS_FS=y
CONFIG_NFS_V3=y
# CONFIG_ROOT_NFS is not set
# CONFIG_NFSD is not set
# CONFIG_NFSD_V3 is not set
# CONFIG_NFSD_TCP is not set
CONFIG_SUNRPC=y
CONFIG_LOCKD=y
CONFIG_LOCKD_V4=y
# CONFIG_SMB_FS is not set
# CONFIG_NCP_FS is not set
# CONFIG_NCPFS_PACKET_SIGNING is not set
# CONFIG_NCPFS_IOCTL_LOCKING is not set
# CONFIG_NCPFS_STRONG is not set
# CONFIG_NCPFS_NFS_NS is not set
# CONFIG_NCPFS_OS2_NS is not set
# CONFIG_NCPFS_SMALLDOS is not set
# CONFIG_NCPFS_NLS is not set
# CONFIG_NCPFS_EXTRAS is not set
CONFIG_ZISOFS_FS=m

#
# Partition Types
#
# CONFIG_PARTITION_ADVANCED is not set
CONFIG_MSDOS_PARTITION=y
# CONFIG_SMB_NLS is not set
CONFIG_NLS=y

#
# Native Language Support
#
CONFIG_NLS_DEFAULT="iso8859-1"
# CONFIG_NLS_CODEPAGE_437 is not set
# CONFIG_NLS_CODEPAGE_737 is not set
# CONFIG_NLS_CODEPAGE_775 is not set
# CONFIG_NLS_CODEPAGE_850 is not set
# CONFIG_NLS_CODEPAGE_852 is not set
# CONFIG_NLS_CODEPAGE_855 is not set
# CONFIG_NLS_CODEPAGE_857 is not set
# CONFIG_NLS_CODEPAGE_860 is not set
# CONFIG_NLS_CODEPAGE_861 is not set
# CONFIG_NLS_CODEPAGE_862 is not set
# CONFIG_NLS_CODEPAGE_863 is not set
# CONFIG_NLS_CODEPAGE_864 is not set
# CONFIG_NLS_CODEPAGE_865 is not set
# CONFIG_NLS_CODEPAGE_866 is not set
# CONFIG_NLS_CODEPAGE_869 is not set
# CONFIG_NLS_CODEPAGE_936 is not set
# CONFIG_NLS_CODEPAGE_950 is not set
# CONFIG_NLS_CODEPAGE_932 is not set
# CONFIG_NLS_CODEPAGE_949 is not set
# CONFIG_NLS_CODEPAGE_874 is not set
# CONFIG_NLS_ISO8859_8 is not set
# CONFIG_NLS_CODEPAGE_1250 is not set
# CONFIG_NLS_CODEPAGE_1251 is not set
# CONFIG_NLS_ISO8859_1 is not set
# CONFIG_NLS_ISO8859_2 is not set
# CONFIG_NLS_ISO8859_3 is not set
# CONFIG_NLS_ISO8859_4 is not set
# CONFIG_NLS_ISO8859_5 is not set
# CONFIG_NLS_ISO8859_6 is not set
# CONFIG_NLS_ISO8859_7 is not set
# CONFIG_NLS_ISO8859_9 is not set
# CONFIG_NLS_ISO8859_13 is not set
# CONFIG_NLS_ISO8859_14 is not set
# CONFIG_NLS_ISO8859_15 is not set
# CONFIG_NLS_KOI8_R is not set
# CONFIG_NLS_KOI8_U is not set
# CONFIG_NLS_UTF8 is not set

#
# Console drivers
#
CONFIG_VGA_CONSOLE=y
# CONFIG_VIDEO_SELECT is not set
# CONFIG_MDA_CONSOLE is not set

#
# Frame-buffer support
#
# CONFIG_FB is not set

#
# Sound
#
# CONFIG_SOUND is not set

#
# USB support
#
# CONFIG_USB is not set

#
# Bluetooth support
#
# CONFIG_BLUEZ is not set

#
# Kernel hacking
#
# CONFIG_SOFTWARE_SUSPEND is not set
CONFIG_DEBUG_KERNEL=y
# CONFIG_DEBUG_HIGHMEM is not set
# CONFIG_DEBUG_SLAB is not set
# CONFIG_DEBUG_IOVIRT is not set
CONFIG_MAGIC_SYSRQ=y
# CONFIG_DEBUG_SPINLOCK is not set

#
# Library routines
#
CONFIG_ZLIB_INFLATE=m
CONFIG_ZLIB_DEFLATE=y

--GvXjxJ+pjyke8COw
Content-Type: text/plain; charset=us-ascii
Content-Disposition: attachment; filename=proc-scsi-scsi

Attached devices: 
Host: scsi0 Channel: 00 Id: 00 Lun: 00
  Vendor: QUANTUM  Model: FIREBALL ST6.4S  Rev: 0F0C
  Type:   Direct-Access                    ANSI SCSI revision: 02
Host: scsi0 Channel: 00 Id: 04 Lun: 00
  Vendor: IOMEGA   Model: ZIP 100          Rev: J.03
  Type:   Direct-Access                    ANSI SCSI revision: 02
Host: scsi0 Channel: 00 Id: 05 Lun: 00
  Vendor: YAMAHA   Model: CRW2100S         Rev: 1.0H
  Type:   CD-ROM                           ANSI SCSI revision: 02
Host: scsi0 Channel: 00 Id: 06 Lun: 00
  Vendor: PLEXTOR  Model: CD-ROM PX-32TS   Rev: 1.01
  Type:   CD-ROM                           ANSI SCSI revision: 02
Host: scsi0 Channel: 00 Id: 10 Lun: 00
  Vendor: QUANTUM  Model: VIKING II 9.1WLS Rev: 4110
  Type:   Direct-Access                    ANSI SCSI revision: 02

--GvXjxJ+pjyke8COw
Content-Type: text/plain; charset=us-ascii
Content-Disposition: attachment; filename=lspci-vvvxx-with-wl200

00:00.0 Host bridge: Intel Corp. 440BX/ZX - 82443BX/ZX Host bridge (rev 02)
	Control: I/O- Mem+ BusMaster+ SpecCycle- MemWINV- VGASnoop- ParErr- Stepping- SERR+ FastB2B-
	Status: Cap+ 66Mhz- UDF- FastB2B- ParErr- DEVSEL=medium >TAbort- <TAbort- <MAbort+ >SERR- <PERR-
	Latency: 64
	Region 0: Memory at e7800000 (32-bit, prefetchable) [size=8M]
	Capabilities: [a0] AGP version 1.0
		Status: RQ=31 SBA+ 64bit- FW- Rate=x1,x2
		Command: RQ=0 SBA- AGP- 64bit- FW- Rate=<none>
00: 86 80 90 71 06 01 10 22 02 00 00 06 00 40 00 00
10: 08 00 80 e7 00 00 00 00 00 00 00 00 00 00 00 00
20: 00 00 00 00 00 00 00 00 00 00 00 00 00 00 00 00
30: 00 00 00 00 a0 00 00 00 00 00 00 00 00 00 00 00

00:01.0 PCI bridge: Intel Corp. 440BX/ZX - 82443BX/ZX AGP bridge (rev 02) (prog-if 00 [Normal decode])
	Control: I/O+ Mem+ BusMaster+ SpecCycle- MemWINV+ VGASnoop- ParErr- Stepping- SERR+ FastB2B-
	Status: Cap- 66Mhz+ UDF- FastB2B- ParErr- DEVSEL=medium >TAbort- <TAbort- <MAbort- >SERR- <PERR-
	Latency: 64
	Bus: primary=00, secondary=01, subordinate=01, sec-latency=64
	I/O behind bridge: 0000d000-0000dfff
	Memory behind bridge: e5000000-e5cfffff
	Prefetchable memory behind bridge: e5f00000-e77fffff
	BridgeCtl: Parity- SERR- NoISA- VGA+ MAbort- >Reset- FastB2B+
00: 86 80 91 71 17 01 20 02 02 00 04 06 00 40 01 00
10: 00 00 00 00 00 00 00 00 00 01 01 40 d0 d0 a0 22
20: 00 e5 c0 e5 f0 e5 70 e7 00 00 00 00 00 00 00 00
30: 00 00 00 00 00 00 00 00 00 00 00 00 00 00 88 00

00:04.0 ISA bridge: Intel Corp. 82371AB PIIX4 ISA (rev 02)
	Control: I/O+ Mem+ BusMaster+ SpecCycle+ MemWINV- VGASnoop- ParErr- Stepping- SERR- FastB2B-
	Status: Cap- 66Mhz- UDF- FastB2B+ ParErr- DEVSEL=medium >TAbort- <TAbort- <MAbort- >SERR- <PERR-
	Latency: 0
00: 86 80 10 71 0f 00 80 02 02 00 01 06 00 00 80 00
10: 00 00 00 00 00 00 00 00 00 00 00 00 00 00 00 00
20: 00 00 00 00 00 00 00 00 00 00 00 00 00 00 00 00
30: 00 00 00 00 00 00 00 00 00 00 00 00 00 00 00 00

00:04.1 IDE interface: Intel Corp. 82371AB PIIX4 IDE (rev 01) (prog-if 80 [Master])
	Control: I/O+ Mem- BusMaster- SpecCycle- MemWINV- VGASnoop- ParErr- Stepping- SERR- FastB2B-
	Status: Cap- 66Mhz- UDF- FastB2B+ ParErr- DEVSEL=medium >TAbort- <TAbort- <MAbort- >SERR- <PERR-
	Region 4: I/O ports at b800 [size=16]
00: 86 80 11 71 01 00 80 02 01 80 01 01 00 20 00 00
10: 00 00 00 00 00 00 00 00 00 00 00 00 00 00 00 00
20: 01 b8 00 00 00 00 00 00 00 00 00 00 00 00 00 00
30: 00 00 00 00 00 00 00 00 00 00 00 00 00 00 00 00

00:04.2 USB Controller: Intel Corp. 82371AB PIIX4 USB (rev 01) (prog-if 00 [UHCI])
	Control: I/O+ Mem- BusMaster+ SpecCycle- MemWINV- VGASnoop- ParErr- Stepping- SERR- FastB2B-
	Status: Cap- 66Mhz- UDF- FastB2B+ ParErr- DEVSEL=medium >TAbort- <TAbort- <MAbort- >SERR- <PERR-
	Latency: 32
	Interrupt: pin D routed to IRQ 15
	Region 4: I/O ports at b400 [size=32]
00: 86 80 12 71 05 00 80 02 01 00 03 0c 00 20 00 00
10: 00 00 00 00 00 00 00 00 00 00 00 00 00 00 00 00
20: 01 b4 00 00 00 00 00 00 00 00 00 00 00 00 00 00
30: 00 00 00 00 00 00 00 00 00 00 00 00 ff 04 00 00

00:04.3 Bridge: Intel Corp. 82371AB PIIX4 ACPI (rev 02)
	Control: I/O+ Mem+ BusMaster- SpecCycle- MemWINV- VGASnoop- ParErr- Stepping- SERR- FastB2B-
	Status: Cap- 66Mhz- UDF- FastB2B+ ParErr- DEVSEL=medium >TAbort- <TAbort- <MAbort- >SERR- <PERR-
	Interrupt: pin ? routed to IRQ 9
00: 86 80 13 71 03 00 80 02 02 00 80 06 00 00 00 00
10: 00 00 00 00 00 00 00 00 00 00 00 00 00 00 00 00
20: 00 00 00 00 00 00 00 00 00 00 00 00 00 00 00 00
30: 00 00 00 00 00 00 00 00 00 00 00 00 00 00 00 00

00:06.0 SCSI storage controller: Adaptec AHA-2940U2/W / 7890
	Subsystem: Adaptec 2940U2W SCSI Controller
	Control: I/O- Mem+ BusMaster+ SpecCycle- MemWINV+ VGASnoop- ParErr- Stepping- SERR- FastB2B-
	Status: Cap+ 66Mhz- UDF- FastB2B+ ParErr- DEVSEL=medium >TAbort- <TAbort- <MAbort- >SERR- <PERR-
	Latency: 32 (9750ns min, 6250ns max)
	Interrupt: pin A routed to IRQ 15
	BIST result: 00
	Region 0: I/O ports at b000 [disabled] [size=256]
	Region 1: Memory at e4800000 (64-bit, non-prefetchable) [size=4K]
	Expansion ROM at <unassigned> [disabled] [size=128K]
	Capabilities: [dc] Power Management version 1
		Flags: PMEClk- DSI- D1- D2- AuxCurrent=0mA PME(D0-,D1-,D2-,D3hot-,D3cold-)
		Status: D0 PME-Enable- DSel=0 DScale=0 PME-
00: 05 90 1f 00 16 00 90 02 00 00 00 01 00 20 00 80
10: 01 b0 00 00 04 00 80 e4 00 00 00 00 00 00 00 00
20: 00 00 00 00 00 00 00 00 00 00 00 00 05 90 0f 00
30: 00 00 00 00 dc 00 00 00 00 00 00 00 0f 01 27 19

00:09.0 PCMCIA bridge: Cirrus Logic CL 6729 (rev 07)
	Control: I/O+ Mem+ BusMaster- SpecCycle- MemWINV- VGASnoop- ParErr- Stepping+ SERR- FastB2B-
	Status: Cap- 66Mhz- UDF- FastB2B- ParErr- DEVSEL=slow >TAbort- <TAbort- <MAbort- >SERR- <PERR-
	Interrupt: pin A routed to IRQ 15
	Region 0: I/O ports at a800 [size=4]
00: 13 10 00 11 83 00 00 04 07 00 05 06 00 00 00 00
10: 01 a8 00 00 00 00 00 00 00 00 00 00 00 00 00 00
20: 00 00 00 00 00 00 00 00 00 00 00 00 00 00 00 00
30: 00 00 00 00 00 00 00 00 00 00 00 00 0f 01 00 00

00:0b.0 Ethernet controller: Realtek Semiconductor Co., Ltd. RTL-8139 (rev 10)
	Subsystem: Realtek Semiconductor Co., Ltd. RT8139
	Control: I/O+ Mem+ BusMaster+ SpecCycle- MemWINV- VGASnoop- ParErr- Stepping- SERR- FastB2B-
	Status: Cap+ 66Mhz- UDF- FastB2B+ ParErr- DEVSEL=medium >TAbort- <TAbort- <MAbort- >SERR- <PERR-
	Latency: 32 (8000ns min, 16000ns max)
	Interrupt: pin A routed to IRQ 12
	Region 0: I/O ports at a400 [size=256]
	Region 1: Memory at e4000000 (32-bit, non-prefetchable) [size=256]
	Expansion ROM at <unassigned> [disabled] [size=64K]
	Capabilities: [50] Power Management version 2
		Flags: PMEClk- DSI- D1+ D2+ AuxCurrent=0mA PME(D0-,D1+,D2+,D3hot+,D3cold-)
		Status: D0 PME-Enable- DSel=0 DScale=0 PME-
00: ec 10 39 81 07 00 90 02 10 00 00 02 00 20 00 00
10: 01 a4 00 00 00 00 00 e4 00 00 00 00 00 00 00 00
20: 00 00 00 00 00 00 00 00 00 00 00 00 ec 10 39 81
30: 00 00 00 00 50 00 00 00 00 00 00 00 0c 01 20 40

00:0c.0 Ethernet controller: Intel Corp.: Unknown device 2459 (rev 08)
	Subsystem: Intel Corp.: Unknown device 000e
	Control: I/O+ Mem+ BusMaster+ SpecCycle- MemWINV+ VGASnoop- ParErr- Stepping- SERR- FastB2B-
	Status: Cap+ 66Mhz- UDF- FastB2B+ ParErr- DEVSEL=medium >TAbort- <TAbort- <MAbort- >SERR- <PERR-
	Latency: 32 (2000ns min, 14000ns max), cache line size 08
	Interrupt: pin A routed to IRQ 11
	Region 0: Memory at e3800000 (32-bit, non-prefetchable) [size=4K]
	Region 1: I/O ports at a000 [size=64]
	Region 2: Memory at e3000000 (32-bit, non-prefetchable) [size=1M]
	Expansion ROM at <unassigned> [disabled] [size=1M]
	Capabilities: [dc] Power Management version 2
		Flags: PMEClk- DSI+ D1+ D2+ AuxCurrent=0mA PME(D0+,D1+,D2+,D3hot+,D3cold-)
		Status: D0 PME-Enable- DSel=0 DScale=2 PME-
00: 86 80 29 12 17 00 90 02 08 00 00 02 08 20 00 00
10: 00 00 80 e3 01 a0 00 00 00 00 00 e3 00 00 00 00
20: 00 00 00 00 00 00 00 00 00 00 00 00 86 80 0e 00
30: 00 00 00 00 dc 00 00 00 00 00 00 00 0b 01 08 38

01:00.0 VGA compatible controller: ATI Technologies Inc 3D Rage IIC AGP (rev 3a) (prog-if 00 [VGA])
	Subsystem: ATI Technologies Inc: Unknown device 0088
	Control: I/O+ Mem+ BusMaster+ SpecCycle- MemWINV- VGASnoop- ParErr- Stepping+ SERR- FastB2B-
	Status: Cap+ 66Mhz- UDF- FastB2B+ ParErr- DEVSEL=medium >TAbort- <TAbort- <MAbort- >SERR- <PERR-
	Latency: 64 (2000ns min), cache line size 08
	Region 0: Memory at e6000000 (32-bit, prefetchable) [size=16M]
	Region 1: I/O ports at d800 [size=256]
	Region 2: Memory at e5000000 (32-bit, non-prefetchable) [size=4K]
	Expansion ROM at e5fe0000 [disabled] [size=128K]
	Capabilities: [5c] Power Management version 1
		Flags: PMEClk- DSI- D1+ D2+ AuxCurrent=0mA PME(D0-,D1-,D2-,D3hot-,D3cold-)
		Status: D0 PME-Enable- DSel=0 DScale=0 PME-
00: 02 10 5a 47 87 00 90 02 3a 00 00 03 08 40 00 00
10: 08 00 00 e6 01 d8 00 00 00 00 00 e5 00 00 00 00
20: 00 00 00 00 00 00 00 00 00 00 00 00 02 10 88 00
30: 00 00 fe e5 5c 00 00 00 00 00 00 00 80 00 08 00


--GvXjxJ+pjyke8COw
Content-Type: text/plain; charset=us-ascii
Content-Disposition: attachment; filename="oops-1.dump"

ksymoops 2.4.5 on i686 2.4.19-pre5-ac3.  Options used
     -V (default)
     -k /proc/ksyms (default)
     -l /proc/modules (default)
     -o /lib/modules/2.4.19-pre5-ac3/ (default)
     -m /boot/System.map-2.4.19-pre5-ac3 (default)

Warning: You did not tell me where to find symbol information.  I will
assume that the log matches the kernel and modules that are running
right now and I'll use the default options above for symbol resolution.
If the current kernel and/or modules do not match the log, you can get
more accurate output by telling me the kernel version and where to find
map, modules, ksyms etc.  ksymoops -h explains the options.

No modules in ksyms, skipping objects
Warning (read_lsmod): no symbols in lsmod, is /proc/modules a valid lsmod file?
CPU:    0
EIP:    0010:[<c01944fe>]  Not tainted
Using defaults from ksymoops -t elf32-i386 -a i386
EFLAGS: 00000246
eax: 00000000   ebx: ce63c000     ecx: c1761420       edx: e0a7c000
esi: 00027f40   edi: df7e9400     ebp: c12ec43c       esp: dc66ff18
ds: 0018        es: 0018       ss: 0018
Process dd (pid: 710, stackpage=dc66f000)
Stack: 00027f40 c12ec43c df7e9400 c0285f6f 00000000 00000001 c0181be5 df7e9400
       ce63c000 00027f40 dfef2768 c0126546 c1761420 c12ec43c 00000800 00000a00
       00000000 c1761420 ffffffea 00000200 dc64bbec 00000a00 00000000 00000800
Call Trace: [<c0181be5>] [<c0126546>] [<c01319e6>] [<c0108523>]
Code: 5e 5f 83 c4 10 c3 83 ec 18 55 57 56 53 8b 7c 24 2c 8b 74 24


>>EIP; c01944fe <reiserfs_wait_on_write_block+7a/80>   <=====

>>ebx; ce63c000 <END_OF_CODE+e2fde44/????>
>>ecx; c1761420 <END_OF_CODE+1423264/????>
>>edx; e0a7c000 <END_OF_CODE+2073de44/????>
>>esi; 00027f40 Before first symbol
>>edi; df7e9400 <END_OF_CODE+1f4ab244/????>
>>ebp; c12ec43c <END_OF_CODE+fae280/????>
>>esp; dc66ff18 <END_OF_CODE+1c331d5c/????>

Trace; c0181be5 <reiserfs_prepare_write+19/64>
Trace; c0126546 <generic_file_write+49e/768>
Trace; c01319e6 <sys_write+96/e0>
Trace; c0108523 <system_call+33/38>

Code;  c01944fe <reiserfs_wait_on_write_block+7a/80>
00000000 <_EIP>:
Code;  c01944fe <reiserfs_wait_on_write_block+7a/80>   <=====
   0:   5e                        pop    %esi   <=====
Code;  c01944ff <reiserfs_wait_on_write_block+7b/80>
   1:   5f                        pop    %edi
Code;  c0194500 <reiserfs_wait_on_write_block+7c/80>
   2:   83 c4 10                  add    $0x10,%esp
Code;  c0194503 <reiserfs_wait_on_write_block+7f/80>
   5:   c3                        ret    
Code;  c0194504 <do_journal_begin_r+0/214>
   6:   83 ec 18                  sub    $0x18,%esp
Code;  c0194507 <do_journal_begin_r+3/214>
   9:   55                        push   %ebp
Code;  c0194508 <do_journal_begin_r+4/214>
   a:   57                        push   %edi
Code;  c0194509 <do_journal_begin_r+5/214>
   b:   56                        push   %esi
Code;  c019450a <do_journal_begin_r+6/214>
   c:   53                        push   %ebx
Code;  c019450b <do_journal_begin_r+7/214>
   d:   8b 7c 24 2c               mov    0x2c(%esp,1),%edi
Code;  c019450f <do_journal_begin_r+b/214>
  11:   8b 74 24 00               mov    0x0(%esp,1),%esi


2 warnings issued.  Results may not be reliable.

--GvXjxJ+pjyke8COw--
