Return-Path: <linux-kernel-owner+willy=40w.ods.org@vger.kernel.org>
Received: (majordomo@vger.kernel.org) by vger.kernel.org via listexpand
	id S263135AbTKWBg0 (ORCPT <rfc822;willy@w.ods.org>);
	Sat, 22 Nov 2003 20:36:26 -0500
Received: (majordomo@vger.kernel.org) by vger.kernel.org id S263101AbTKWBgZ
	(ORCPT <rfc822;linux-kernel-outgoing>);
	Sat, 22 Nov 2003 20:36:25 -0500
Received: from [64.5.56.18] ([64.5.56.18]:7573 "EHLO pico.surpasshosting.com")
	by vger.kernel.org with ESMTP id S263181AbTKWBf7 (ORCPT
	<rfc822;linux-kernel@vger.kernel.org>);
	Sat, 22 Nov 2003 20:35:59 -0500
Date: Sat, 22 Nov 2003 19:35:55 -0600
From: Chris Cheney <ccheney@cheney.cx>
To: Bartlomiej Zolnierkiewicz <B.Zolnierkiewicz@elka.pw.edu.pl>
Cc: linux-kernel@vger.kernel.org
Subject: Re: bugme #1217: "Use PCI DMA by default when available" does not work
Message-ID: <20031123013555.GF1411@cheney.cx>
References: <20031122204828.GE1411@cheney.cx> <200311222320.18382.bzolnier@elka.pw.edu.pl>
Mime-Version: 1.0
Content-Type: multipart/mixed; boundary="//IivP0gvsAy3Can"
Content-Disposition: inline
In-Reply-To: <200311222320.18382.bzolnier@elka.pw.edu.pl>
User-Agent: Mutt/1.5.4i
X-AntiAbuse: This header was added to track abuse, please include it with any abuse report
X-AntiAbuse: Primary Hostname - pico.surpasshosting.com
X-AntiAbuse: Original Domain - vger.kernel.org
X-AntiAbuse: Originator/Caller UID/GID - [47 12] / [47 12]
X-AntiAbuse: Sender Address Domain - cheney.cx
Sender: linux-kernel-owner@vger.kernel.org
X-Mailing-List: linux-kernel@vger.kernel.org


--//IivP0gvsAy3Can
Content-Type: text/plain; charset=us-ascii
Content-Disposition: inline

On Sat, Nov 22, 2003 at 11:20:18PM +0100, Bartlomiej Zolnierkiewicz wrote:
> 
> Chris, please post output of 'lspci -vvv -xxx' - it will be very useful.
> We can see what registers are programmed differently when autodma is off.
> 
> --bart

Ok, I have attached the lspci output. This is the output for when
autodma is off and hdparm -c3 -d1 -u1 has been run.

Chris

--//IivP0gvsAy3Can
Content-Type: text/plain; charset=us-ascii
Content-Disposition: attachment; filename="lspci.output.txt"

00:00.0 Host bridge: Intel Corp. 82875P Memory Controller Hub (rev 02)
	Subsystem: Intel Corp. 82875P Memory Controller Hub
	Control: I/O- Mem+ BusMaster+ SpecCycle- MemWINV- VGASnoop- ParErr- Stepping- SERR- FastB2B-
	Status: Cap+ 66Mhz- UDF- FastB2B+ ParErr- DEVSEL=fast >TAbort- <TAbort- <MAbort+ >SERR- <PERR-
	Latency: 0
	Region 0: Memory at c0000000 (32-bit, prefetchable) [size=256M]
	Capabilities: [e4] #09 [2106]
	Capabilities: [a0] AGP version 3.0
		Status: RQ=32 Iso- ArqSz=2 Cal=2 SBA+ ITACoh- GART64- HTrans- 64bit- FW+ AGP3+ Rate=x4,x8
		Command: RQ=1 ArqSz=0 Cal=2 SBA+ AGP- GART64- 64bit- FW- Rate=<none>
00: 86 80 78 25 06 00 90 20 02 00 00 06 00 00 00 00
10: 08 00 00 c0 00 00 00 00 00 00 00 00 00 00 00 00
20: 00 00 00 00 00 00 00 00 00 00 00 00 86 80 78 25
30: 00 00 00 00 e4 00 00 00 00 00 00 00 00 00 00 00
40: 00 00 00 00 00 00 00 00 00 00 00 00 00 00 00 00
50: 00 00 08 01 40 80 1c 00 00 00 00 00 00 00 00 00
60: 00 05 00 00 00 00 00 00 00 00 00 00 00 00 00 00
70: 00 00 00 00 00 00 00 00 00 00 00 00 00 00 00 00
80: 00 00 00 00 00 00 00 00 00 00 00 00 00 00 00 00
90: 10 11 11 33 01 11 11 00 00 00 00 00 00 0a 38 00
a0: 02 00 30 00 1b 4a 00 1f 00 0a 00 00 00 00 00 00
b0: 00 00 00 00 00 00 00 00 00 00 00 00 10 10 00 00
c0: 00 00 00 00 00 40 0e 24 00 00 00 00 00 00 00 00
d0: 02 28 04 0e 0b 0d 00 00 00 00 00 00 00 00 20 01
e0: 00 00 00 00 09 a0 06 21 01 00 00 00 00 00 00 00
f0: 00 00 00 00 00 00 00 00 68 0f 02 00 00 00 00 00

00:01.0 PCI bridge: Intel Corp. 82875P Processor to AGP Controller (rev 02) (prog-if 00 [Normal decode])
	Control: I/O+ Mem+ BusMaster+ SpecCycle- MemWINV- VGASnoop- ParErr- Stepping- SERR+ FastB2B-
	Status: Cap- 66Mhz+ UDF- FastB2B+ ParErr- DEVSEL=fast >TAbort- <TAbort- <MAbort- >SERR- <PERR-
	Latency: 64
	Bus: primary=00, secondary=01, subordinate=01, sec-latency=32
	I/O behind bridge: 0000b000-0000bfff
	Memory behind bridge: e8000000-e9ffffff
	Prefetchable memory behind bridge: d8000000-e7ffffff
	BridgeCtl: Parity- SERR- NoISA+ VGA+ MAbort- >Reset- FastB2B-
00: 86 80 79 25 07 01 a0 00 02 00 04 06 00 40 01 00
10: 00 00 00 00 00 00 00 00 00 01 01 20 b0 b0 a0 22
20: 00 e8 f0 e9 00 d8 f0 e7 00 00 00 00 00 00 00 00
30: 00 00 00 00 00 00 00 00 00 00 00 00 00 00 0c 00
40: 00 00 00 00 00 00 00 00 00 00 00 00 00 00 00 00
50: 00 00 00 00 00 00 00 00 00 00 00 00 00 00 00 00
60: 00 00 00 00 00 00 00 00 00 00 00 00 00 00 00 00
70: 00 00 00 00 00 00 00 00 00 00 00 00 00 00 00 00
80: 00 00 00 00 00 00 00 00 00 00 00 00 00 00 00 00
90: 00 00 00 00 00 00 00 00 00 00 00 00 00 00 00 00
a0: 00 00 00 00 00 00 00 00 00 00 00 00 00 00 00 00
b0: 00 00 00 00 00 00 00 00 00 00 00 00 00 00 00 00
c0: 00 00 00 00 00 00 00 00 00 00 00 00 00 00 00 00
d0: 00 00 00 00 00 00 00 00 00 00 00 00 00 00 00 00
e0: 00 00 00 00 00 00 00 00 00 00 00 00 00 00 00 00
f0: 00 00 00 00 00 00 00 00 68 0f 02 00 00 00 00 00

00:03.0 PCI bridge: Intel Corp. 82875P Processor to PCI to CSA Bridge (rev 02) (prog-if 00 [Normal decode])
	Control: I/O+ Mem+ BusMaster+ SpecCycle- MemWINV- VGASnoop- ParErr- Stepping- SERR+ FastB2B-
	Status: Cap- 66Mhz+ UDF- FastB2B+ ParErr- DEVSEL=fast >TAbort- <TAbort- <MAbort- >SERR- <PERR-
	Latency: 32
	Bus: primary=00, secondary=02, subordinate=02, sec-latency=0
	I/O behind bridge: 0000a000-0000afff
	Memory behind bridge: ec000000-ec0fffff
	Prefetchable memory behind bridge: fff00000-000fffff
	BridgeCtl: Parity- SERR- NoISA+ VGA- MAbort- >Reset- FastB2B-
00: 86 80 7b 25 07 01 a0 00 02 00 04 06 00 20 01 00
10: 00 00 00 00 00 00 00 00 00 02 02 00 a0 a0 a0 22
20: 00 ec 00 ec f0 ff 00 00 00 00 00 00 00 00 00 00
30: 00 00 00 00 00 00 00 00 00 00 00 00 00 00 04 00
40: 00 00 00 00 00 00 00 00 00 00 00 00 00 00 00 00
50: 02 28 04 0e 04 00 00 00 00 00 00 00 00 00 00 00
60: 00 00 00 00 00 00 00 00 00 00 00 00 00 00 00 00
70: 00 00 00 00 00 00 00 00 00 00 00 00 00 00 00 00
80: 00 00 00 00 00 00 00 00 00 00 00 00 00 00 00 00
90: 00 00 00 00 00 00 00 00 00 00 00 00 00 00 00 00
a0: 00 00 00 00 00 00 00 00 00 00 00 00 00 00 00 00
b0: 00 00 00 00 00 00 00 00 00 00 00 00 00 00 00 00
c0: 00 00 00 00 00 00 00 00 00 00 00 00 00 00 00 00
d0: 00 00 00 00 00 00 00 00 00 00 00 00 00 00 00 00
e0: 00 00 00 00 00 00 00 00 00 00 00 00 00 00 00 00
f0: 00 00 00 00 00 00 00 00 68 0f 02 00 00 00 00 00

00:1d.0 USB Controller: Intel Corp. 82801EB USB (rev 02) (prog-if 00 [UHCI])
	Subsystem: Intel Corp. 82801EB USB
	Control: I/O+ Mem- BusMaster+ SpecCycle- MemWINV- VGASnoop- ParErr- Stepping- SERR- FastB2B-
	Status: Cap- 66Mhz- UDF- FastB2B+ ParErr- DEVSEL=medium >TAbort- <TAbort- <MAbort- >SERR- <PERR-
	Latency: 0
	Interrupt: pin A routed to IRQ 16
	Region 4: I/O ports at cc00 [size=32]
00: 86 80 d2 24 05 00 80 02 02 00 03 0c 00 00 80 00
10: 00 00 00 00 00 00 00 00 00 00 00 00 00 00 00 00
20: 01 cc 00 00 00 00 00 00 00 00 00 00 86 80 d2 24
30: 00 00 00 00 00 00 00 00 00 00 00 00 0a 01 00 00
40: 00 00 00 00 00 00 00 00 00 00 00 00 00 00 00 00
50: 00 00 00 00 00 00 00 00 00 00 00 00 00 00 00 00
60: 10 00 00 00 00 00 00 00 00 00 00 00 00 00 00 00
70: 00 00 00 00 00 00 00 00 00 00 00 00 00 00 00 00
80: 00 00 00 00 00 00 00 00 00 00 00 00 00 00 00 00
90: 00 00 00 00 00 00 00 00 00 00 00 00 00 00 00 00
a0: 00 00 00 00 00 00 00 00 00 00 00 00 00 00 00 00
b0: 00 00 00 00 00 00 00 00 00 00 00 00 00 00 00 00
c0: 00 27 00 00 00 00 00 00 00 00 00 00 00 00 00 00
d0: 00 00 00 00 00 00 00 00 00 00 00 00 00 00 00 00
e0: 00 00 00 00 00 00 00 00 00 00 00 00 00 00 00 00
f0: 00 00 00 00 00 00 00 00 66 0f 04 00 00 00 00 00

00:1d.1 USB Controller: Intel Corp. 82801EB USB (rev 02) (prog-if 00 [UHCI])
	Subsystem: Intel Corp.: Unknown device 24d2
	Control: I/O+ Mem- BusMaster+ SpecCycle- MemWINV- VGASnoop- ParErr- Stepping- SERR- FastB2B-
	Status: Cap- 66Mhz- UDF- FastB2B+ ParErr- DEVSEL=medium >TAbort- <TAbort- <MAbort- >SERR- <PERR-
	Latency: 0
	Interrupt: pin B routed to IRQ 19
	Region 4: I/O ports at c000 [size=32]
00: 86 80 d4 24 05 00 80 02 02 00 03 0c 00 00 00 00
10: 00 00 00 00 00 00 00 00 00 00 00 00 00 00 00 00
20: 01 c0 00 00 00 00 00 00 00 00 00 00 86 80 d2 24
30: 00 00 00 00 00 00 00 00 00 00 00 00 05 02 00 00
40: 00 00 00 00 00 00 00 00 00 00 00 00 00 00 00 00
50: 00 00 00 00 00 00 00 00 00 00 00 00 00 00 00 00
60: 10 00 00 00 00 00 00 00 00 00 00 00 00 00 00 00
70: 00 00 00 00 00 00 00 00 00 00 00 00 00 00 00 00
80: 00 00 00 00 00 00 00 00 00 00 00 00 00 00 00 00
90: 00 00 00 00 00 00 00 00 00 00 00 00 00 00 00 00
a0: 00 00 00 00 00 00 00 00 00 00 00 00 00 00 00 00
b0: 00 00 00 00 00 00 00 00 00 00 00 00 00 00 00 00
c0: 00 27 00 00 00 00 00 00 00 00 00 00 00 00 00 00
d0: 00 00 00 00 00 00 00 00 00 00 00 00 00 00 00 00
e0: 00 00 00 00 00 00 00 00 00 00 00 00 00 00 00 00
f0: 00 00 00 00 00 00 00 00 66 0f 04 00 00 00 00 00

00:1d.2 USB Controller: Intel Corp. 82801EB USB (rev 02) (prog-if 00 [UHCI])
	Subsystem: Intel Corp.: Unknown device 24d2
	Control: I/O+ Mem- BusMaster+ SpecCycle- MemWINV- VGASnoop- ParErr- Stepping- SERR- FastB2B-
	Status: Cap- 66Mhz- UDF- FastB2B+ ParErr- DEVSEL=medium >TAbort- <TAbort- <MAbort- >SERR- <PERR-
	Latency: 0
	Interrupt: pin C routed to IRQ 18
	Region 4: I/O ports at c400 [size=32]
00: 86 80 d7 24 05 00 80 02 02 00 03 0c 00 00 00 00
10: 00 00 00 00 00 00 00 00 00 00 00 00 00 00 00 00
20: 01 c4 00 00 00 00 00 00 00 00 00 00 86 80 d2 24
30: 00 00 00 00 00 00 00 00 00 00 00 00 0b 03 00 00
40: 00 00 00 00 00 00 00 00 00 00 00 00 00 00 00 00
50: 00 00 00 00 00 00 00 00 00 00 00 00 00 00 00 00
60: 10 00 00 00 00 00 00 00 00 00 00 00 00 00 00 00
70: 00 00 00 00 00 00 00 00 00 00 00 00 00 00 00 00
80: 00 00 00 00 00 00 00 00 00 00 00 00 00 00 00 00
90: 00 00 00 00 00 00 00 00 00 00 00 00 00 00 00 00
a0: 00 00 00 00 00 00 00 00 00 00 00 00 00 00 00 00
b0: 00 00 00 00 00 00 00 00 00 00 00 00 00 00 00 00
c0: 00 27 00 00 00 00 00 00 00 00 00 00 00 00 00 00
d0: 00 00 00 00 00 00 00 00 00 00 00 00 00 00 00 00
e0: 00 00 00 00 00 00 00 00 00 00 00 00 00 00 00 00
f0: 00 00 00 00 00 00 00 00 66 0f 04 00 00 00 00 00

00:1d.3 USB Controller: Intel Corp. 82801EB USB (rev 02) (prog-if 00 [UHCI])
	Subsystem: Intel Corp.: Unknown device 24d2
	Control: I/O+ Mem- BusMaster+ SpecCycle- MemWINV- VGASnoop- ParErr- Stepping- SERR- FastB2B-
	Status: Cap- 66Mhz- UDF- FastB2B+ ParErr- DEVSEL=medium >TAbort- <TAbort- <MAbort- >SERR- <PERR-
	Latency: 0
	Interrupt: pin A routed to IRQ 16
	Region 4: I/O ports at c800 [size=32]
00: 86 80 de 24 05 00 80 02 02 00 03 0c 00 00 00 00
10: 00 00 00 00 00 00 00 00 00 00 00 00 00 00 00 00
20: 01 c8 00 00 00 00 00 00 00 00 00 00 86 80 d2 24
30: 00 00 00 00 00 00 00 00 00 00 00 00 0a 01 00 00
40: 00 00 00 00 00 00 00 00 00 00 00 00 00 00 00 00
50: 00 00 00 00 00 00 00 00 00 00 00 00 00 00 00 00
60: 10 00 00 00 00 00 00 00 00 00 00 00 00 00 00 00
70: 00 00 00 00 00 00 00 00 00 00 00 00 00 00 00 00
80: 00 00 00 00 00 00 00 00 00 00 00 00 00 00 00 00
90: 00 00 00 00 00 00 00 00 00 00 00 00 00 00 00 00
a0: 00 00 00 00 00 00 00 00 00 00 00 00 00 00 00 00
b0: 00 00 00 00 00 00 00 00 00 00 00 00 00 00 00 00
c0: 00 27 00 00 00 00 00 00 00 00 00 00 00 00 00 00
d0: 00 00 00 00 00 00 00 00 00 00 00 00 00 00 00 00
e0: 00 00 00 00 00 00 00 00 00 00 00 00 00 00 00 00
f0: 00 00 00 00 00 00 00 00 66 0f 04 00 00 00 00 00

00:1d.7 USB Controller: Intel Corp. 82801EB USB2 (rev 02) (prog-if 20 [EHCI])
	Subsystem: Intel Corp. 82801EB USB2
	Control: I/O- Mem+ BusMaster+ SpecCycle- MemWINV- VGASnoop- ParErr- Stepping- SERR- FastB2B-
	Status: Cap+ 66Mhz- UDF- FastB2B+ ParErr- DEVSEL=medium >TAbort- <TAbort- <MAbort- >SERR- <PERR-
	Latency: 0
	Interrupt: pin D routed to IRQ 23
	Region 0: Memory at ec201000 (32-bit, non-prefetchable) [size=1K]
	Capabilities: [50] Power Management version 2
		Flags: PMEClk- DSI- D1- D2- AuxCurrent=375mA PME(D0+,D1-,D2-,D3hot+,D3cold+)
		Status: D0 PME-Enable- DSel=0 DScale=0 PME-
00: 86 80 dd 24 06 00 90 02 02 20 03 0c 00 00 00 00
10: 00 10 20 ec 00 00 00 00 00 00 00 00 00 00 00 00
20: 00 00 00 00 00 00 00 00 00 00 00 00 86 80 dd 24
30: 00 00 00 00 50 00 00 00 00 00 00 00 0b 04 00 00
40: 00 00 00 00 00 00 00 00 00 00 00 00 00 00 00 00
50: 01 00 c2 c9 00 00 00 00 0a 00 a0 20 00 00 00 00
60: 20 20 ff 01 00 00 00 00 01 00 00 00 00 00 0c c0
70: 00 00 c5 3f 00 00 00 00 00 00 00 00 00 00 00 00
80: 00 00 00 00 01 00 00 00 00 00 00 00 00 00 00 00
90: 00 00 00 00 00 00 00 00 00 00 00 00 00 00 00 00
a0: 00 00 00 00 00 00 00 00 00 00 00 00 00 00 00 00
b0: 00 00 00 00 00 00 00 00 00 00 00 00 00 00 00 00
c0: 00 00 00 00 00 00 00 00 00 00 00 00 00 00 00 00
d0: 00 00 00 00 00 00 00 00 55 55 00 00 00 00 00 00
e0: 00 00 00 00 00 00 00 00 00 00 00 00 00 00 00 00
f0: 00 80 00 00 88 83 40 00 66 0f 04 00 06 14 00 00

00:1e.0 PCI bridge: Intel Corp. 82801BA/CA/DB/EB PCI Bridge (rev c2) (prog-if 00 [Normal decode])
	Control: I/O+ Mem+ BusMaster+ SpecCycle- MemWINV- VGASnoop- ParErr- Stepping- SERR+ FastB2B-
	Status: Cap- 66Mhz- UDF- FastB2B+ ParErr- DEVSEL=fast >TAbort- <TAbort- <MAbort- >SERR- <PERR-
	Latency: 0
	Bus: primary=00, secondary=03, subordinate=03, sec-latency=32
	I/O behind bridge: 00008000-00009fff
	Memory behind bridge: ea000000-ebffffff
	Prefetchable memory behind bridge: ec100000-ec1fffff
	BridgeCtl: Parity- SERR+ NoISA+ VGA- MAbort- >Reset- FastB2B-
00: 86 80 4e 24 07 01 80 00 c2 00 04 06 00 00 01 00
10: 00 00 00 00 00 00 00 00 00 03 03 20 80 90 80 22
20: 00 ea f0 eb 10 ec 10 ec 00 00 00 00 00 00 00 00
30: 00 00 00 00 00 00 00 00 00 00 00 00 00 00 06 00
40: 02 28 30 76 00 00 00 00 00 00 00 00 00 00 00 00
50: 02 64 73 00 00 00 00 00 50 01 34 00 00 00 00 00
60: 00 00 00 00 00 00 00 00 00 00 00 00 00 00 00 00
70: 10 00 00 00 00 00 00 00 00 00 00 00 00 00 00 00
80: 00 00 86 00 00 00 00 00 00 00 00 00 00 00 00 00
90: 00 00 00 00 00 00 00 00 00 00 00 00 00 00 00 00
a0: 00 00 00 00 00 00 00 00 00 00 00 00 00 00 00 00
b0: 01 00 02 00 00 00 c0 00 00 00 00 00 00 00 00 00
c0: 00 00 00 00 00 00 00 00 00 00 00 00 00 00 00 00
d0: 00 00 00 00 00 00 00 00 00 00 00 00 00 00 00 00
e0: 00 00 00 00 00 00 00 00 00 00 00 00 00 00 00 00
f0: 00 00 00 00 00 00 00 00 66 0f 04 00 00 00 51 33

00:1f.0 ISA bridge: Intel Corp. 82801EB LPC Interface Controller (rev 02)
	Control: I/O+ Mem+ BusMaster+ SpecCycle+ MemWINV- VGASnoop- ParErr- Stepping- SERR- FastB2B-
	Status: Cap- 66Mhz- UDF- FastB2B+ ParErr- DEVSEL=medium >TAbort- <TAbort- <MAbort- >SERR- <PERR-
	Latency: 0
00: 86 80 d0 24 0f 00 80 02 02 00 01 06 00 00 80 00
10: 00 00 00 00 00 00 00 00 00 00 00 00 00 00 00 00
20: 00 00 00 00 00 00 00 00 00 00 00 00 00 00 00 00
30: 00 00 00 00 00 00 00 00 00 00 00 00 00 00 00 00
40: 01 04 00 00 10 00 00 00 00 00 00 00 00 00 00 00
50: 00 00 00 00 08 00 00 00 81 04 00 00 10 00 00 00
60: 0a 0c 0b 05 d0 00 00 00 80 05 09 0b 00 00 00 00
70: 00 00 00 00 00 00 00 00 00 00 00 00 00 00 00 00
80: 00 00 00 00 00 00 00 00 00 00 00 00 00 00 00 00
90: f5 54 00 00 00 00 00 00 00 00 00 00 00 00 00 00
a0: 20 02 00 00 08 00 00 00 0d 00 00 00 00 03 00 00
b0: 00 00 00 00 00 00 00 00 55 55 56 59 00 00 00 00
c0: 00 00 00 00 00 00 00 00 00 00 00 00 00 00 00 00
d0: 86 21 00 00 02 0f 00 00 04 00 00 00 00 00 00 00
e0: 10 00 00 c0 00 00 0f 34 33 22 11 00 00 00 67 45
f0: 00 00 64 00 04 00 00 00 66 0f 04 1e 00 00 00 00

00:1f.1 IDE interface: Intel Corp. 82801EB Ultra ATA Storage Controller (rev 02) (prog-if 8a [Master SecP PriP])
	Subsystem: Intel Corp.: Unknown device 24d2
	Control: I/O+ Mem+ BusMaster+ SpecCycle- MemWINV- VGASnoop- ParErr- Stepping- SERR- FastB2B-
	Status: Cap- 66Mhz- UDF- FastB2B+ ParErr- DEVSEL=medium >TAbort- <TAbort- <MAbort- >SERR- <PERR-
	Latency: 0
	Interrupt: pin A routed to IRQ 18
	Region 0: I/O ports at <unassigned>
	Region 1: I/O ports at <unassigned>
	Region 2: I/O ports at <unassigned>
	Region 3: I/O ports at <unassigned>
	Region 4: I/O ports at f000 [size=16]
	Region 5: Memory at 40000000 (32-bit, non-prefetchable) [size=1K]
00: 86 80 db 24 07 00 88 02 02 8a 01 01 00 00 00 00
10: 01 00 00 00 01 00 00 00 01 00 00 00 01 00 00 00
20: 01 f0 00 00 00 00 00 40 00 00 00 00 86 80 d2 24
30: 00 00 00 00 00 00 00 00 00 00 00 00 00 01 00 00
40: 77 e3 07 90 0b 00 00 00 03 00 22 00 00 00 00 00
50: 00 00 00 00 30 00 00 00 00 00 00 00 00 00 00 00
60: 08 00 00 00 00 00 00 00 08 00 00 00 00 00 00 00
70: 00 00 00 00 00 00 00 00 00 00 00 00 00 00 00 00
80: 00 00 00 00 00 00 00 00 00 00 00 00 00 00 00 00
90: 00 00 00 00 00 00 00 00 00 00 00 00 00 00 00 00
a0: 00 00 00 00 00 00 00 00 00 00 00 00 00 00 00 00
b0: 00 00 00 00 00 00 00 00 00 00 00 00 00 00 00 00
c0: 00 00 00 00 00 00 00 00 00 00 00 00 00 00 00 00
d0: 00 00 00 00 00 00 00 00 00 00 00 00 00 00 00 00
e0: 00 00 00 00 00 00 00 00 00 00 00 00 00 00 00 00
f0: 00 00 00 00 00 00 00 00 66 0f 04 00 00 00 00 00

00:1f.3 SMBus: Intel Corp. 82801EB SMBus Controller (rev 02)
	Subsystem: Intel Corp.: Unknown device 24d2
	Control: I/O+ Mem- BusMaster- SpecCycle- MemWINV- VGASnoop- ParErr- Stepping- SERR- FastB2B-
	Status: Cap- 66Mhz- UDF- FastB2B+ ParErr- DEVSEL=medium >TAbort- <TAbort- <MAbort- >SERR- <PERR-
	Interrupt: pin B routed to IRQ 17
	Region 4: I/O ports at 0500 [size=32]
00: 86 80 d3 24 01 00 80 02 02 00 05 0c 00 00 00 00
10: 00 00 00 00 00 00 00 00 00 00 00 00 00 00 00 00
20: 01 05 00 00 00 00 00 00 00 00 00 00 86 80 d2 24
30: 00 00 00 00 00 00 00 00 00 00 00 00 0c 02 00 00
40: 01 00 00 00 00 00 00 00 00 00 00 00 00 00 00 00
50: 00 00 00 00 00 00 00 00 00 00 00 00 00 00 00 00
60: 00 00 00 00 00 00 00 00 00 00 00 00 00 00 00 00
70: 00 00 00 00 00 00 00 00 00 00 00 00 00 00 00 00
80: 00 00 00 00 00 00 00 00 00 00 00 00 00 00 00 00
90: 00 00 00 00 00 00 00 00 00 00 00 00 00 00 00 00
a0: 00 00 00 00 00 00 00 00 00 00 00 00 00 00 00 00
b0: 00 00 00 00 00 00 00 00 00 00 00 00 00 00 00 00
c0: 00 00 00 00 00 00 00 00 00 00 00 00 00 00 00 00
d0: 00 00 00 00 00 00 00 00 00 00 00 00 00 00 00 00
e0: 00 00 00 00 00 00 00 00 00 00 00 00 00 00 00 00
f0: 00 00 00 00 00 00 00 00 66 0f 04 00 00 00 00 00

01:00.0 VGA compatible controller: ATI Technologies Inc Radeon RV280 [Radeon 9200] (rev 01) (prog-if 00 [VGA])
	Subsystem: PC Partner Limited: Unknown device 7c13
	Control: I/O+ Mem+ BusMaster+ SpecCycle- MemWINV- VGASnoop- ParErr- Stepping- SERR- FastB2B-
	Status: Cap+ 66Mhz+ UDF- FastB2B+ ParErr- DEVSEL=medium >TAbort- <TAbort- <MAbort- >SERR- <PERR-
	Latency: 32 (2000ns min), Cache Line Size: 0x08 (32 bytes)
	Interrupt: pin A routed to IRQ 16
	Region 0: Memory at d8000000 (32-bit, prefetchable) [size=128M]
	Region 1: I/O ports at b000 [size=256]
	Region 2: Memory at e9000000 (32-bit, non-prefetchable) [size=64K]
	Expansion ROM at <unassigned> [disabled] [size=128K]
	Capabilities: [58] AGP version 3.0
		Status: RQ=256 Iso- ArqSz=0 Cal=0 SBA+ ITACoh- GART64- HTrans- 64bit- FW+ AGP3+ Rate=x4,x8
		Command: RQ=1 ArqSz=0 Cal=0 SBA+ AGP- GART64- 64bit- FW- Rate=<none>
	Capabilities: [50] Power Management version 2
		Flags: PMEClk- DSI- D1+ D2+ AuxCurrent=0mA PME(D0-,D1-,D2-,D3hot-,D3cold-)
		Status: D0 PME-Enable- DSel=0 DScale=0 PME-
00: 02 10 61 59 07 00 b0 02 01 00 00 03 08 20 80 00
10: 08 00 00 d8 01 b0 00 00 00 00 00 e9 00 00 00 00
20: 00 00 00 00 00 00 00 00 00 00 00 00 4b 17 13 7c
30: 00 00 00 00 58 00 00 00 00 00 00 00 0a 01 08 00
40: 00 00 00 00 00 00 00 00 00 00 00 00 4b 17 13 7c
50: 01 00 02 06 00 00 00 00 02 50 30 00 1b 02 00 ff
60: 00 02 00 00 00 00 00 00 00 00 00 00 00 00 00 00
70: 00 00 00 00 00 00 00 00 00 00 00 00 00 00 00 00
80: 05 00 00 00 00 00 00 00 00 00 00 00 00 00 00 00
90: 00 00 00 00 00 00 00 00 00 00 00 00 00 00 00 00
a0: 00 00 00 00 00 00 00 00 00 00 00 00 00 00 00 00
b0: 00 00 00 00 00 00 00 00 00 00 00 00 00 00 00 00
c0: 00 00 00 00 00 00 00 00 00 00 00 00 00 00 00 00
d0: 00 00 00 00 00 00 00 00 00 00 00 00 00 00 00 00
e0: 00 00 00 00 00 00 00 00 00 00 00 00 00 00 00 00
f0: 00 00 00 00 00 00 00 00 00 00 00 00 00 00 00 00

01:00.1 Display controller: ATI Technologies Inc: Unknown device 5941 (rev 01)
	Subsystem: PC Partner Limited: Unknown device 7c12
	Control: I/O- Mem- BusMaster+ SpecCycle- MemWINV- VGASnoop- ParErr- Stepping- SERR- FastB2B-
	Status: Cap+ 66Mhz+ UDF- FastB2B+ ParErr- DEVSEL=medium >TAbort- <TAbort- <MAbort- >SERR- <PERR-
	Latency: 32 (2000ns min), Cache Line Size: 0x08 (32 bytes)
	Region 0: Memory at e0000000 (32-bit, prefetchable) [disabled] [size=128M]
	Region 1: Memory at e9010000 (32-bit, non-prefetchable) [disabled] [size=64K]
	Capabilities: [50] Power Management version 2
		Flags: PMEClk- DSI- D1+ D2+ AuxCurrent=0mA PME(D0-,D1-,D2-,D3hot-,D3cold-)
		Status: D0 PME-Enable- DSel=0 DScale=0 PME-
00: 02 10 41 59 04 00 b0 02 01 00 80 03 08 20 00 00
10: 08 00 00 e0 00 00 01 e9 00 00 00 00 00 00 00 00
20: 00 00 00 00 00 00 00 00 00 00 00 00 4b 17 12 7c
30: 00 00 00 00 50 00 00 00 00 00 00 00 ff 00 08 00
40: 00 00 00 00 00 00 00 00 00 00 00 00 00 00 00 00
50: 01 00 02 06 00 00 00 00 02 50 30 00 1b 02 00 ff
60: 00 02 00 00 00 00 00 00 00 00 00 00 00 00 00 00
70: 00 00 00 00 00 00 00 00 00 00 00 00 00 00 00 00
80: 00 00 00 00 00 00 00 00 00 00 00 00 00 00 00 00
90: 00 00 00 00 00 00 00 00 00 00 00 00 00 00 00 00
a0: 00 00 00 00 00 00 00 00 00 00 00 00 00 00 00 00
b0: 00 00 00 00 00 00 00 00 00 00 00 00 00 00 00 00
c0: 00 00 00 00 00 00 00 00 00 00 00 00 00 00 00 00
d0: 00 00 00 00 00 00 00 00 00 00 00 00 00 00 00 00
e0: 00 00 00 00 00 00 00 00 00 00 00 00 00 00 00 00
f0: 00 00 00 00 00 00 00 00 00 00 00 00 00 00 00 00

02:01.0 Ethernet controller: Intel Corp.: Unknown device 1019
	Subsystem: Intel Corp.: Unknown device 1019
	Control: I/O+ Mem+ BusMaster+ SpecCycle- MemWINV- VGASnoop- ParErr- Stepping- SERR- FastB2B-
	Status: Cap+ 66Mhz+ UDF- FastB2B- ParErr- DEVSEL=medium >TAbort- <TAbort- <MAbort- >SERR- <PERR-
	Latency: 0 (63750ns min), Cache Line Size: 0x08 (32 bytes)
	Interrupt: pin A routed to IRQ 18
	Region 0: Memory at ec000000 (32-bit, non-prefetchable) [size=128K]
	Region 2: I/O ports at a000 [size=32]
	Capabilities: [dc] Power Management version 2
		Flags: PMEClk- DSI+ D1- D2- AuxCurrent=0mA PME(D0+,D1-,D2-,D3hot+,D3cold+)
		Status: D0 PME-Enable- DSel=0 DScale=1 PME-
00: 86 80 19 10 07 00 38 02 00 00 00 02 08 00 00 00
10: 00 00 00 ec 00 00 00 00 01 a0 00 00 00 00 00 00
20: 00 00 00 00 00 00 00 00 00 00 00 00 86 80 19 10
30: 00 00 00 00 dc 00 00 00 00 00 00 00 0b 01 ff 00
40: 00 00 00 00 00 00 00 00 00 00 00 00 00 00 00 00
50: 00 00 00 00 00 00 00 00 00 00 00 00 00 00 00 00
60: 00 00 00 00 00 00 00 00 00 00 00 00 00 00 00 00
70: 00 00 00 00 00 00 00 00 00 00 00 00 00 00 00 00
80: 00 00 00 00 00 00 00 00 00 00 00 00 00 00 00 00
90: 00 00 00 00 00 00 00 00 00 00 00 00 00 00 00 00
a0: 00 00 00 00 00 00 00 00 00 00 00 00 00 00 00 00
b0: 00 00 00 00 00 00 00 00 00 00 00 00 00 00 00 00
c0: 00 00 00 00 00 00 00 00 00 00 00 00 00 00 00 00
d0: 00 00 00 00 00 00 00 00 00 00 00 00 01 00 22 c8
e0: 00 20 00 29 00 00 00 00 00 00 00 00 00 00 00 00
f0: 05 00 80 00 00 00 00 00 00 00 00 00 00 00 00 00

03:04.0 Multimedia video controller: Brooktree Corporation Bt878 Video Capture (rev 11)
	Control: I/O- Mem+ BusMaster+ SpecCycle- MemWINV- VGASnoop- ParErr- Stepping- SERR- FastB2B-
	Status: Cap+ 66Mhz- UDF- FastB2B+ ParErr- DEVSEL=medium >TAbort- <TAbort- <MAbort- >SERR- <PERR-
	Latency: 32 (4000ns min, 10000ns max)
	Interrupt: pin A routed to IRQ 17
	Region 0: Memory at ec100000 (32-bit, prefetchable) [size=4K]
	Capabilities: [44] Vital Product Data
	Capabilities: [4c] Power Management version 2
		Flags: PMEClk- DSI+ D1- D2- AuxCurrent=0mA PME(D0-,D1-,D2-,D3hot-,D3cold-)
		Status: D0 PME-Enable- DSel=0 DScale=0 PME-
00: 9e 10 6e 03 06 00 90 02 11 00 00 04 00 20 80 00
10: 08 00 10 ec 00 00 00 00 00 00 00 00 00 00 00 00
20: 00 00 00 00 00 00 00 00 00 00 00 00 00 00 00 00
30: 00 00 00 00 44 00 00 00 00 00 00 00 0c 01 10 28
40: 00 00 00 00 03 4c 00 00 00 00 00 00 01 00 22 00
50: 00 00 00 00 00 00 00 00 00 00 00 00 00 00 00 00
60: 00 00 00 00 00 00 00 00 00 00 00 00 00 00 00 00
70: 00 00 00 00 00 00 00 00 00 00 00 00 00 00 00 00
80: 00 00 00 00 00 00 00 00 00 00 00 00 00 00 00 00
90: 00 00 00 00 00 00 00 00 00 00 00 00 00 00 00 00
a0: 00 00 00 00 00 00 00 00 00 00 00 00 00 00 00 00
b0: 00 00 00 00 00 00 00 00 00 00 00 00 00 00 00 00
c0: 00 00 00 00 00 00 00 00 00 00 00 00 00 00 00 00
d0: 00 00 00 00 00 00 00 00 00 00 00 00 00 00 00 00
e0: 00 00 00 00 00 00 00 00 00 00 00 00 00 00 00 00
f0: 00 00 00 00 00 00 00 00 00 00 00 00 00 00 00 00

03:04.1 Multimedia controller: Brooktree Corporation Bt878 Audio Capture (rev 11)
	Control: I/O- Mem+ BusMaster+ SpecCycle- MemWINV- VGASnoop- ParErr- Stepping- SERR- FastB2B-
	Status: Cap+ 66Mhz- UDF- FastB2B+ ParErr- DEVSEL=medium >TAbort- <TAbort- <MAbort- >SERR- <PERR-
	Latency: 32 (1000ns min, 63750ns max)
	Interrupt: pin A routed to IRQ 17
	Region 0: Memory at ec101000 (32-bit, prefetchable) [size=4K]
	Capabilities: [44] Vital Product Data
	Capabilities: [4c] Power Management version 2
		Flags: PMEClk- DSI+ D1- D2- AuxCurrent=0mA PME(D0-,D1-,D2-,D3hot-,D3cold-)
		Status: D0 PME-Enable- DSel=0 DScale=0 PME-
00: 9e 10 78 08 06 00 90 02 11 00 80 04 00 20 80 00
10: 08 10 10 ec 00 00 00 00 00 00 00 00 00 00 00 00
20: 00 00 00 00 00 00 00 00 00 00 00 00 00 00 00 00
30: 00 00 00 00 44 00 00 00 00 00 00 00 0c 01 04 ff
40: 00 00 00 00 03 4c 00 00 00 00 00 00 01 00 22 00
50: 00 00 00 00 00 00 00 00 00 00 00 00 00 00 00 00
60: 00 00 00 00 00 00 00 00 00 00 00 00 00 00 00 00
70: 00 00 00 00 00 00 00 00 00 00 00 00 00 00 00 00
80: 00 00 00 00 00 00 00 00 00 00 00 00 00 00 00 00
90: 00 00 00 00 00 00 00 00 00 00 00 00 00 00 00 00
a0: 00 00 00 00 00 00 00 00 00 00 00 00 00 00 00 00
b0: 00 00 00 00 00 00 00 00 00 00 00 00 00 00 00 00
c0: 00 00 00 00 00 00 00 00 00 00 00 00 00 00 00 00
d0: 00 00 00 00 00 00 00 00 00 00 00 00 00 00 00 00
e0: 00 00 00 00 00 00 00 00 00 00 00 00 00 00 00 00
f0: 00 00 00 00 00 00 00 00 00 00 00 00 00 00 00 00

03:06.0 RAID bus controller: Triones Technologies, Inc. HPT366/368/370/370A/372 (rev 05)
	Subsystem: Soyo Computer, Inc: Unknown device 0004
	Control: I/O+ Mem- BusMaster+ SpecCycle- MemWINV- VGASnoop- ParErr- Stepping- SERR- FastB2B-
	Status: Cap+ 66Mhz+ UDF- FastB2B- ParErr- DEVSEL=medium >TAbort- <TAbort- <MAbort- >SERR- <PERR-
	Latency: 120 (2000ns min, 2000ns max)
	Interrupt: pin A routed to IRQ 21
	Region 0: I/O ports at 8000 [size=8]
	Region 1: I/O ports at 8400 [size=4]
	Region 2: I/O ports at 8800 [size=8]
	Region 3: I/O ports at 8c00 [size=4]
	Region 4: I/O ports at 9000 [size=256]
	Expansion ROM at <unassigned> [disabled] [size=128K]
	Capabilities: [60] Power Management version 2
		Flags: PMEClk- DSI+ D1- D2- AuxCurrent=0mA PME(D0-,D1-,D2-,D3hot-,D3cold-)
		Status: D0 PME-Enable- DSel=0 DScale=0 PME-
00: 03 11 04 00 05 00 30 02 05 00 04 01 00 78 00 00
10: 01 80 00 00 01 84 00 00 01 88 00 00 01 8c 00 00
20: 01 90 00 00 00 00 00 00 00 00 00 00 fd 10 04 00
30: 00 00 00 00 60 00 00 00 00 00 00 00 05 01 08 08
40: 62 9c 84 1c 62 9c 84 1c a7 4e 81 06 a7 4e 81 06
50: 05 00 00 00 05 00 00 00 1b 00 00 23 20 00 26 00
60: 01 00 22 00 00 00 00 00 00 08 00 00 00 00 00 00
70: 00 00 00 00 00 00 00 00 80 00 f6 00 00 00 00 00
80: 00 00 00 00 00 00 00 00 00 00 00 00 00 00 00 00
90: 00 00 00 00 00 00 00 00 00 00 00 00 00 00 00 00
a0: 00 00 00 00 00 00 00 00 00 00 00 00 00 00 00 00
b0: 00 00 00 00 00 00 00 00 00 00 00 00 00 00 00 00
c0: 00 00 00 00 00 00 00 00 00 00 00 00 00 00 00 00
d0: 00 00 00 00 00 00 00 00 00 00 00 00 00 00 00 00
e0: 00 00 00 00 00 00 00 00 00 00 00 00 00 00 00 00
f0: 00 00 00 00 00 00 00 00 00 00 00 00 00 00 00 00

03:07.0 Multimedia audio controller: C-Media Electronics Inc CM8738 (rev 10)
	Subsystem: Soyo Computer, Inc: Unknown device a419
	Control: I/O+ Mem- BusMaster+ SpecCycle- MemWINV- VGASnoop- ParErr- Stepping- SERR- FastB2B-
	Status: Cap+ 66Mhz- UDF- FastB2B- ParErr- DEVSEL=medium >TAbort- <TAbort- <MAbort- >SERR- <PERR-
	Latency: 32 (500ns min, 6000ns max)
	Interrupt: pin A routed to IRQ 22
	Region 0: I/O ports at 9400 [size=256]
	Capabilities: [c0] Power Management version 2
		Flags: PMEClk- DSI- D1+ D2+ AuxCurrent=0mA PME(D0-,D1-,D2-,D3hot-,D3cold-)
		Status: D0 PME-Enable- DSel=0 DScale=0 PME-
00: f6 13 11 01 05 00 10 02 10 00 01 04 00 20 00 00
10: 01 94 00 00 00 00 00 00 00 00 00 00 00 00 00 00
20: 00 00 00 00 00 00 00 00 00 00 00 00 fd 10 19 a4
30: 00 00 00 00 c0 00 00 00 00 00 00 00 09 01 02 18
40: 00 00 00 00 00 00 00 00 00 00 00 00 00 00 00 00
50: 00 00 00 00 00 00 00 00 00 00 00 00 00 00 00 00
60: 00 00 00 00 00 00 00 00 00 00 00 00 00 00 00 00
70: 00 00 00 00 00 00 00 00 00 00 00 00 00 00 00 00
80: 00 00 00 00 00 00 00 00 00 00 00 00 00 00 00 00
90: 00 00 00 00 00 00 00 00 00 00 00 00 00 00 00 00
a0: 00 00 00 00 00 00 00 00 00 00 00 00 00 00 00 00
b0: 00 00 00 00 00 00 00 00 00 00 00 00 00 00 00 00
c0: 01 00 02 06 00 00 00 00 00 00 00 00 00 00 00 00
d0: 00 00 00 00 00 00 00 00 00 00 00 00 00 00 00 00
e0: 00 00 00 00 00 00 00 00 00 00 00 00 00 00 00 00
f0: 00 00 00 00 00 00 00 00 00 00 00 00 00 00 00 00

03:0a.0 FireWire (IEEE 1394): VIA Technologies, Inc. IEEE 1394 Host Controller (rev 46) (prog-if 10 [OHCI])
	Subsystem: VIA Technologies, Inc. IEEE 1394 Host Controller
	Control: I/O+ Mem+ BusMaster+ SpecCycle- MemWINV- VGASnoop- ParErr- Stepping- SERR- FastB2B-
	Status: Cap+ 66Mhz- UDF- FastB2B- ParErr- DEVSEL=medium >TAbort- <TAbort- <MAbort- >SERR- <PERR-
	Latency: 32 (8000ns max), Cache Line Size: 0x08 (32 bytes)
	Interrupt: pin A routed to IRQ 19
	Region 0: Memory at eb000000 (32-bit, non-prefetchable) [size=2K]
	Region 1: I/O ports at 9800 [size=128]
	Capabilities: [50] Power Management version 2
		Flags: PMEClk- DSI- D1- D2+ AuxCurrent=0mA PME(D0-,D1-,D2+,D3hot+,D3cold+)
		Status: D0 PME-Enable- DSel=0 DScale=0 PME-
00: 06 11 44 30 07 00 10 02 46 10 00 0c 08 20 00 00
10: 00 00 00 eb 01 98 00 00 00 00 00 00 00 00 00 00
20: 00 00 00 00 00 00 00 00 00 00 00 00 06 11 44 30
30: 00 00 00 00 50 00 00 00 00 00 00 00 05 01 00 20
40: 00 00 00 00 00 00 00 00 00 00 00 00 00 00 00 00
50: 01 00 02 e4 00 00 00 00 00 00 00 00 00 00 00 00
60: 00 00 00 00 00 00 00 00 00 00 00 00 00 00 00 00
70: 00 00 00 00 00 00 00 00 00 00 00 00 00 00 00 00
80: 00 00 00 00 00 00 00 00 00 00 00 00 00 00 00 00
90: 00 00 00 00 00 00 00 00 00 00 00 00 00 00 00 00
a0: 00 00 00 00 00 00 00 00 00 00 00 00 00 00 00 00
b0: 00 00 00 00 00 00 00 00 00 00 00 00 00 00 00 00
c0: 00 00 00 00 00 00 00 00 00 00 00 00 00 00 00 00
d0: 00 00 00 00 00 00 00 00 00 00 00 00 00 00 00 00
e0: 00 00 00 00 00 00 00 00 00 00 00 00 00 00 00 00
f0: 00 00 00 00 00 00 00 00 00 00 00 00 00 00 00 00


--//IivP0gvsAy3Can--
